{
  "_format": "hh3-artifact-1",
  "contractName": "BotBettingEscrow",
  "sourceName": "contracts/escrow/BotBettingEscrow.sol",
  "abi": [
    {
      "inputs": [
        {
          "internalType": "address",
          "name": "_botToken",
          "type": "address"
        },
        {
          "internalType": "address",
          "name": "_treasury",
          "type": "address"
        }
      ],
      "stateMutability": "nonpayable",
      "type": "constructor"
    },
    {
      "inputs": [],
      "name": "AccessControlBadConfirmation",
      "type": "error"
    },
    {
      "inputs": [
        {
          "internalType": "address",
          "name": "account",
          "type": "address"
        },
        {
          "internalType": "bytes32",
          "name": "neededRole",
          "type": "bytes32"
        }
      ],
      "name": "AccessControlUnauthorizedAccount",
      "type": "error"
    },
    {
      "inputs": [],
      "name": "EnforcedPause",
      "type": "error"
    },
    {
      "inputs": [],
      "name": "ExpectedPause",
      "type": "error"
    },
    {
      "inputs": [],
      "name": "ReentrancyGuardReentrantCall",
      "type": "error"
    },
    {
      "inputs": [
        {
          "internalType": "address",
          "name": "token",
          "type": "address"
        }
      ],
      "name": "SafeERC20FailedOperation",
      "type": "error"
    },
    {
      "anonymous": false,
      "inputs": [
        {
          "indexed": true,
          "internalType": "uint256",
          "name": "roundId",
          "type": "uint256"
        },
        {
          "indexed": true,
          "internalType": "address",
          "name": "user",
          "type": "address"
        },
        {
          "indexed": true,
          "internalType": "uint256",
          "name": "botId",
          "type": "uint256"
        },
        {
          "indexed": false,
          "internalType": "uint256",
          "name": "amount",
          "type": "uint256"
        }
      ],
      "name": "BetPlaced",
      "type": "event"
    },
    {
      "anonymous": false,
      "inputs": [
        {
          "indexed": true,
          "internalType": "uint256",
          "name": "botId",
          "type": "uint256"
        },
        {
          "indexed": false,
          "internalType": "uint256",
          "name": "wins",
          "type": "uint256"
        },
        {
          "indexed": false,
          "internalType": "uint256",
          "name": "rounds",
          "type": "uint256"
        }
      ],
      "name": "BotPerformanceUpdated",
      "type": "event"
    },
    {
      "anonymous": false,
      "inputs": [
        {
          "indexed": false,
          "internalType": "address",
          "name": "account",
          "type": "address"
        }
      ],
      "name": "Paused",
      "type": "event"
    },
    {
      "anonymous": false,
      "inputs": [
        {
          "indexed": true,
          "internalType": "bytes32",
          "name": "role",
          "type": "bytes32"
        },
        {
          "indexed": true,
          "internalType": "bytes32",
          "name": "previousAdminRole",
          "type": "bytes32"
        },
        {
          "indexed": true,
          "internalType": "bytes32",
          "name": "newAdminRole",
          "type": "bytes32"
        }
      ],
      "name": "RoleAdminChanged",
      "type": "event"
    },
    {
      "anonymous": false,
      "inputs": [
        {
          "indexed": true,
          "internalType": "bytes32",
          "name": "role",
          "type": "bytes32"
        },
        {
          "indexed": true,
          "internalType": "address",
          "name": "account",
          "type": "address"
        },
        {
          "indexed": true,
          "internalType": "address",
          "name": "sender",
          "type": "address"
        }
      ],
      "name": "RoleGranted",
      "type": "event"
    },
    {
      "anonymous": false,
      "inputs": [
        {
          "indexed": true,
          "internalType": "bytes32",
          "name": "role",
          "type": "bytes32"
        },
        {
          "indexed": true,
          "internalType": "address",
          "name": "account",
          "type": "address"
        },
        {
          "indexed": true,
          "internalType": "address",
          "name": "sender",
          "type": "address"
        }
      ],
      "name": "RoleRevoked",
      "type": "event"
    },
    {
      "anonymous": false,
      "inputs": [
        {
          "indexed": true,
          "internalType": "uint256",
          "name": "roundId",
          "type": "uint256"
        },
        {
          "indexed": true,
          "internalType": "uint256",
          "name": "winningBot",
          "type": "uint256"
        },
        {
          "indexed": false,
          "internalType": "uint256",
          "name": "totalPot",
          "type": "uint256"
        }
      ],
      "name": "RoundSettled",
      "type": "event"
    },
    {
      "anonymous": false,
      "inputs": [
        {
          "indexed": true,
          "internalType": "uint256",
          "name": "roundId",
          "type": "uint256"
        },
        {
          "indexed": false,
          "internalType": "uint256",
          "name": "startTime",
          "type": "uint256"
        },
        {
          "indexed": false,
          "internalType": "uint256",
          "name": "endTime",
          "type": "uint256"
        }
      ],
      "name": "RoundStarted",
      "type": "event"
    },
    {
      "anonymous": false,
      "inputs": [
        {
          "indexed": false,
          "internalType": "address",
          "name": "account",
          "type": "address"
        }
      ],
      "name": "Unpaused",
      "type": "event"
    },
    {
      "anonymous": false,
      "inputs": [
        {
          "indexed": true,
          "internalType": "address",
          "name": "user",
          "type": "address"
        },
        {
          "indexed": false,
          "internalType": "uint256",
          "name": "amount",
          "type": "uint256"
        }
      ],
      "name": "WinningsClaimed",
      "type": "event"
    },
    {
      "inputs": [],
      "name": "BASIS_POINTS",
      "outputs": [
        {
          "internalType": "uint256",
          "name": "",
          "type": "uint256"
        }
      ],
      "stateMutability": "view",
      "type": "function"
    },
    {
      "inputs": [],
      "name": "DEFAULT_ADMIN_ROLE",
      "outputs": [
        {
          "internalType": "bytes32",
          "name": "",
          "type": "bytes32"
        }
      ],
      "stateMutability": "view",
      "type": "function"
    },
    {
      "inputs": [],
      "name": "FEE_PERCENTAGE",
      "outputs": [
        {
          "internalType": "uint256",
          "name": "",
          "type": "uint256"
        }
      ],
      "stateMutability": "view",
      "type": "function"
    },
    {
      "inputs": [],
      "name": "MAX_BET",
      "outputs": [
        {
          "internalType": "uint256",
          "name": "",
          "type": "uint256"
        }
      ],
      "stateMutability": "view",
      "type": "function"
    },
    {
      "inputs": [],
      "name": "MIN_BET",
      "outputs": [
        {
          "internalType": "uint256",
          "name": "",
          "type": "uint256"
        }
      ],
      "stateMutability": "view",
      "type": "function"
    },
    {
      "inputs": [],
      "name": "OPERATOR_ROLE",
      "outputs": [
        {
          "internalType": "bytes32",
          "name": "",
          "type": "bytes32"
        }
      ],
      "stateMutability": "view",
      "type": "function"
    },
    {
      "inputs": [],
      "name": "ORACLE_ROLE",
      "outputs": [
        {
          "internalType": "bytes32",
          "name": "",
          "type": "bytes32"
        }
      ],
      "stateMutability": "view",
      "type": "function"
    },
    {
      "inputs": [],
      "name": "ROUND_DURATION",
      "outputs": [
        {
          "internalType": "uint256",
          "name": "",
          "type": "uint256"
        }
      ],
      "stateMutability": "view",
      "type": "function"
    },
    {
      "inputs": [
        {
          "internalType": "uint256",
          "name": "",
          "type": "uint256"
        }
      ],
      "name": "botStats",
      "outputs": [
        {
          "internalType": "uint256",
          "name": "totalWins",
          "type": "uint256"
        },
        {
          "internalType": "uint256",
          "name": "totalRounds",
          "type": "uint256"
        },
        {
          "internalType": "uint256",
          "name": "totalEarnings",
          "type": "uint256"
        },
        {
          "internalType": "uint256",
          "name": "currentStreak",
          "type": "uint256"
        },
        {
          "internalType": "bool",
          "name": "isActive",
          "type": "bool"
        }
      ],
      "stateMutability": "view",
      "type": "function"
    },
    {
      "inputs": [],
      "name": "botToken",
      "outputs": [
        {
          "internalType": "contract IERC20",
          "name": "",
          "type": "address"
        }
      ],
      "stateMutability": "view",
      "type": "function"
    },
    {
      "inputs": [
        {
          "internalType": "uint256",
          "name": "roundId",
          "type": "uint256"
        }
      ],
      "name": "claimWinnings",
      "outputs": [],
      "stateMutability": "nonpayable",
      "type": "function"
    },
    {
      "inputs": [],
      "name": "currentRound",
      "outputs": [
        {
          "internalType": "uint256",
          "name": "",
          "type": "uint256"
        }
      ],
      "stateMutability": "view",
      "type": "function"
    },
    {
      "inputs": [
        {
          "internalType": "uint256",
          "name": "botId",
          "type": "uint256"
        }
      ],
      "name": "getBotBets",
      "outputs": [
        {
          "internalType": "uint256",
          "name": "",
          "type": "uint256"
        }
      ],
      "stateMutability": "view",
      "type": "function"
    },
    {
      "inputs": [
        {
          "internalType": "uint256",
          "name": "botId",
          "type": "uint256"
        }
      ],
      "name": "getBotStats",
      "outputs": [
        {
          "internalType": "uint256",
          "name": "wins",
          "type": "uint256"
        },
        {
          "internalType": "uint256",
          "name": "totalRounds",
          "type": "uint256"
        },
        {
          "internalType": "uint256",
          "name": "earnings",
          "type": "uint256"
        },
        {
          "internalType": "uint256",
          "name": "streak",
          "type": "uint256"
        },
        {
          "internalType": "bool",
          "name": "active",
          "type": "bool"
        },
        {
          "internalType": "uint256",
          "name": "winRate",
          "type": "uint256"
        }
      ],
      "stateMutability": "view",
      "type": "function"
    },
    {
      "inputs": [],
      "name": "getCurrentRoundInfo",
      "outputs": [
        {
          "internalType": "uint256",
          "name": "roundId",
          "type": "uint256"
        },
        {
          "internalType": "uint256",
          "name": "startTime",
          "type": "uint256"
        },
        {
          "internalType": "uint256",
          "name": "endTime",
          "type": "uint256"
        },
        {
          "internalType": "uint256",
          "name": "totalPot",
          "type": "uint256"
        },
        {
          "internalType": "bool",
          "name": "isActive",
          "type": "bool"
        }
      ],
      "stateMutability": "view",
      "type": "function"
    },
    {
      "inputs": [
        {
          "internalType": "bytes32",
          "name": "role",
          "type": "bytes32"
        }
      ],
      "name": "getRoleAdmin",
      "outputs": [
        {
          "internalType": "bytes32",
          "name": "",
          "type": "bytes32"
        }
      ],
      "stateMutability": "view",
      "type": "function"
    },
    {
      "inputs": [
        {
          "internalType": "address",
          "name": "user",
          "type": "address"
        },
        {
          "internalType": "uint256",
          "name": "botId",
          "type": "uint256"
        }
      ],
      "name": "getUserBet",
      "outputs": [
        {
          "internalType": "uint256",
          "name": "",
          "type": "uint256"
        }
      ],
      "stateMutability": "view",
      "type": "function"
    },
    {
      "inputs": [
        {
          "internalType": "bytes32",
          "name": "role",
          "type": "bytes32"
        },
        {
          "internalType": "address",
          "name": "account",
          "type": "address"
        }
      ],
      "name": "grantRole",
      "outputs": [],
      "stateMutability": "nonpayable",
      "type": "function"
    },
    {
      "inputs": [
        {
          "internalType": "bytes32",
          "name": "role",
          "type": "bytes32"
        },
        {
          "internalType": "address",
          "name": "account",
          "type": "address"
        }
      ],
      "name": "hasRole",
      "outputs": [
        {
          "internalType": "bool",
          "name": "",
          "type": "bool"
        }
      ],
      "stateMutability": "view",
      "type": "function"
    },
    {
      "inputs": [],
      "name": "pause",
      "outputs": [],
      "stateMutability": "nonpayable",
      "type": "function"
    },
    {
      "inputs": [],
      "name": "paused",
      "outputs": [
        {
          "internalType": "bool",
          "name": "",
          "type": "bool"
        }
      ],
      "stateMutability": "view",
      "type": "function"
    },
    {
      "inputs": [
        {
          "internalType": "uint256",
          "name": "botId",
          "type": "uint256"
        },
        {
          "internalType": "uint256",
          "name": "amount",
          "type": "uint256"
        }
      ],
      "name": "placeBet",
      "outputs": [],
      "stateMutability": "nonpayable",
      "type": "function"
    },
    {
      "inputs": [
        {
          "internalType": "bytes32",
          "name": "role",
          "type": "bytes32"
        },
        {
          "internalType": "address",
          "name": "callerConfirmation",
          "type": "address"
        }
      ],
      "name": "renounceRole",
      "outputs": [],
      "stateMutability": "nonpayable",
      "type": "function"
    },
    {
      "inputs": [
        {
          "internalType": "bytes32",
          "name": "role",
          "type": "bytes32"
        },
        {
          "internalType": "address",
          "name": "account",
          "type": "address"
        }
      ],
      "name": "revokeRole",
      "outputs": [],
      "stateMutability": "nonpayable",
      "type": "function"
    },
    {
      "inputs": [
        {
          "internalType": "uint256",
          "name": "",
          "type": "uint256"
        }
      ],
      "name": "rounds",
      "outputs": [
        {
          "internalType": "uint256",
          "name": "startTime",
          "type": "uint256"
        },
        {
          "internalType": "uint256",
          "name": "endTime",
          "type": "uint256"
        },
        {
          "internalType": "uint256",
          "name": "totalPot",
          "type": "uint256"
        },
        {
          "internalType": "uint256",
          "name": "winningBot",
          "type": "uint256"
        },
        {
          "internalType": "bool",
          "name": "settled",
          "type": "bool"
        },
        {
          "internalType": "uint256",
          "name": "roundNumber",
          "type": "uint256"
        }
      ],
      "stateMutability": "view",
      "type": "function"
    },
    {
      "inputs": [
        {
          "internalType": "uint256",
          "name": "botId",
          "type": "uint256"
        },
        {
          "internalType": "bool",
          "name": "active",
          "type": "bool"
        }
      ],
      "name": "setBotActive",
      "outputs": [],
      "stateMutability": "nonpayable",
      "type": "function"
    },
    {
      "inputs": [
        {
          "internalType": "uint256",
          "name": "roundId",
          "type": "uint256"
        },
        {
          "internalType": "uint256",
          "name": "winningBotId",
          "type": "uint256"
        }
      ],
      "name": "settleRound",
      "outputs": [],
      "stateMutability": "nonpayable",
      "type": "function"
    },
    {
      "inputs": [],
      "name": "startNewRound",
      "outputs": [],
      "stateMutability": "nonpayable",
      "type": "function"
    },
    {
      "inputs": [
        {
          "internalType": "bytes4",
          "name": "interfaceId",
          "type": "bytes4"
        }
      ],
      "name": "supportsInterface",
      "outputs": [
        {
          "internalType": "bool",
          "name": "",
          "type": "bool"
        }
      ],
      "stateMutability": "view",
      "type": "function"
    },
    {
      "inputs": [],
      "name": "treasury",
      "outputs": [
        {
          "internalType": "address",
          "name": "",
          "type": "address"
        }
      ],
      "stateMutability": "view",
      "type": "function"
    },
    {
      "inputs": [],
      "name": "treasuryFees",
      "outputs": [
        {
          "internalType": "uint256",
          "name": "",
          "type": "uint256"
        }
      ],
      "stateMutability": "view",
      "type": "function"
    },
    {
      "inputs": [],
      "name": "unpause",
      "outputs": [],
      "stateMutability": "nonpayable",
      "type": "function"
    },
    {
      "inputs": [
        {
          "internalType": "address",
          "name": "",
          "type": "address"
        }
      ],
      "name": "userTotalBets",
      "outputs": [
        {
          "internalType": "uint256",
          "name": "",
          "type": "uint256"
        }
      ],
      "stateMutability": "view",
      "type": "function"
    },
    {
      "inputs": [
        {
          "internalType": "address",
          "name": "",
          "type": "address"
        }
      ],
      "name": "userTotalWinnings",
      "outputs": [
        {
          "internalType": "uint256",
          "name": "",
          "type": "uint256"
        }
      ],
      "stateMutability": "view",
      "type": "function"
    },
    {
      "inputs": [],
      "name": "withdrawTreasuryFees",
      "outputs": [],
      "stateMutability": "nonpayable",
      "type": "function"
    }
  ],
  "bytecode": "0x60a060405234801561000f575f5ffd5b506040516117c53803806117c583398101604081905261002e9161021c565b600180556001600160a01b03821661007d5760405162461bcd60e51b815260206004820152600d60248201526c24b73b30b634b2103a37b5b2b760991b60448201526064015b60405180910390fd5b6001600160a01b0381166100c65760405162461bcd60e51b815260206004820152601060248201526f496e76616c696420747265617375727960801b6044820152606401610074565b6001600160a01b03828116608052600980546001600160a01b0319169183169190911790556100f55f33610158565b506101207f97667070c54ef182b0f5858b034beac1b6f3089aa2d3188bb1e8929f4fa9b92933610158565b505f5b600a811015610150575f818152600560205260409020600401805460ff1916600190811790915501610123565b50505061024d565b5f828152602081815260408083206001600160a01b038516845290915281205460ff166101f8575f838152602081815260408083206001600160a01b03861684529091529020805460ff191660011790556101b03390565b6001600160a01b0316826001600160a01b0316847f2f8788117e7eff1d82e926ec794901d17c78024a50270940304540a733656f0d60405160405180910390a45060016101fb565b505f5b92915050565b80516001600160a01b0381168114610217575f5ffd5b919050565b5f5f6040838503121561022d575f5ffd5b61023683610201565b915061024460208401610201565b90509250929050565b60805161154b61027a5f395f81816104ea01528181610a2401528181610b950152610dae015261154b5ff3fe608060405234801561000f575f5ffd5b506004361061019e575f3560e01c80620b46f8146101a257806301ffc9a7146101be57806307e2cea5146101e157806308857442146101f557806316de027e14610214578063248a9ca3146102295780632a07b1911461023c5780632f2ff15d146102a55780633323dc17146102b857806336568abe146102cb5780633f4ba83a146102de5780634afe62b5146102e65780634ef4a01c146102f95780635c975abb1461030157806361d027b31461030c578063651eb8bc1461032c5780636540742f1461036e5780636641ea081461037d578063677bd9ff14610386578063747dff421461039957806377a9ac75146103a15780637b6e1f9a146103d25780637e95b523146103f15780638456cb59146104025780638a19c8bc1461040a5780638c65c81f1461041357806391d148541461045b5780639a67430f1461046e578063a217fddf14610477578063bd85948c1461047e578063d547741f14610486578063de87b07d14610499578063e1f1c4a7146104dc578063e9949b97146104e5578063f5b541a61461050c575b5f5ffd5b6101ab6101f481565b6040519081526020015b60405180910390f35b6101d16101cc3660046112db565b610520565b60405190151581526020016101b5565b6101ab5f5160206114d65f395f51905f5281565b6101ab610203366004611324565b60066020525f908152604090205481565b61022761022236600461133d565b610556565b005b6101ab61023736600461136f565b6105b9565b61027b61024a36600461136f565b60056020525f9081526040902080546001820154600283015460038401546004909401549293919290919060ff1685565b6040805195865260208601949094529284019190915260608301521515608082015260a0016101b5565b6102276102b3366004611386565b6105cd565b6102276102c63660046113b0565b6105ef565b6102276102d9366004611386565b610836565b61022761086e565b6102276102f43660046113b0565b610883565b610227610b23565b60025460ff166101d1565b60095461031f906001600160a01b031681565b6040516101b591906113d0565b61033f61033a36600461136f565b610bbe565b6040805196875260208701959095529385019290925260608401521515608083015260a082015260c0016101b5565b6101ab678ac7230489e8000081565b6101ab610e1081565b61022761039436600461136f565b610c40565b61027b610e18565b6101ab6103af36600461136f565b600380545f90815260046020908152604080832094835293909201909152205490565b6101ab6103e0366004611324565b60076020525f908152604090205481565b6101ab69021e19e0c9bab240000081565b610227610e62565b6101ab60035481565b61033f61042136600461136f565b60046020525f9081526040902080546001820154600283015460058401546006850154600790950154939492939192909160ff9091169086565b6101d1610469366004611386565b610e74565b6101ab60085481565b6101ab5f81565b610227610e9c565b610227610494366004611386565b610fa6565b6101ab6104a73660046113e4565b6003545f9081526004602081815260408084206001600160a01b03871685529092018152818320848452905290205492915050565b6101ab61271081565b61031f7f000000000000000000000000000000000000000000000000000000000000000081565b6101ab5f5160206114f65f395f51905f5281565b5f6001600160e01b03198216637965db0b60e01b148061055057506301ffc9a760e01b6001600160e01b03198316145b92915050565b5f5160206114f65f395f51905f5261056d81610fc2565b600a83106105965760405162461bcd60e51b815260040161058d9061140c565b60405180910390fd5b505f91825260056020526040909120600401805460ff1916911515919091179055565b5f9081526020819052604090206001015490565b6105d6826105b9565b6105df81610fc2565b6105e98383610fcc565b50505050565b5f5160206114d65f395f51905f5261060681610fc2565b600a82106106265760405162461bcd60e51b815260040161058d9061140c565b5f83815260046020526040902060018101544210156106795760405162461bcd60e51b815260206004820152600f60248201526e149bdd5b99081b9bdd08195b991959608a1b604482015260640161058d565b600681015460ff16156106c05760405162461bcd60e51b815260206004820152600f60248201526e105b1c9958591e481cd95d1d1b1959608a1b604482015260640161058d565b6005810183905560068101805460ff1916600117905560028101545f90612710906106ee906101f490611448565b6106f8919061145f565b90508060085f82825461070b919061147e565b90915550505f84815260056020526040812080549161072983611491565b90915550505f84815260056020526040812060030180549161074a83611491565b909155505f90505b600a81101561079d575f81815260056020526040812060010180549161077783611491565b9190505550848114610795575f818152600560205260408120600301555b600101610752565b5083857f866f813a2289b14a1e94be9b6a7db4b5ad759df3fb1466245f650642f3cc7a5684600201546040516107d591815260200190565b60405180910390a35f84815260056020908152604091829020805460019091015483519182529181019190915285917f978d035bb45a4ad7aaadc57ca19bdf5942ec6e7e71c582a9bf9ac3d573eaa08f910160405180910390a25050505050565b6001600160a01b038116331461085f5760405163334bd91960e11b815260040160405180910390fd5b610869828261105b565b505050565b5f61087881610fc2565b6108806110c4565b50565b61088b611110565b61089361113a565b600a82106108b35760405162461bcd60e51b815260040161058d9061140c565b5f8281526005602052604090206004015460ff166109045760405162461bcd60e51b815260206004820152600e60248201526d426f74206e6f742061637469766560901b604482015260640161058d565b678ac7230489e800008110158015610926575069021e19e0c9bab24000008111155b6109675760405162461bcd60e51b8152602060048201526012602482015271125b9d985b1a590818995d08185b5bdd5b9d60721b604482015260640161058d565b6003545f9081526004602052604090208054421080159061098b5750806001015442105b6109ca5760405162461bcd60e51b815260206004820152601060248201526f526f756e64206e6f742061637469766560801b604482015260640161058d565b600681015460ff1615610a175760405162461bcd60e51b8152602060048201526015602482015274149bdd5b9908185b1c9958591e481cd95d1d1b1959605a1b604482015260640161058d565b610a4c6001600160a01b037f000000000000000000000000000000000000000000000000000000000000000016333085611160565b81816002015f828254610a5f919061147e565b90915550505f83815260038201602052604081208054849290610a8390849061147e565b9091555050335f908152600482016020908152604080832086845290915281208054849290610ab390849061147e565b9091555050335f9081526007602052604081208054849290610ad690849061147e565b9091555050600354604051838152849133917f1b8a9031cb9351278d70a994f81536e9e08c91162e64f92b2fe4766fb7a891b49060200160405180910390a450610b1f60018055565b5050565b5f5160206114f65f395f51905f52610b3a81610fc2565b60085480610b805760405162461bcd60e51b81526020600482015260136024820152724e6f206665657320746f20776974686472617760681b604482015260640161058d565b5f600855600954610b1f906001600160a01b037f000000000000000000000000000000000000000000000000000000000000000081169116836111c7565b5f818152600560209081526040808320815160a08101835281548082526001830154948201859052600283015493820184905260038301546060830181905260049093015460ff161515608083018190529095909185610c1e575f610c34565b85610c2a886064611448565b610c34919061145f565b91505091939550919395565b610c48611110565b5f818152600460205260409020600681015460ff16610c9d5760405162461bcd60e51b8152602060048201526011602482015270149bdd5b99081b9bdd081cd95d1d1b1959607a1b604482015260640161058d565b335f90815260048201602090815260408083206005850154845290915290205480610cfb5760405162461bcd60e51b815260206004820152600e60248201526d139bc81dda5b9b9a5b99c818995d60921b604482015260640161058d565b60058201545f908152600383016020526040812054600284015490919061271090610d29906101f490611448565b610d33919061145f565b8460020154610d4291906114a9565b90505f82610d508386611448565b610d5a919061145f565b335f818152600488016020908152604080832060058b0154845282528083208390559282526006905290812080549293508392909190610d9b90849061147e565b90915550610dd590506001600160a01b037f00000000000000000000000000000000000000000000000000000000000000001633836111c7565b60405181815233907f1a31e733a172afcf46074b3106c17f0c298e226442682a03c1e99ce256139ec29060200160405180910390a2505050505061088060018055565b6003545f81815260046020526040812080546001820154600283015491939092428511801590610e4757508342105b8015610e585750600681015460ff16155b9150509091929394565b5f610e6c81610fc2565b6108806111ed565b5f918252602082815260408084206001600160a01b0393909316845291905290205460ff1690565b5f5160206114f65f395f51905f52610eb381610fc2565b6003541580610ed557506003545f9081526004602052604090206006015460ff165b610f1e5760405162461bcd60e51b815260206004820152601a602482015279141c995d9a5bdd5cc81c9bdd5b99081b9bdd081cd95d1d1b195960321b604482015260640161058d565b60038054905f610f2d83611491565b90915550506003545f90815260046020526040902042808255610f5390610e109061147e565b6001820181905560035460078301819055825460408051918252602082019390935290917fa359b664a68acd8839e42112eb50eff3408165e15074fde89ddb58a0db2e691d910160405180910390a25050565b610faf826105b9565b610fb881610fc2565b6105e9838361105b565b610880813361122a565b5f610fd78383610e74565b611054575f838152602081815260408083206001600160a01b03861684529091529020805460ff1916600117905561100c3390565b6001600160a01b0316826001600160a01b0316847f2f8788117e7eff1d82e926ec794901d17c78024a50270940304540a733656f0d60405160405180910390a4506001610550565b505f610550565b5f6110668383610e74565b15611054575f838152602081815260408083206001600160a01b0386168085529252808320805460ff1916905551339286917ff6391f5c32d9c69d2a47ea670b442974b53935d1edc7fd64eb21e047a839171b9190a4506001610550565b6110cc611255565b6002805460ff191690557f5db9ee0a495bf2e6ff9c91a7834c1ba4fdd244a5e8aa4e537bd38aeae4b073aa335b60405161110691906113d0565b60405180910390a1565b60026001540361113357604051633ee5aeb560e01b815260040160405180910390fd5b6002600155565b60025460ff161561115e5760405163d93c066560e01b815260040160405180910390fd5b565b6040516001600160a01b0384811660248301528381166044830152606482018390526105e99186918216906323b872dd906084015b604051602081830303815290604052915060e01b6020820180516001600160e01b038381831617835250505050611278565b61086983846001600160a01b031663a9059cbb85856040516024016111959291906114bc565b6111f561113a565b6002805460ff191660011790557f62e78cea01bee320cd4e420270b5ea74000d11b0c9f74754ebdbfc544b05a2586110f93390565b6112348282610e74565b610b1f57808260405163e2517d3f60e01b815260040161058d9291906114bc565b60025460ff1661115e57604051638dfc202b60e01b815260040160405180910390fd5b5f5f60205f8451602086015f885af180611297576040513d5f823e3d81fd5b50505f513d915081156112ae5780600114156112bb565b6001600160a01b0384163b155b156105e95783604051635274afe760e01b815260040161058d91906113d0565b5f602082840312156112eb575f5ffd5b81356001600160e01b031981168114611302575f5ffd5b9392505050565b80356001600160a01b038116811461131f575f5ffd5b919050565b5f60208284031215611334575f5ffd5b61130282611309565b5f5f6040838503121561134e575f5ffd5b8235915060208301358015158114611364575f5ffd5b809150509250929050565b5f6020828403121561137f575f5ffd5b5035919050565b5f5f60408385031215611397575f5ffd5b823591506113a760208401611309565b90509250929050565b5f5f604083850312156113c1575f5ffd5b50508035926020909101359150565b6001600160a01b0391909116815260200190565b5f5f604083850312156113f5575f5ffd5b6113fe83611309565b946020939093013593505050565b6020808252600e908201526d125b9d985b1a5908189bdd08125160921b604082015260600190565b634e487b7160e01b5f52601160045260245ffd5b808202811582820484141761055057610550611434565b5f8261147957634e487b7160e01b5f52601260045260245ffd5b500490565b8082018082111561055057610550611434565b5f600182016114a2576114a2611434565b5060010190565b8181038181111561055057610550611434565b6001600160a01b0392909216825260208201526040019056fe68e79a7bf1e0bc45d0a330c573bc367f9cf464fd326078812f301165fbda4ef197667070c54ef182b0f5858b034beac1b6f3089aa2d3188bb1e8929f4fa9b929a26469706673582212201cf59a50d31621808770ec48ae67ab06924f4f97a19bab1ef29c4f7b5331c0be64736f6c634300081c0033",
  "linkReferences": {},
  "deployedLinkReferences": {},
  "immutableReferences": {
    "1319": [
      {
        "length": 32,
        "start": 1258
      },
      {
        "length": 32,
        "start": 2596
      },
      {
        "length": 32,
        "start": 2965
      },
      {
        "length": 32,
        "start": 3502
      }
    ]
  },
  "inputSourceName": "project/contracts/escrow/BotBettingEscrow.sol",
  "buildInfoId": "solc-0_8_28-b415b38842d3d51272af00b7be76dee7a3324eaa"
}