{
  "_format": "hh3-artifact-1",
  "contractName": "CrapsSettlement",
  "sourceName": "contracts/game/CrapsSettlement.sol",
  "abi": [
    {
      "inputs": [],
      "stateMutability": "nonpayable",
      "type": "constructor"
    },
    {
      "inputs": [],
      "name": "AccessControlBadConfirmation",
      "type": "error"
    },
    {
      "inputs": [
        {
          "internalType": "address",
          "name": "account",
          "type": "address"
        },
        {
          "internalType": "bytes32",
          "name": "neededRole",
          "type": "bytes32"
        }
      ],
      "name": "AccessControlUnauthorizedAccount",
      "type": "error"
    },
    {
      "inputs": [],
      "name": "ReentrancyGuardReentrantCall",
      "type": "error"
    },
    {
      "anonymous": false,
      "inputs": [
        {
          "indexed": true,
          "internalType": "uint256",
          "name": "seriesId",
          "type": "uint256"
        },
        {
          "indexed": false,
          "internalType": "uint256",
          "name": "rollNumber",
          "type": "uint256"
        },
        {
          "indexed": false,
          "internalType": "uint8",
          "name": "diceTotal",
          "type": "uint8"
        },
        {
          "indexed": false,
          "internalType": "uint256",
          "name": "totalPayout",
          "type": "uint256"
        }
      ],
      "name": "BatchSettlement",
      "type": "event"
    },
    {
      "anonymous": false,
      "inputs": [
        {
          "indexed": true,
          "internalType": "address",
          "name": "player",
          "type": "address"
        },
        {
          "indexed": true,
          "internalType": "uint256",
          "name": "seriesId",
          "type": "uint256"
        },
        {
          "indexed": false,
          "internalType": "uint256",
          "name": "rollNumber",
          "type": "uint256"
        },
        {
          "indexed": false,
          "internalType": "uint8",
          "name": "betType",
          "type": "uint8"
        },
        {
          "indexed": false,
          "internalType": "uint256",
          "name": "amount",
          "type": "uint256"
        }
      ],
      "name": "BetPushed",
      "type": "event"
    },
    {
      "anonymous": false,
      "inputs": [
        {
          "indexed": true,
          "internalType": "address",
          "name": "player",
          "type": "address"
        },
        {
          "indexed": true,
          "internalType": "uint256",
          "name": "seriesId",
          "type": "uint256"
        },
        {
          "indexed": false,
          "internalType": "uint256",
          "name": "rollNumber",
          "type": "uint256"
        },
        {
          "indexed": false,
          "internalType": "uint8",
          "name": "betType",
          "type": "uint8"
        },
        {
          "indexed": false,
          "internalType": "uint256",
          "name": "amount",
          "type": "uint256"
        },
        {
          "indexed": false,
          "internalType": "uint256",
          "name": "payout",
          "type": "uint256"
        },
        {
          "indexed": false,
          "internalType": "bool",
          "name": "won",
          "type": "bool"
        }
      ],
      "name": "BetSettled",
      "type": "event"
    },
    {
      "anonymous": false,
      "inputs": [
        {
          "indexed": true,
          "internalType": "address",
          "name": "player",
          "type": "address"
        },
        {
          "indexed": false,
          "internalType": "uint8",
          "name": "diceTotal",
          "type": "uint8"
        },
        {
          "indexed": false,
          "internalType": "uint256",
          "name": "payout",
          "type": "uint256"
        }
      ],
      "name": "FieldBetResolved",
      "type": "event"
    },
    {
      "anonymous": false,
      "inputs": [
        {
          "indexed": true,
          "internalType": "address",
          "name": "player",
          "type": "address"
        },
        {
          "indexed": false,
          "internalType": "uint8",
          "name": "hardwayType",
          "type": "uint8"
        },
        {
          "indexed": false,
          "internalType": "bool",
          "name": "wonHard",
          "type": "bool"
        },
        {
          "indexed": false,
          "internalType": "uint256",
          "name": "payout",
          "type": "uint256"
        }
      ],
      "name": "HardwayResolved",
      "type": "event"
    },
    {
      "anonymous": false,
      "inputs": [
        {
          "indexed": true,
          "internalType": "bytes32",
          "name": "role",
          "type": "bytes32"
        },
        {
          "indexed": true,
          "internalType": "bytes32",
          "name": "previousAdminRole",
          "type": "bytes32"
        },
        {
          "indexed": true,
          "internalType": "bytes32",
          "name": "newAdminRole",
          "type": "bytes32"
        }
      ],
      "name": "RoleAdminChanged",
      "type": "event"
    },
    {
      "anonymous": false,
      "inputs": [
        {
          "indexed": true,
          "internalType": "bytes32",
          "name": "role",
          "type": "bytes32"
        },
        {
          "indexed": true,
          "internalType": "address",
          "name": "account",
          "type": "address"
        },
        {
          "indexed": true,
          "internalType": "address",
          "name": "sender",
          "type": "address"
        }
      ],
      "name": "RoleGranted",
      "type": "event"
    },
    {
      "anonymous": false,
      "inputs": [
        {
          "indexed": true,
          "internalType": "bytes32",
          "name": "role",
          "type": "bytes32"
        },
        {
          "indexed": true,
          "internalType": "address",
          "name": "account",
          "type": "address"
        },
        {
          "indexed": true,
          "internalType": "address",
          "name": "sender",
          "type": "address"
        }
      ],
      "name": "RoleRevoked",
      "type": "event"
    },
    {
      "inputs": [],
      "name": "DEFAULT_ADMIN_ROLE",
      "outputs": [
        {
          "internalType": "bytes32",
          "name": "",
          "type": "bytes32"
        }
      ],
      "stateMutability": "view",
      "type": "function"
    },
    {
      "inputs": [],
      "name": "GAME_ROLE",
      "outputs": [
        {
          "internalType": "bytes32",
          "name": "",
          "type": "bytes32"
        }
      ],
      "stateMutability": "view",
      "type": "function"
    },
    {
      "inputs": [],
      "name": "OPERATOR_ROLE",
      "outputs": [
        {
          "internalType": "bytes32",
          "name": "",
          "type": "bytes32"
        }
      ],
      "stateMutability": "view",
      "type": "function"
    },
    {
      "inputs": [],
      "name": "betsContract",
      "outputs": [
        {
          "internalType": "contract ICrapsBets",
          "name": "",
          "type": "address"
        }
      ],
      "stateMutability": "view",
      "type": "function"
    },
    {
      "inputs": [
        {
          "internalType": "uint8",
          "name": "betType",
          "type": "uint8"
        },
        {
          "internalType": "uint256",
          "name": "amount",
          "type": "uint256"
        },
        {
          "internalType": "uint8",
          "name": "point",
          "type": "uint8"
        }
      ],
      "name": "calculatePayout",
      "outputs": [
        {
          "internalType": "uint256",
          "name": "",
          "type": "uint256"
        }
      ],
      "stateMutability": "pure",
      "type": "function"
    },
    {
      "inputs": [],
      "name": "currentRollNumber",
      "outputs": [
        {
          "internalType": "uint256",
          "name": "",
          "type": "uint256"
        }
      ],
      "stateMutability": "view",
      "type": "function"
    },
    {
      "inputs": [],
      "name": "currentSeriesId",
      "outputs": [
        {
          "internalType": "uint256",
          "name": "",
          "type": "uint256"
        }
      ],
      "stateMutability": "view",
      "type": "function"
    },
    {
      "inputs": [],
      "name": "gameContract",
      "outputs": [
        {
          "internalType": "contract ICrapsGame",
          "name": "",
          "type": "address"
        }
      ],
      "stateMutability": "view",
      "type": "function"
    },
    {
      "inputs": [
        {
          "internalType": "uint8",
          "name": "total",
          "type": "uint8"
        }
      ],
      "name": "getFieldPayout",
      "outputs": [
        {
          "internalType": "uint256",
          "name": "",
          "type": "uint256"
        }
      ],
      "stateMutability": "pure",
      "type": "function"
    },
    {
      "inputs": [
        {
          "internalType": "bytes32",
          "name": "role",
          "type": "bytes32"
        }
      ],
      "name": "getRoleAdmin",
      "outputs": [
        {
          "internalType": "bytes32",
          "name": "",
          "type": "bytes32"
        }
      ],
      "stateMutability": "view",
      "type": "function"
    },
    {
      "inputs": [
        {
          "internalType": "bytes32",
          "name": "role",
          "type": "bytes32"
        },
        {
          "internalType": "address",
          "name": "account",
          "type": "address"
        }
      ],
      "name": "grantRole",
      "outputs": [],
      "stateMutability": "nonpayable",
      "type": "function"
    },
    {
      "inputs": [
        {
          "internalType": "bytes32",
          "name": "role",
          "type": "bytes32"
        },
        {
          "internalType": "address",
          "name": "account",
          "type": "address"
        }
      ],
      "name": "hasRole",
      "outputs": [
        {
          "internalType": "bool",
          "name": "",
          "type": "bool"
        }
      ],
      "stateMutability": "view",
      "type": "function"
    },
    {
      "inputs": [
        {
          "internalType": "uint8",
          "name": "die1",
          "type": "uint8"
        },
        {
          "internalType": "uint8",
          "name": "die2",
          "type": "uint8"
        },
        {
          "internalType": "uint8",
          "name": "total",
          "type": "uint8"
        }
      ],
      "name": "isHardway",
      "outputs": [
        {
          "internalType": "bool",
          "name": "",
          "type": "bool"
        }
      ],
      "stateMutability": "pure",
      "type": "function"
    },
    {
      "inputs": [],
      "name": "lastDie1",
      "outputs": [
        {
          "internalType": "uint8",
          "name": "",
          "type": "uint8"
        }
      ],
      "stateMutability": "view",
      "type": "function"
    },
    {
      "inputs": [],
      "name": "lastDie2",
      "outputs": [
        {
          "internalType": "uint8",
          "name": "",
          "type": "uint8"
        }
      ],
      "stateMutability": "view",
      "type": "function"
    },
    {
      "inputs": [],
      "name": "lastTotal",
      "outputs": [
        {
          "internalType": "uint8",
          "name": "",
          "type": "uint8"
        }
      ],
      "stateMutability": "view",
      "type": "function"
    },
    {
      "inputs": [
        {
          "internalType": "bytes32",
          "name": "role",
          "type": "bytes32"
        },
        {
          "internalType": "address",
          "name": "callerConfirmation",
          "type": "address"
        }
      ],
      "name": "renounceRole",
      "outputs": [],
      "stateMutability": "nonpayable",
      "type": "function"
    },
    {
      "inputs": [
        {
          "internalType": "bytes32",
          "name": "role",
          "type": "bytes32"
        },
        {
          "internalType": "address",
          "name": "account",
          "type": "address"
        }
      ],
      "name": "revokeRole",
      "outputs": [],
      "stateMutability": "nonpayable",
      "type": "function"
    },
    {
      "inputs": [
        {
          "internalType": "uint256",
          "name": "",
          "type": "uint256"
        }
      ],
      "name": "seriesTotalPayouts",
      "outputs": [
        {
          "internalType": "uint256",
          "name": "",
          "type": "uint256"
        }
      ],
      "stateMutability": "view",
      "type": "function"
    },
    {
      "inputs": [
        {
          "internalType": "address",
          "name": "_gameContract",
          "type": "address"
        },
        {
          "internalType": "address",
          "name": "_betsContract",
          "type": "address"
        },
        {
          "internalType": "address",
          "name": "_vaultContract",
          "type": "address"
        }
      ],
      "name": "setContracts",
      "outputs": [],
      "stateMutability": "nonpayable",
      "type": "function"
    },
    {
      "inputs": [
        {
          "internalType": "uint8",
          "name": "total",
          "type": "uint8"
        }
      ],
      "name": "settleComeOutRoll",
      "outputs": [
        {
          "internalType": "uint256",
          "name": "",
          "type": "uint256"
        }
      ],
      "stateMutability": "nonpayable",
      "type": "function"
    },
    {
      "inputs": [
        {
          "internalType": "uint8",
          "name": "total",
          "type": "uint8"
        },
        {
          "internalType": "uint8",
          "name": "point",
          "type": "uint8"
        }
      ],
      "name": "settlePointRoll",
      "outputs": [
        {
          "internalType": "uint256",
          "name": "",
          "type": "uint256"
        }
      ],
      "stateMutability": "nonpayable",
      "type": "function"
    },
    {
      "inputs": [
        {
          "internalType": "uint8",
          "name": "die1",
          "type": "uint8"
        },
        {
          "internalType": "uint8",
          "name": "die2",
          "type": "uint8"
        }
      ],
      "name": "settleRoll",
      "outputs": [
        {
          "internalType": "uint256",
          "name": "",
          "type": "uint256"
        }
      ],
      "stateMutability": "nonpayable",
      "type": "function"
    },
    {
      "inputs": [],
      "name": "settleSevenOut",
      "outputs": [
        {
          "internalType": "uint256",
          "name": "",
          "type": "uint256"
        }
      ],
      "stateMutability": "nonpayable",
      "type": "function"
    },
    {
      "inputs": [
        {
          "internalType": "bytes4",
          "name": "interfaceId",
          "type": "bytes4"
        }
      ],
      "name": "supportsInterface",
      "outputs": [
        {
          "internalType": "bool",
          "name": "",
          "type": "bool"
        }
      ],
      "stateMutability": "view",
      "type": "function"
    },
    {
      "inputs": [],
      "name": "vaultContract",
      "outputs": [
        {
          "internalType": "contract ICrapsVault",
          "name": "",
          "type": "address"
        }
      ],
      "stateMutability": "view",
      "type": "function"
    }
  ],
  "bytecode": "0x608060405234801561000f575f5ffd5b506001805561001e5f3361004f565b506100497f97667070c54ef182b0f5858b034beac1b6f3089aa2d3188bb1e8929f4fa9b9293361004f565b506100f8565b5f828152602081815260408083206001600160a01b038516845290915281205460ff166100ef575f838152602081815260408083206001600160a01b03861684529091529020805460ff191660011790556100a73390565b6001600160a01b0316826001600160a01b0316847f2f8788117e7eff1d82e926ec794901d17c78024a50270940304540a733656f0d60405160405180910390a45060016100f2565b505f5b92915050565b612a01806101055f395ff3fe608060405234801561000f575f5ffd5b506004361061013c575f3560e01c806301ffc9a7146101405780630e8ba3da146101685780632274346b1461017e578063248a9ca3146101a95780632d34ea66146101bc5780632f2ff15d146101cf57806336568abe146101e4578063412ef5ab146101f75780634812418d1461020a578063493e5e331461022f57806372e9f6aa1461024257806391d14854146102555780639660195314610268578063a217fddf14610275578063ab4007061461027c578063acf6324314610290578063b3066d49146102a3578063bc37f578146102b6578063c1542f05146102bf578063c9777451146102d1578063d3f33009146102da578063d547741f146102ed578063e23b40dd14610300578063e341b08d14610313578063eef6b8ab14610326578063f5b541a614610345575b5f5ffd5b61015361014e366004612374565b61036c565b60405190151581526020015b60405180910390f35b6101706103a2565b60405190815260200161015f565b600454610191906001600160a01b031681565b6040516001600160a01b03909116815260200161015f565b6101706101b736600461239b565b610569565b6101706101ca3660046123c0565b61057d565b6101e26101dd3660046123ef565b610587565b005b6101e26101f23660046123ef565b6105a9565b6101706102053660046123c0565b6105e1565b60075461021d9062010000900460ff1681565b60405160ff909116815260200161015f565b61015361023d36600461241d565b6106c8565b610170610250366004612465565b61070f565b6101536102633660046123ef565b6109f4565b60075461021d9060ff1681565b6101705f81565b6101705f5160206129ac5f395f51905f5281565b600354610191906001600160a01b031681565b6101e26102b1366004612491565b610a1c565b61017060065481565b60075461021d90610100900460ff1681565b61017060055481565b600254610191906001600160a01b031681565b6101e26102fb3660046123ef565b610b56565b61017061030e366004612465565b610b72565b6101706103213660046124ce565b610c57565b61017061033436600461239b565b60086020525f908152604090205481565b6101707f97667070c54ef182b0f5858b034beac1b6f3089aa2d3188bb1e8929f4fa9b92981565b5f6001600160e01b03198216637965db0b60e01b148061039c57506301ffc9a760e01b6001600160e01b03198316145b92915050565b5f5f5160206129ac5f395f51905f526103ba81610ca2565b60025460408051636fa68e6b60e11b815290515f9283926001600160a01b039091169163df4d1cd6916004808201926102c0929091908290030181865afa158015610407573d5f5f3e3d5ffd5b505050506040513d601f19601f8201168201806040525081019061042b919061261e565b90506104385f5f5f610caf565b61044290836126f7565b91506104516001806064610caf565b61045b90836126f7565b915061046d601d5f8360200151611089565b61047790836126f7565b915061048a601e60018360200151611089565b61049490836126f7565b915060055b600e60ff8216116104cd576104af815f5f610caf565b6104b990846126f7565b9250806104c58161270a565b915050610499565b50600f5b601860ff821611610515575f6104e7825f6110bc565b90506104f582600183610caf565b6104ff90856126f7565b935050808061050d9061270a565b9150506104d1565b5060195b601c60ff82161161054d5761052f815f5f610caf565b61053990846126f7565b9250806105458161270a565b915050610519565b5061055781611610565b61056190836126f7565b935050505090565b5f9081526020819052604090206001015490565b5f61039c82611738565b61059082610569565b61059981610ca2565b6105a383836117b3565b50505050565b6001600160a01b03811633146105d25760405163334bd91960e11b815260040160405180910390fd5b6105dc8282611842565b505050565b5f5f5160206129ac5f395f51905f526105f981610ca2565b5f600760ff8516148061060f57508360ff16600b145b1561064a576106215f60016064610caf565b61062b90826126f7565b905061063960015f5f610caf565b61064390826126f7565b90506106c1565b8360ff166002148061065f57508360ff166003145b156106885761066f5f5f5f610caf565b61067990826126f7565b90506106396001806064610caf565b8360ff16600c036106c15761069e5f5f5f610caf565b6106a890826126f7565b90506106b460016118ab565b6106be90826126f7565b90505b9392505050565b5f8260ff168460ff161480156106be57508160ff16600414806106ee57508160ff166006145b806106fc57508160ff166008145b806106be57505060ff16600a1492915050565b5f5f5160206129ac5f395f51905f5261072781610ca2565b61072f611c31565b6007805460ff8581166101000261ffff19909216908716171790556107548385612728565b6007805460ff92909216620100000262ff00001990921691909117905560068054905f61078083612741565b909155505060025460408051636fa68e6b60e11b815290515f926001600160a01b03169163df4d1cd6916004808301926102c09291908290030181865afa1580156107cd573d5f5f3e3d5ffd5b505050506040513d601f19601f820116820180604052508101906107f1919061261e565b90505f60025f9054906101000a90046001600160a01b03166001600160a01b031663a3a40ea56040518163ffffffff1660e01b8152600401602060405180830381865afa158015610844573d5f5f3e3d5ffd5b505050506040513d601f19601f820116820180604052508101906108689190612759565b90505f600182600281111561087f5761087f612772565b036108a0576007546108999062010000900460ff166105e1565b90506108d7565b60028260028111156108b4576108b4612772565b036108d75760075460208401516108d49162010000900460ff1690610b72565b90505b6007546108ec9062010000900460ff16611c5b565b6108f690826126f7565b90505f60025f9054906101000a90046001600160a01b03166001600160a01b0316635279ad656040518163ffffffff1660e01b8152600401602060405180830381865afa158015610949573d5f5f3e3d5ffd5b505050506040513d601f19601f8201168201806040525081019061096d9190612786565b90508160085f8381526020019081526020015f205f82825461098f91906126f7565b909155505060065460075460405183927fcafebdf08b8bebc72b73d8326108ad80446f4dccad241d71e5f6e22e592ecffd926109d7926201000090910460ff1690879061279d565b60405180910390a250935050506109ed60018055565b5092915050565b5f918252602082815260408084206001600160a01b0393909316845291905290205460ff1690565b5f610a2681610ca2565b6001600160a01b038416610a705760405162461bcd60e51b815260206004820152600c60248201526b496e76616c69642067616d6560a01b60448201526064015b60405180910390fd5b6001600160a01b038316610ab55760405162461bcd60e51b815260206004820152600c60248201526b496e76616c6964206265747360a01b6044820152606401610a67565b6001600160a01b038216610afb5760405162461bcd60e51b815260206004820152600d60248201526c125b9d985b1a59081d985d5b1d609a1b6044820152606401610a67565b600280546001600160a01b038087166001600160a01b031992831617909255600380548684169083161790556004805492851692909116919091179055610b4f5f5160206129ac5f395f51905f52856117b3565b5050505050565b610b5f82610569565b610b6881610ca2565b6105a38383611842565b5f5f5160206129ac5f395f51905f52610b8a81610ca2565b5f60ff80851690861603610bff57610ba55f60016064610caf565b610baf90826126f7565b9050610bbd60015f5f610caf565b610bc790826126f7565b9050610bd6601d600186611089565b610be090826126f7565b9050610bee601e5f86611089565b610bf890826126f7565b9050610c4f565b8460ff16600703610c13575f9250506109ed565b610c1c85611d39565b610c2690826126f7565b600754909150610c429060ff8082169161010090041687611da1565b610c4c90826126f7565b90505b949350505050565b5f5f610c6385846110bc565b9050805f03610c75575f9150506106c1565b5f6064610c8283876127b6565b610c8c91906127cd565b9050610c9881866126f7565b9695505050505050565b610cac8133611e57565b50565b5f5f5f60045f9054906101000a90046001600160a01b03166001600160a01b0316635b67195c6040518163ffffffff1660e01b81526004015f60405180830381865afa158015610d01573d5f5f3e3d5ffd5b505050506040513d5f823e601f3d908101601f19168201604052610d2891908101906127ec565b90505f5b815181108015610d3c5750600a81105b1561107e575f6001600160a01b0316828281518110610d5d57610d5d61289e565b60200260200101516001600160a01b0316031561106e5760035482516001600160a01b039091169063eb7c038890849084908110610d9d57610d9d61289e565b6020026020010151896040518363ffffffff1660e01b8152600401610dc39291906128b2565b602060405180830381865afa158015610dde573d5f5f3e3d5ffd5b505050506040513d601f19601f82011682018060405250810190610e0291906128dd565b1561106e5760035482515f916001600160a01b031690637a4cf5c090859085908110610e3057610e3061289e565b60200260200101518a6040518363ffffffff1660e01b8152600401610e569291906128b2565b60a060405180830381865afa158015610e71573d5f5f3e3d5ffd5b505050506040513d601f19601f82011682018060405250810190610e9591906128f6565b90505f8715610f62578151606490610eae9089906127b6565b610eb891906127cd565b8251610ec491906126f7565b9050610ed081866126f7565b60045485519196506001600160a01b031690634e3e5c5c90869086908110610efa57610efa61289e565b6020026020010151836040518363ffffffff1660e01b8152600401610f20929190612979565b6020604051808303815f875af1158015610f3c573d5f5f3e3d5ffd5b505050506040513d601f19601f82011682018060405250810190610f6091906128dd565b505b600554848481518110610f7757610f7761289e565b60200260200101516001600160a01b03167f48aa125562aa49d53c78560cf6a957e52dcde17afb778cdfacf383c0a31176ac6006548c865f0151868e604051610fe795949392919094855260ff939093166020850152604084019190915260608301521515608082015260a00190565b60405180910390a360035484516001600160a01b039091169063a696bd28908690869081106110185761101861289e565b60200260200101518b6040518363ffffffff1660e01b815260040161103e9291906128b2565b5f604051808303815f87803b158015611055575f5ffd5b505af1158015611067573d5f5f3e3d5ffd5b5050505050505b61107781612741565b9050610d2c565b509095945050505050565b5f8261109a57610643845f5f610caf565b5f6110a585846110bc565b90506110b385600183610caf565b95945050505050565b5f60038360ff16116110d05750606461039c565b60031960ff8416016110e45750606461039c565b60041960ff8416016110f9575061024c61039c565b60051960ff84160161110e575061012661039c565b60061960ff841601611122575060c461039c565b60071960ff8416016111365750609361039c565b60081960ff84160161114a5750607661039c565b60091960ff84160161115e5750607661039c565b600a1960ff8416016111725750609361039c565b600b1960ff841601611186575060c461039c565b600c1960ff84160161119b575061012661039c565b600d1960ff8416016111b0575061024c61039c565b600e1960ff8416016111c45750601061039c565b600f1960ff8416016111d85750602161039c565b60101960ff8416016111ec5750603161039c565b60111960ff8416016112005750604161039c565b60121960ff8416016112145750605261039c565b60131960ff8416016112285750605261039c565b60141960ff84160161123c5750604161039c565b60151960ff8416016112505750603161039c565b60161960ff8416016112645750602161039c565b60171960ff8416016112785750601061039c565b60ff83166019148061128d575060ff8316601c145b1561129b57506102bc61039c565b60ff8316601a14806112b0575060ff8316601b145b156112be575061038461039c565b60ff8316601d14806112d3575060ff8316601f145b1561133e578160ff16600414806112ed57508160ff16600a145b156112fa575060c861039c565b8160ff166005148061130f57508160ff166009145b1561131c5750609661039c565b8160ff166006148061133157508160ff166008145b1561133e5750607861039c565b60ff8316601e1480611353575060ff83166020145b156113be578160ff166004148061136d57508160ff16600a145b1561137a5750603261039c565b8160ff166005148061138f57508160ff166009145b1561139c5750604361039c565b8160ff16600614806113b157508160ff166008145b156113be5750605361039c565b60211960ff8416016113d157505f61039c565b60221960ff8416016113e6575061025861039c565b60231960ff8416016113f957505f61039c565b60241960ff84160161140d575060c861039c565b60251960ff8416016114225750610bb861039c565b60261960ff8416016114375750610bb861039c565b60271960ff84160161144c5750613a9861039c565b60281960ff84160161145f57505f61039c565b60291960ff84160161147257505f61039c565b602a1960ff8416016114875750610d6661039c565b602b1960ff84160161149c575061068261039c565b602c1960ff8416016114b1575061043661039c565b602d1960ff8416016114c6575061031061039c565b602e1960ff8416016114db575061026061039c565b602f1960ff8416016114f057506101ea61039c565b60301960ff841601611505575061026061039c565b60311960ff84160161151a575061031061039c565b60321960ff84160161152f575061043661039c565b60331960ff841601611544575061068261039c565b60341960ff8416016115595750610d6661039c565b60ff83166036148061156e575060ff8316603f145b1561157c5750610fa061039c565b60ff831660371480611591575060ff8316603e145b1561159f575061138861039c565b60ff8316603814806115b4575060ff8316603d145b156115c2575061196461039c565b60ff8316603914806115d7575060ff8316603c145b156115e55750611f4061039c565b60ff8316603a14806115fa575060ff8316603b145b15611608575061232861039c565b505f92915050565b5f80808061161d85611e86565b9150915061162d60228383610caf565b61163790846126f7565b92505f5f61164487611ec3565b9150915061165460248383610caf565b61165e90866126f7565b94505f5f61166b89611f08565b9150915061167b60218383610caf565b61168590886126f7565b96505f5f6116928b611f43565b915091506116a2602a8383610caf565b6116ac908a6126f7565b98505f5f5f6116ba8e611f6b565b92509250925082156116e2576116d560266001610bb8610caf565b6116df908d6126f7565b9b505b8115611704576116f760276001610bb8610caf565b611701908d6126f7565b9b505b80156117265761171960286001613a98610caf565b611723908d6126f7565b9b505b50999c9b505050505050505050505050565b5f8160ff1660020361174c575060c8919050565b8160ff16600c03611760575061012c919050565b8160ff166003148061177557508160ff166004145b8061178357508160ff166009145b8061179157508160ff16600a145b8061179f57508160ff16600b145b156117ac57506064919050565b505f919050565b5f6117be83836109f4565b61183b575f838152602081815260408083206001600160a01b03861684529091529020805460ff191660011790556117f33390565b6001600160a01b0316826001600160a01b0316847f2f8788117e7eff1d82e926ec794901d17c78024a50270940304540a733656f0d60405160405180910390a450600161039c565b505f61039c565b5f61184d83836109f4565b1561183b575f838152602081815260408083206001600160a01b0386168085529252808320805460ff1916905551339286917ff6391f5c32d9c69d2a47ea670b442974b53935d1edc7fd64eb21e047a839171b9190a450600161039c565b5f5f5f60045f9054906101000a90046001600160a01b03166001600160a01b0316635b67195c6040518163ffffffff1660e01b81526004015f60405180830381865afa1580156118fd573d5f5f3e3d5ffd5b505050506040513d5f823e601f3d908101601f1916820160405261192491908101906127ec565b90505f5b8151811080156119385750600a81105b15611c28575f6001600160a01b03168282815181106119595761195961289e565b60200260200101516001600160a01b03160315611c185760035482516001600160a01b039091169063eb7c0388908490849081106119995761199961289e565b6020026020010151876040518363ffffffff1660e01b81526004016119bf9291906128b2565b602060405180830381865afa1580156119da573d5f5f3e3d5ffd5b505050506040513d601f19601f820116820180604052508101906119fe91906128dd565b15611c185760035482515f916001600160a01b031690637a4cf5c090859085908110611a2c57611a2c61289e565b6020026020010151886040518363ffffffff1660e01b8152600401611a529291906128b2565b60a060405180830381865afa158015611a6d573d5f5f3e3d5ffd5b505050506040513d601f19601f82011682018060405250810190611a9191906128f6565b8051909150611aa090856126f7565b60045484519195506001600160a01b031690634e3e5c5c90859085908110611aca57611aca61289e565b6020026020010151835f01516040518363ffffffff1660e01b8152600401611af3929190612979565b6020604051808303815f875af1158015611b0f573d5f5f3e3d5ffd5b505050506040513d601f19601f82011682018060405250810190611b3391906128dd565b50600554838381518110611b4957611b4961289e565b60200260200101516001600160a01b03167ffd55ea11eaf9a5d86fc6090b9732512b475813ad727adf3316f66982393c173660065489855f0151604051611b929392919061279d565b60405180910390a360035483516001600160a01b039091169063a696bd2890859085908110611bc357611bc361289e565b6020026020010151886040518363ffffffff1660e01b8152600401611be99291906128b2565b5f604051808303815f87803b158015611c00575f5ffd5b505af1158015611c12573d5f5f3e3d5ffd5b50505050505b611c2181612741565b9050611928565b50909392505050565b600260015403611c5457604051633ee5aeb560e01b815260040160405180910390fd5b6002600155565b5f80611c6683611fc3565b15611c96575f611c7584611738565b9050611c846004600183610caf565b611c8e90836126f7565b915050611caf565b611ca260045f5f610caf565b611cac90826126f7565b90505b602b5b603560ff8216116109ed575f611cc9602b83612992565b611cd4906002612728565b90508060ff168560ff1603611d0e575f611cee835f6110bc565b9050611cfc83600183610caf565b611d0690856126f7565b935050611d26565b611d19825f5f610caf565b611d2390846126f7565b92505b5080611d318161270a565b915050611cb2565b5f8080611d4584612021565b905060ff811615611d77575f611d5b825f6110bc565b9050611d6982600183610caf565b611d7390846126f7565b9250505b5f611d81856120e0565b905060ff811615611c2857611d97815f5f610caf565b6110b390846126f7565b5f8060ff85811681861614908416600403611de557611dd460198283611dc7575f611dcb565b6102bc5b61ffff16610caf565b611dde90836126f7565b9150611e4e565b8360ff16600603611e0957611dd4601a8283611e01575f611dcb565b610384610caf565b8360ff16600803611e2557611dd4601b8283611e01575f611dcb565b8360ff16600a03611e4e57611e41601c8283611dc7575f611dcb565b611e4b90836126f7565b91505b50949350505050565b611e6182826109f4565b611e8257808260405163e2517d3f60e01b8152600401610a67929190612979565b5050565b5f5f5f611e968460a0015161219f565b905060048160ff1610611eb8576001611eae826121cd565b9250925050915091565b505f93849350915050565b5f5f5f836080015160ff161115611efe575f600b846080015160ff1611611eee578360800151611ef1565b600b5b90506001611eae8261220b565b505f928392509050565b5f5f6002836060015160ff1610611efe575f6006846060015160ff1611611f33578360600151611f36565b60065b90506001611eae826122be565b5f5f5f611f538460c0015161219f565b905060038160ff1610611eb8576001611eae82612323565b5f5f5f5f611f7f8560e00151601f1661219f565b90505f611f97600b8760e0015161ffff16901c61219f565b600560ff8085168214975082161494509050848015611fb957508060ff166005145b9496939550505050565b5f8160ff1660021480611fd957508160ff166003145b80611fe757508160ff166004145b80611ff557508160ff166009145b8061200357508160ff16600a145b8061201157508160ff16600b145b8061039c57505060ff16600c1490565b5f8160ff1660020361203557506005919050565b8160ff1660030361204857506006919050565b8160ff1660040361205b57506007919050565b8160ff1660050361206e57506008919050565b8160ff1660060361208157506009919050565b8160ff166008036120945750600a919050565b8160ff166009036120a75750600b919050565b8160ff16600a036120ba5750600c919050565b8160ff16600b036120cd5750600d919050565b8160ff16600c036117ac5750600e919050565b5f8160ff166002036120f45750600f919050565b8160ff1660030361210757506010919050565b8160ff1660040361211a57506011919050565b8160ff1660050361212d57506012919050565b8160ff1660060361214057506013919050565b8160ff1660080361215357506014919050565b8160ff1660090361216657506015919050565b8160ff16600a0361217957506016919050565b8160ff16600b0361218c57506017919050565b8160ff16600c036117ac57506018919050565b5f805b60ff83161561039c57806121b58161270a565b91506121c49050600184612992565b831692506121a2565b5f8160ff166004036121e25750610f3c919050565b8160ff166005036121f65750616144919050565b8160ff166006036117ac57506201863c919050565b5f8160ff1660030361221f57506064919050565b8160ff16600403612232575060c8919050565b8160ff16600503612246575061012c919050565b8160ff1660060361225a5750610190919050565b8160ff1660070361226e57506103e8919050565b8160ff1660080361228257506105dc919050565b8160ff1660090361229657506107d0919050565b8160ff16600a036122aa5750612710919050565b600b8260ff16106117ac5750613a98919050565b5f8160ff166002036122d357506101f4919050565b8160ff166003036122e757506103e8919050565b8160ff166004036122fb57506107d0919050565b8160ff1660050361230f5750611388919050565b60068260ff16106117ac5750617530919050565b5f8160ff166003036123385750610190919050565b8160ff1660040361234c5750610320919050565b8160ff166005036123605750610bb8919050565b60068260ff16106117ac57506161a8919050565b5f60208284031215612384575f5ffd5b81356001600160e01b0319811681146106c1575f5ffd5b5f602082840312156123ab575f5ffd5b5035919050565b60ff81168114610cac575f5ffd5b5f602082840312156123d0575f5ffd5b81356106c1816123b2565b6001600160a01b0381168114610cac575f5ffd5b5f5f60408385031215612400575f5ffd5b823591506020830135612412816123db565b809150509250929050565b5f5f5f6060848603121561242f575f5ffd5b833561243a816123b2565b9250602084013561244a816123b2565b9150604084013561245a816123b2565b809150509250925092565b5f5f60408385031215612476575f5ffd5b8235612481816123b2565b91506020830135612412816123b2565b5f5f5f606084860312156124a3575f5ffd5b83356124ae816123db565b925060208401356124be816123db565b9150604084013561245a816123db565b5f5f5f606084860312156124e0575f5ffd5b83356124eb816123b2565b925060208401359150604084013561245a816123b2565b634e487b7160e01b5f52604160045260245ffd5b60405161014081016001600160401b038111828210171561253957612539612502565b60405290565b604051601f8201601f191681016001600160401b038111828210171561256757612567612502565b604052919050565b805161257a816123db565b919050565b805161257a816123b2565b80516003811061257a575f5ffd5b805161ffff8116811461257a575f5ffd5b5f82601f8301126125b8575f5ffd5b6040516101a081016001600160401b03811182821017156125db576125db612502565b604052806101a08401858111156125f0575f5ffd5b845b81811015612613578051612605816123b2565b8352602092830192016125f2565b509195945050505050565b5f6102c0828403128015612630575f5ffd5b50612639612516565b6126428361256f565b81526126506020840161257f565b60208201526126616040840161258a565b60408201526126726060840161257f565b60608201526126836080840161257f565b608082015261269460a0840161257f565b60a08201526126a560c0840161257f565b60c08201526126b660e08401612598565b60e08201526126c98461010085016125a9565b6101008201526102a0929092015161012083015250919050565b634e487b7160e01b5f52601160045260245ffd5b8082018082111561039c5761039c6126e3565b5f60ff821660ff810361271f5761271f6126e3565b60010192915050565b60ff818116838216019081111561039c5761039c6126e3565b5f60018201612752576127526126e3565b5060010190565b5f60208284031215612769575f5ffd5b6106c18261258a565b634e487b7160e01b5f52602160045260245ffd5b5f60208284031215612796575f5ffd5b5051919050565b92835260ff919091166020830152604082015260600190565b808202811582820484141761039c5761039c6126e3565b5f826127e757634e487b7160e01b5f52601260045260245ffd5b500490565b5f602082840312156127fc575f5ffd5b81516001600160401b03811115612811575f5ffd5b8201601f81018413612821575f5ffd5b80516001600160401b0381111561283a5761283a612502565b8060051b61284a6020820161253f565b91825260208184018101929081019087841115612865575f5ffd5b6020850194505b838510156128935784519250612881836123db565b8282526020948501949091019061286c565b979650505050505050565b634e487b7160e01b5f52603260045260245ffd5b6001600160a01b0392909216825260ff16602082015260400190565b8051801515811461257a575f5ffd5b5f602082840312156128ed575f5ffd5b6106c1826128ce565b5f60a0828403128015612907575f5ffd5b5060405160a081016001600160401b038111828210171561292a5761292a612502565b60405282518152602083015161293f816123b2565b60208201526040830151612952816123b2565b60408201526060838101519082015261296d608084016128ce565b60808201529392505050565b6001600160a01b03929092168252602082015260400190565b60ff828116828216039081111561039c5761039c6126e356fe6a64baf327d646d1bca72653e2a075d15fd6ac6d8cbd7f6ee03fc55875e0fa88a2646970667358221220fe843fbd479dd493fd11aef436949ffa05213970e14d3df0a2c31cf00cdf19f464736f6c634300081c0033",
  "linkReferences": {},
  "deployedLinkReferences": {},
  "immutableReferences": {},
  "inputSourceName": "project/contracts/game/CrapsSettlement.sol",
  "buildInfoId": "solc-0_8_28-08003884718a115bc5a34ffddf6806a10ca17a64"
}