{
  "_format": "hh3-artifact-1",
  "contractName": "CrapsGame",
  "sourceName": "contracts/game/CrapsGame.sol",
  "abi": [
    {
      "inputs": [
        {
          "internalType": "address",
          "name": "_vrfCoordinator",
          "type": "address"
        },
        {
          "internalType": "uint64",
          "name": "_subscriptionId",
          "type": "uint64"
        },
        {
          "internalType": "bytes32",
          "name": "_keyHash",
          "type": "bytes32"
        }
      ],
      "stateMutability": "nonpayable",
      "type": "constructor"
    },
    {
      "inputs": [],
      "name": "AccessControlBadConfirmation",
      "type": "error"
    },
    {
      "inputs": [
        {
          "internalType": "address",
          "name": "account",
          "type": "address"
        },
        {
          "internalType": "bytes32",
          "name": "neededRole",
          "type": "bytes32"
        }
      ],
      "name": "AccessControlUnauthorizedAccount",
      "type": "error"
    },
    {
      "inputs": [],
      "name": "EnforcedPause",
      "type": "error"
    },
    {
      "inputs": [],
      "name": "ExpectedPause",
      "type": "error"
    },
    {
      "inputs": [
        {
          "internalType": "address",
          "name": "have",
          "type": "address"
        },
        {
          "internalType": "address",
          "name": "want",
          "type": "address"
        }
      ],
      "name": "OnlyCoordinatorCanFulfill",
      "type": "error"
    },
    {
      "inputs": [],
      "name": "ReentrancyGuardReentrantCall",
      "type": "error"
    },
    {
      "anonymous": false,
      "inputs": [
        {
          "indexed": true,
          "internalType": "uint256",
          "name": "seriesId",
          "type": "uint256"
        },
        {
          "indexed": false,
          "internalType": "uint8",
          "name": "die1",
          "type": "uint8"
        },
        {
          "indexed": false,
          "internalType": "uint8",
          "name": "die2",
          "type": "uint8"
        },
        {
          "indexed": false,
          "internalType": "uint8",
          "name": "total",
          "type": "uint8"
        }
      ],
      "name": "DiceRolled",
      "type": "event"
    },
    {
      "anonymous": false,
      "inputs": [
        {
          "indexed": true,
          "internalType": "address",
          "name": "shooter",
          "type": "address"
        },
        {
          "indexed": false,
          "internalType": "uint256",
          "name": "seriesId",
          "type": "uint256"
        }
      ],
      "name": "GameStarted",
      "type": "event"
    },
    {
      "anonymous": false,
      "inputs": [
        {
          "indexed": false,
          "internalType": "address",
          "name": "account",
          "type": "address"
        }
      ],
      "name": "Paused",
      "type": "event"
    },
    {
      "anonymous": false,
      "inputs": [
        {
          "indexed": false,
          "internalType": "enum ICrapsGame.Phase",
          "name": "from",
          "type": "uint8"
        },
        {
          "indexed": false,
          "internalType": "enum ICrapsGame.Phase",
          "name": "to",
          "type": "uint8"
        }
      ],
      "name": "PhaseChanged",
      "type": "event"
    },
    {
      "anonymous": false,
      "inputs": [
        {
          "indexed": true,
          "internalType": "uint256",
          "name": "seriesId",
          "type": "uint256"
        },
        {
          "indexed": false,
          "internalType": "uint8",
          "name": "point",
          "type": "uint8"
        }
      ],
      "name": "PointEstablished",
      "type": "event"
    },
    {
      "anonymous": false,
      "inputs": [
        {
          "indexed": true,
          "internalType": "uint256",
          "name": "seriesId",
          "type": "uint256"
        },
        {
          "indexed": false,
          "internalType": "uint8",
          "name": "point",
          "type": "uint8"
        }
      ],
      "name": "PointMade",
      "type": "event"
    },
    {
      "anonymous": false,
      "inputs": [
        {
          "indexed": false,
          "internalType": "uint256",
          "name": "requestId",
          "type": "uint256"
        },
        {
          "indexed": false,
          "internalType": "uint256",
          "name": "randomness",
          "type": "uint256"
        }
      ],
      "name": "RandomnessFulfilled",
      "type": "event"
    },
    {
      "anonymous": false,
      "inputs": [
        {
          "indexed": false,
          "internalType": "uint256",
          "name": "requestId",
          "type": "uint256"
        }
      ],
      "name": "RandomnessRequested",
      "type": "event"
    },
    {
      "anonymous": false,
      "inputs": [
        {
          "indexed": true,
          "internalType": "bytes32",
          "name": "role",
          "type": "bytes32"
        },
        {
          "indexed": true,
          "internalType": "bytes32",
          "name": "previousAdminRole",
          "type": "bytes32"
        },
        {
          "indexed": true,
          "internalType": "bytes32",
          "name": "newAdminRole",
          "type": "bytes32"
        }
      ],
      "name": "RoleAdminChanged",
      "type": "event"
    },
    {
      "anonymous": false,
      "inputs": [
        {
          "indexed": true,
          "internalType": "bytes32",
          "name": "role",
          "type": "bytes32"
        },
        {
          "indexed": true,
          "internalType": "address",
          "name": "account",
          "type": "address"
        },
        {
          "indexed": true,
          "internalType": "address",
          "name": "sender",
          "type": "address"
        }
      ],
      "name": "RoleGranted",
      "type": "event"
    },
    {
      "anonymous": false,
      "inputs": [
        {
          "indexed": true,
          "internalType": "bytes32",
          "name": "role",
          "type": "bytes32"
        },
        {
          "indexed": true,
          "internalType": "address",
          "name": "account",
          "type": "address"
        },
        {
          "indexed": true,
          "internalType": "address",
          "name": "sender",
          "type": "address"
        }
      ],
      "name": "RoleRevoked",
      "type": "event"
    },
    {
      "anonymous": false,
      "inputs": [
        {
          "indexed": true,
          "internalType": "uint256",
          "name": "seriesId",
          "type": "uint256"
        },
        {
          "indexed": false,
          "internalType": "address",
          "name": "shooter",
          "type": "address"
        }
      ],
      "name": "SevenOut",
      "type": "event"
    },
    {
      "anonymous": false,
      "inputs": [
        {
          "indexed": false,
          "internalType": "address",
          "name": "account",
          "type": "address"
        }
      ],
      "name": "Unpaused",
      "type": "event"
    },
    {
      "inputs": [],
      "name": "DEFAULT_ADMIN_ROLE",
      "outputs": [
        {
          "internalType": "bytes32",
          "name": "",
          "type": "bytes32"
        }
      ],
      "stateMutability": "view",
      "type": "function"
    },
    {
      "inputs": [],
      "name": "OPERATOR_ROLE",
      "outputs": [
        {
          "internalType": "bytes32",
          "name": "",
          "type": "bytes32"
        }
      ],
      "stateMutability": "view",
      "type": "function"
    },
    {
      "inputs": [],
      "name": "SETTLEMENT_ROLE",
      "outputs": [
        {
          "internalType": "bytes32",
          "name": "",
          "type": "bytes32"
        }
      ],
      "stateMutability": "view",
      "type": "function"
    },
    {
      "inputs": [],
      "name": "VAULT_ROLE",
      "outputs": [
        {
          "internalType": "bytes32",
          "name": "",
          "type": "bytes32"
        }
      ],
      "stateMutability": "view",
      "type": "function"
    },
    {
      "inputs": [],
      "name": "autoRollEnabled",
      "outputs": [
        {
          "internalType": "bool",
          "name": "",
          "type": "bool"
        }
      ],
      "stateMutability": "view",
      "type": "function"
    },
    {
      "inputs": [],
      "name": "betsContract",
      "outputs": [
        {
          "internalType": "address",
          "name": "",
          "type": "address"
        }
      ],
      "stateMutability": "view",
      "type": "function"
    },
    {
      "inputs": [
        {
          "internalType": "uint8",
          "name": "betType",
          "type": "uint8"
        }
      ],
      "name": "canPlaceBet",
      "outputs": [
        {
          "internalType": "bool",
          "name": "",
          "type": "bool"
        }
      ],
      "stateMutability": "view",
      "type": "function"
    },
    {
      "inputs": [],
      "name": "currentPhase",
      "outputs": [
        {
          "internalType": "enum ICrapsGame.Phase",
          "name": "",
          "type": "uint8"
        }
      ],
      "stateMutability": "view",
      "type": "function"
    },
    {
      "inputs": [],
      "name": "currentSeriesId",
      "outputs": [
        {
          "internalType": "uint256",
          "name": "",
          "type": "uint256"
        }
      ],
      "stateMutability": "view",
      "type": "function"
    },
    {
      "inputs": [],
      "name": "currentShooter",
      "outputs": [
        {
          "internalType": "address",
          "name": "shooter",
          "type": "address"
        },
        {
          "internalType": "uint8",
          "name": "point",
          "type": "uint8"
        },
        {
          "internalType": "enum ICrapsGame.Phase",
          "name": "phase",
          "type": "uint8"
        },
        {
          "internalType": "uint8",
          "name": "pointsMadeCount",
          "type": "uint8"
        },
        {
          "internalType": "uint8",
          "name": "consecutiveWins",
          "type": "uint8"
        },
        {
          "internalType": "uint8",
          "name": "fireMask",
          "type": "uint8"
        },
        {
          "internalType": "uint8",
          "name": "doublesMask",
          "type": "uint8"
        },
        {
          "internalType": "uint16",
          "name": "smallTallMask",
          "type": "uint16"
        },
        {
          "internalType": "uint256",
          "name": "seriesStartBlock",
          "type": "uint256"
        }
      ],
      "stateMutability": "view",
      "type": "function"
    },
    {
      "inputs": [],
      "name": "endCurrentSeries",
      "outputs": [],
      "stateMutability": "nonpayable",
      "type": "function"
    },
    {
      "inputs": [],
      "name": "getCurrentPhase",
      "outputs": [
        {
          "internalType": "enum ICrapsGame.Phase",
          "name": "",
          "type": "uint8"
        }
      ],
      "stateMutability": "view",
      "type": "function"
    },
    {
      "inputs": [],
      "name": "getCurrentShooter",
      "outputs": [
        {
          "components": [
            {
              "internalType": "address",
              "name": "shooter",
              "type": "address"
            },
            {
              "internalType": "uint8",
              "name": "point",
              "type": "uint8"
            },
            {
              "internalType": "enum ICrapsGame.Phase",
              "name": "phase",
              "type": "uint8"
            },
            {
              "internalType": "uint8",
              "name": "pointsMadeCount",
              "type": "uint8"
            },
            {
              "internalType": "uint8",
              "name": "consecutiveWins",
              "type": "uint8"
            },
            {
              "internalType": "uint8",
              "name": "fireMask",
              "type": "uint8"
            },
            {
              "internalType": "uint8",
              "name": "doublesMask",
              "type": "uint8"
            },
            {
              "internalType": "uint16",
              "name": "smallTallMask",
              "type": "uint16"
            },
            {
              "internalType": "uint8[13]",
              "name": "rollCount",
              "type": "uint8[13]"
            },
            {
              "internalType": "uint256",
              "name": "seriesStartBlock",
              "type": "uint256"
            }
          ],
          "internalType": "struct ICrapsGame.ShooterState",
          "name": "",
          "type": "tuple"
        }
      ],
      "stateMutability": "view",
      "type": "function"
    },
    {
      "inputs": [],
      "name": "getLastRoll",
      "outputs": [
        {
          "components": [
            {
              "internalType": "uint8",
              "name": "die1",
              "type": "uint8"
            },
            {
              "internalType": "uint8",
              "name": "die2",
              "type": "uint8"
            },
            {
              "internalType": "uint8",
              "name": "total",
              "type": "uint8"
            },
            {
              "internalType": "uint256",
              "name": "timestamp",
              "type": "uint256"
            },
            {
              "internalType": "uint256",
              "name": "requestId",
              "type": "uint256"
            }
          ],
          "internalType": "struct ICrapsGame.DiceRoll",
          "name": "",
          "type": "tuple"
        }
      ],
      "stateMutability": "view",
      "type": "function"
    },
    {
      "inputs": [
        {
          "internalType": "bytes32",
          "name": "role",
          "type": "bytes32"
        }
      ],
      "name": "getRoleAdmin",
      "outputs": [
        {
          "internalType": "bytes32",
          "name": "",
          "type": "bytes32"
        }
      ],
      "stateMutability": "view",
      "type": "function"
    },
    {
      "inputs": [],
      "name": "getSeriesId",
      "outputs": [
        {
          "internalType": "uint256",
          "name": "",
          "type": "uint256"
        }
      ],
      "stateMutability": "view",
      "type": "function"
    },
    {
      "inputs": [
        {
          "internalType": "bytes32",
          "name": "role",
          "type": "bytes32"
        },
        {
          "internalType": "address",
          "name": "account",
          "type": "address"
        }
      ],
      "name": "grantRole",
      "outputs": [],
      "stateMutability": "nonpayable",
      "type": "function"
    },
    {
      "inputs": [
        {
          "internalType": "bytes32",
          "name": "role",
          "type": "bytes32"
        },
        {
          "internalType": "address",
          "name": "account",
          "type": "address"
        }
      ],
      "name": "hasRole",
      "outputs": [
        {
          "internalType": "bool",
          "name": "",
          "type": "bool"
        }
      ],
      "stateMutability": "view",
      "type": "function"
    },
    {
      "inputs": [
        {
          "internalType": "uint8",
          "name": "betType",
          "type": "uint8"
        }
      ],
      "name": "isBetTypeValid",
      "outputs": [
        {
          "internalType": "bool",
          "name": "",
          "type": "bool"
        }
      ],
      "stateMutability": "pure",
      "type": "function"
    },
    {
      "inputs": [],
      "name": "isGameActive",
      "outputs": [
        {
          "internalType": "bool",
          "name": "",
          "type": "bool"
        }
      ],
      "stateMutability": "view",
      "type": "function"
    },
    {
      "inputs": [],
      "name": "lastRoll",
      "outputs": [
        {
          "internalType": "uint8",
          "name": "die1",
          "type": "uint8"
        },
        {
          "internalType": "uint8",
          "name": "die2",
          "type": "uint8"
        },
        {
          "internalType": "uint8",
          "name": "total",
          "type": "uint8"
        },
        {
          "internalType": "uint256",
          "name": "timestamp",
          "type": "uint256"
        },
        {
          "internalType": "uint256",
          "name": "requestId",
          "type": "uint256"
        }
      ],
      "stateMutability": "view",
      "type": "function"
    },
    {
      "inputs": [],
      "name": "lastRollTimestamp",
      "outputs": [
        {
          "internalType": "uint256",
          "name": "",
          "type": "uint256"
        }
      ],
      "stateMutability": "view",
      "type": "function"
    },
    {
      "inputs": [],
      "name": "maxBetAmount",
      "outputs": [
        {
          "internalType": "uint256",
          "name": "",
          "type": "uint256"
        }
      ],
      "stateMutability": "view",
      "type": "function"
    },
    {
      "inputs": [],
      "name": "minBetAmount",
      "outputs": [
        {
          "internalType": "uint256",
          "name": "",
          "type": "uint256"
        }
      ],
      "stateMutability": "view",
      "type": "function"
    },
    {
      "inputs": [],
      "name": "pause",
      "outputs": [],
      "stateMutability": "nonpayable",
      "type": "function"
    },
    {
      "inputs": [],
      "name": "paused",
      "outputs": [
        {
          "internalType": "bool",
          "name": "",
          "type": "bool"
        }
      ],
      "stateMutability": "view",
      "type": "function"
    },
    {
      "inputs": [
        {
          "internalType": "uint256",
          "name": "",
          "type": "uint256"
        }
      ],
      "name": "pendingRequests",
      "outputs": [
        {
          "internalType": "bool",
          "name": "",
          "type": "bool"
        }
      ],
      "stateMutability": "view",
      "type": "function"
    },
    {
      "inputs": [
        {
          "internalType": "uint256",
          "name": "requestId",
          "type": "uint256"
        },
        {
          "internalType": "uint256[]",
          "name": "randomWords",
          "type": "uint256[]"
        }
      ],
      "name": "rawFulfillRandomWords",
      "outputs": [],
      "stateMutability": "nonpayable",
      "type": "function"
    },
    {
      "inputs": [
        {
          "internalType": "bytes32",
          "name": "role",
          "type": "bytes32"
        },
        {
          "internalType": "address",
          "name": "callerConfirmation",
          "type": "address"
        }
      ],
      "name": "renounceRole",
      "outputs": [],
      "stateMutability": "nonpayable",
      "type": "function"
    },
    {
      "inputs": [],
      "name": "requestDiceRoll",
      "outputs": [
        {
          "internalType": "uint256",
          "name": "",
          "type": "uint256"
        }
      ],
      "stateMutability": "nonpayable",
      "type": "function"
    },
    {
      "inputs": [
        {
          "internalType": "uint256",
          "name": "",
          "type": "uint256"
        }
      ],
      "name": "requestToSeries",
      "outputs": [
        {
          "internalType": "uint256",
          "name": "",
          "type": "uint256"
        }
      ],
      "stateMutability": "view",
      "type": "function"
    },
    {
      "inputs": [
        {
          "internalType": "bytes32",
          "name": "role",
          "type": "bytes32"
        },
        {
          "internalType": "address",
          "name": "account",
          "type": "address"
        }
      ],
      "name": "revokeRole",
      "outputs": [],
      "stateMutability": "nonpayable",
      "type": "function"
    },
    {
      "inputs": [],
      "name": "rollCooldown",
      "outputs": [
        {
          "internalType": "uint256",
          "name": "",
          "type": "uint256"
        }
      ],
      "stateMutability": "view",
      "type": "function"
    },
    {
      "inputs": [
        {
          "internalType": "uint256",
          "name": "",
          "type": "uint256"
        }
      ],
      "name": "seriesHistory",
      "outputs": [
        {
          "internalType": "address",
          "name": "shooter",
          "type": "address"
        },
        {
          "internalType": "uint8",
          "name": "point",
          "type": "uint8"
        },
        {
          "internalType": "enum ICrapsGame.Phase",
          "name": "phase",
          "type": "uint8"
        },
        {
          "internalType": "uint8",
          "name": "pointsMadeCount",
          "type": "uint8"
        },
        {
          "internalType": "uint8",
          "name": "consecutiveWins",
          "type": "uint8"
        },
        {
          "internalType": "uint8",
          "name": "fireMask",
          "type": "uint8"
        },
        {
          "internalType": "uint8",
          "name": "doublesMask",
          "type": "uint8"
        },
        {
          "internalType": "uint16",
          "name": "smallTallMask",
          "type": "uint16"
        },
        {
          "internalType": "uint256",
          "name": "seriesStartBlock",
          "type": "uint256"
        }
      ],
      "stateMutability": "view",
      "type": "function"
    },
    {
      "inputs": [
        {
          "internalType": "uint256",
          "name": "",
          "type": "uint256"
        }
      ],
      "name": "seriesTotalRolls",
      "outputs": [
        {
          "internalType": "uint256",
          "name": "",
          "type": "uint256"
        }
      ],
      "stateMutability": "view",
      "type": "function"
    },
    {
      "inputs": [
        {
          "internalType": "address",
          "name": "_betsContract",
          "type": "address"
        },
        {
          "internalType": "address",
          "name": "_settlementContract",
          "type": "address"
        },
        {
          "internalType": "address",
          "name": "_vaultContract",
          "type": "address"
        }
      ],
      "name": "setContracts",
      "outputs": [],
      "stateMutability": "nonpayable",
      "type": "function"
    },
    {
      "inputs": [],
      "name": "settlementContract",
      "outputs": [
        {
          "internalType": "address",
          "name": "",
          "type": "address"
        }
      ],
      "stateMutability": "view",
      "type": "function"
    },
    {
      "inputs": [
        {
          "internalType": "address",
          "name": "shooter",
          "type": "address"
        }
      ],
      "name": "startNewSeries",
      "outputs": [],
      "stateMutability": "nonpayable",
      "type": "function"
    },
    {
      "inputs": [
        {
          "internalType": "bytes4",
          "name": "interfaceId",
          "type": "bytes4"
        }
      ],
      "name": "supportsInterface",
      "outputs": [
        {
          "internalType": "bool",
          "name": "",
          "type": "bool"
        }
      ],
      "stateMutability": "view",
      "type": "function"
    },
    {
      "inputs": [],
      "name": "totalRollsInSeries",
      "outputs": [
        {
          "internalType": "uint256",
          "name": "",
          "type": "uint256"
        }
      ],
      "stateMutability": "view",
      "type": "function"
    },
    {
      "inputs": [],
      "name": "unpause",
      "outputs": [],
      "stateMutability": "nonpayable",
      "type": "function"
    },
    {
      "inputs": [
        {
          "internalType": "uint256",
          "name": "_minBet",
          "type": "uint256"
        },
        {
          "internalType": "uint256",
          "name": "_maxBet",
          "type": "uint256"
        },
        {
          "internalType": "bool",
          "name": "_autoRoll",
          "type": "bool"
        },
        {
          "internalType": "uint256",
          "name": "_cooldown",
          "type": "uint256"
        }
      ],
      "name": "updateConfig",
      "outputs": [],
      "stateMutability": "nonpayable",
      "type": "function"
    },
    {
      "inputs": [],
      "name": "vaultContract",
      "outputs": [
        {
          "internalType": "address",
          "name": "",
          "type": "address"
        }
      ],
      "stateMutability": "view",
      "type": "function"
    }
  ],
  "bytecode": "0x610100604052670de0b6b3a764000060105569021e19e0c9bab24000006011556012805460ff19166001179055600a60135534801561003c575f5ffd5b5060405161281038038061281083398101604081905261005b91610175565b6001600160a01b03831660808190526001805560a0526001600160401b03821660c05260e081905261008d5f336100cc565b506100b87f97667070c54ef182b0f5858b034beac1b6f3089aa2d3188bb1e8929f4fa9b929336100cc565b50506006805460ff19169055506101cb9050565b5f828152602081815260408083206001600160a01b038516845290915281205460ff1661016c575f838152602081815260408083206001600160a01b03861684529091529020805460ff191660011790556101243390565b6001600160a01b0316826001600160a01b0316847f2f8788117e7eff1d82e926ec794901d17c78024a50270940304540a733656f0d60405160405180910390a450600161016f565b505f5b92915050565b5f5f5f60608486031215610187575f5ffd5b83516001600160a01b038116811461019d575f5ffd5b60208501519093506001600160401b03811681146101b9575f5ffd5b80925050604084015190509250925092565b60805160a05160c05160e05161260b6102055f395f6108db01525f61090901525f61094901525f818161071a015261075c015261260b5ff3fe608060405234801561000f575f5ffd5b50600436106101f7575f3560e01c806301ffc9a7146101fb578063055ad42e146102235780630c0ef2b01461023d5780631fe543e3146102455780632050929c1461025a5780632274346b14610270578063248a9ca314610290578063250e044b146102a35780632f2ff15d146102ac57806336568abe146102bf5780633c652a9a146102d25780633ed7b455146102f45780633f4ba83a146103075780635279ad651461030f5780635c975abb146103175780636192d8601461032257806379f03dcc1461032a5780638456cb591461033d57806391d14854146103455780639331b2221461035857806396a6f3291461036157806398c4f1ac1461041b5780639ea06a521461042f578063a217fddf1461043c578063a3a40ea514610443578063a779e5b31461044e578063acf632431461046d578063b3066d4914610480578063ba9cf01d14610493578063bf02cb91146104a7578063c21af6bc14610503578063c97774511461057d578063cab11d5d14610586578063cb8979081461058f578063d33faa39146105a9578063d547741f14610626578063df4d1cd614610639578063e28316301461064e578063ea42418b14610657578063f442ac4a1461066a578063f5b541a61461067d578063f875bb8414610691578063fa968eea146106b0575b5f5ffd5b61020e61020936600461206d565b6106b9565b60405190151581526020015b60405180910390f35b6006546102309060ff1681565b60405161021a91906120cf565b61020e6106ef565b6102586102533660046120f1565b61070f565b005b61026261079c565b60405190815260200161021a565b601754610283906001600160a01b031681565b60405161021a91906121c4565b61026261029e3660046121d8565b610a30565b61026260145481565b6102586102ba36600461220a565b610a44565b6102586102cd36600461220a565b610a66565b61020e6102e03660046121d8565b600c6020525f908152604090205460ff1681565b610258610302366004612234565b610a9e565b610258610dbb565b600a54610262565b60025460ff1661020e565b610258610ddd565b61020e61033836600461224d565b611031565b6102586110e9565b61020e61035336600461220a565b611108565b610262600b5481565b6103d16040805160a0810182525f80825260208201819052918101829052606081018290526080810191909152506040805160a08101825260075460ff80821683526101008204811660208401526201000090910416918101919091526008546060820152600954608082015290565b60405161021a91905f60a08201905060ff835116825260ff602084015116602083015260ff6040840151166040830152606083015160608301526080830151608083015292915050565b6102625f5160206125965f395f51905f5281565b60125461020e9060ff1681565b6102625f81565b60065460ff16610230565b61026261045c3660046121d8565b600f6020525f908152604090205481565b601554610283906001600160a01b031681565b61025861048e36600461226d565b611130565b6102625f5160206125565f395f51905f5281565b6007546008546009546104d09260ff808216936101008304821693620100009093049091169185565b6040805160ff9687168152948616602086015292909416918301919091526060820152608081019190915260a00161021a565b600354600554610568916001600160a01b03811691600160a01b820460ff90811692600160a81b8104821692600160b01b8204831692600160b81b8304811692600160c01b8104821692600160c81b820490921691600160d01b90910461ffff169089565b60405161021a999897969594939291906122ad565b610262600a5481565b61026260115481565b61020e61059d36600461224d565b603f60ff909116111590565b6105686105b73660046121d8565b600e6020525f9081526040902080546002909101546001600160a01b0382169160ff600160a01b8204811692600160a81b8304821692600160b01b8104831692600160b81b8204811692600160c01b8304821692600160c81b81049092169161ffff600160d01b909104169089565b61025861063436600461220a565b61129e565b6106416112ba565b60405161021a9190612336565b61026260135481565b601654610283906001600160a01b031681565b610258610678366004612401565b6113d9565b6102625f5160206125765f395f51905f5281565b61026261069f3660046121d8565b600d6020525f908152604090205481565b61026260105481565b5f6001600160e01b03198216637965db0b60e01b14806106e957506301ffc9a760e01b6001600160e01b03198316145b92915050565b5f8060065460ff1660028111156107085761070861209b565b1415905090565b336001600160a01b037f0000000000000000000000000000000000000000000000000000000000000000161461078e5760405163073e64fd60e21b81523360048201526001600160a01b037f00000000000000000000000000000000000000000000000000000000000000001660248201526044015b60405180910390fd5b61079882826114a9565b5050565b5f8060065460ff1660028111156107b5576107b561209b565b036107f45760405162461bcd60e51b815260206004820152600f60248201526e47616d65206e6f742061637469766560881b6044820152606401610785565b6107fc611872565b6108135f5160206125765f395f51905f5233611108565b8061082857506003546001600160a01b031633145b80610835575060125460ff165b61087a5760405162461bcd60e51b8152602060048201526016602482015275139bdd08185d5d1a1bdc9a5e9959081d1bc81c9bdb1b60521b6044820152606401610785565b60135460145461088a9190612455565b4210156108cc5760405162461bcd60e51b815260206004820152601060248201526f10dbdbdb191bdddb881b9bdd081b595d60821b6044820152606401610785565b6040516305d3b1d360e41b81527f000000000000000000000000000000000000000000000000000000000000000060048201526001600160401b037f00000000000000000000000000000000000000000000000000000000000000001660248201526003604482015262030d406064820152600260848201525f907f00000000000000000000000000000000000000000000000000000000000000006001600160a01b031690635d3b1d309060a4016020604051808303815f875af1158015610997573d5f5f3e3d5ffd5b505050506040513d601f19601f820116820180604052508101906109bb9190612468565b5f818152600c60209081526040808320805460ff19166001179055600a54600d909252918290205542601455519091507f9ac10fb18c93d33ad7b0a941897aef048d0f8d30756684e82b4552ba12764d4590610a1a9083815260200190565b60405180910390a19050610a2d60018055565b90565b5f9081526020819052604090206001015490565b610a4d82610a30565b610a568161189c565b610a6083836118a6565b50505050565b6001600160a01b0381163314610a8f5760405163334bd91960e11b815260040160405180910390fd5b610a998282611935565b505050565b5f5160206125765f395f51905f52610ab58161189c565b5f60065460ff166002811115610acd57610acd61209b565b14610b125760405162461bcd60e51b815260206004820152601560248201527453657269657320616c72656164792061637469766560581b6044820152606401610785565b6001600160a01b038216610b5a5760405162461bcd60e51b815260206004820152600f60248201526e24b73b30b634b21039b437b7ba32b960891b6044820152606401610785565b600a8054905f610b698361247f565b90915550505f600b81905560408051610140810182526001600160a01b038516815260208101929092528101600181525f602080830182905260408084018390526060808501849052608080860185905260a080870186905283516101a081018552868152808601879052808501879052928301869052908201859052810184905260c081810185905260e080830186905261010083018690526101208301869052610140830186905261016083018690526101808301959095528501524392909301919091528251600380549285015160ff16600160a01b026001600160a81b03199093166001600160a01b039092169190911791909117808255918301519091829060ff60a81b1916600160a81b836002811115610c8b57610c8b61209b565b021790555060608201518154608084015160a085015160c086015160e087015161ffff16600160d01b0261ffff60d01b1960ff928316600160c81b0260ff60c81b19948416600160c01b029490941661ffff60c01b19958416600160b81b0260ff60b81b1994909816600160b01b029390931661ffff60b01b19909616959095179590951792909216919091171716178155610100820151610d33906001830190600d611f21565b5061012091909101516002909101556006805460ff19166001179055600a546040519081526001600160a01b038316907fea32a03505fd9f04d664676d72295a86c5fb0465e69654751907ca305bc1d1c79060200160405180910390a25f5160206125b65f395f51905f525f6001604051610daf929190612497565b60405180910390a15050565b5f5160206125765f395f51905f52610dd28161189c565b610dda61199e565b50565b5f5160206125765f395f51905f52610df48161189c565b5f60065460ff166002811115610e0c57610e0c61209b565b03610e4c5760405162461bcd60e51b815260206004820152601060248201526f4e6f206163746976652073657269657360801b6044820152606401610785565b600a545f908152600e602052604090206003805482546001600160a01b039091166001600160a01b031982168117845582546001600160a81b031990921617600160a01b9182900460ff908116909202178084558254929392600160a81b9081900490921691839160ff60a81b191690836002811115610ece57610ece61209b565b02179055508154815460ff600160b01b92839004811690920260ff60b01b198216811784558454600160b81b9081900484160260ff60b81b1990911661ffff60b01b1990921691909117178083558354600160c01b9081900483160260ff60c01b198216811784558454600160c81b9081900490931690920260ff60c81b1990921661ffff60c01b199091161717808255825461ffff600160d01b91829004160261ffff60d01b19909116178155610f8e6001808301908401600d611fb1565b50600291820154910155600b54600a80545f908152600f6020526040908190209290925554600354915190915f5160206125365f395f51905f5291610fdc916001600160a01b0316906121c4565b60405180910390a26006805460ff19169055600380546001600160e01b03191690555f600481905560058190556040515f5160206125b65f395f51905f5291611026918190612497565b60405180910390a150565b5f8060065460ff16600281111561104a5761104a61209b565b0361105657505f919050565b60ff82161580611069575060ff82166001145b1561108f5760015b60065460ff1660028111156110885761108861209b565b1492915050565b60ff8216600214806110a4575060ff82166003145b156110b0576002611071565b601d60ff8316108015906110c85750602060ff831611155b156110e1575050600354600160a01b900460ff16151590565b506001919050565b5f5160206125765f395f51905f526111008161189c565b610dda6119ea565b5f918252602082815260408084206001600160a01b0393909316845291905290205460ff1690565b5f61113a8161189c565b6001600160a01b0384166111885760405162461bcd60e51b8152602060048201526015602482015274125b9d985b1a590818995d1cc818dbdb9d1c9858dd605a1b6044820152606401610785565b6001600160a01b0383166111dc5760405162461bcd60e51b815260206004820152601b60248201527a125b9d985b1a59081cd95d1d1b195b595b9d0818dbdb9d1c9858dd602a1b6044820152606401610785565b6001600160a01b03821661122b5760405162461bcd60e51b8152602060048201526016602482015275125b9d985b1a59081d985d5b1d0818dbdb9d1c9858dd60521b6044820152606401610785565b601580546001600160a01b038087166001600160a01b03199283161790925560168054868416908316179055601780549285169290911691909117905561127f5f5160206125565f395f51905f52846118a6565b506112975f5160206125965f395f51905f52836118a6565b5050505050565b6112a782610a30565b6112b08161189c565b610a608383611935565b6112c2611fe4565b6040805161014081018252600380546001600160a01b038116835260ff600160a01b8204811660208501529293919291840191600160a81b90910416600281111561130f5761130f61209b565b60028111156113205761132061209b565b81528154600160b01b810460ff9081166020840152600160b81b82048116604080850191909152600160c01b830482166060850152600160c81b83049091166080840152600160d01b90910461ffff1660a083015280516101a081019182905260c090920191906001840190600d90825f855b825461010083900a900460ff1681526020600192830181810494850194909303909202910180841161139357905050505050508152602001600282015481525050905090565b5f5160206125765f395f51905f526113f08161189c565b5f851180156113ff5750838511155b6114405760405162461bcd60e51b8152602060048201526012602482015271496e76616c696420626574206c696d69747360701b6044820152606401610785565b60058210156114865760405162461bcd60e51b815260206004820152601260248201527110dbdbdb191bdddb881d1bdbc81cda1bdc9d60721b6044820152606401610785565b506010939093556011919091556012805460ff1916911515919091179055601355565b5f828152600c602052604090205460ff166114f85760405162461bcd60e51b815260206004820152600f60248201526e125b9d985b1a59081c995c5d595cdd608a1b6044820152606401610785565b600a545f838152600d6020526040902054146115485760405162461bcd60e51b815260206004820152600f60248201526e0a6cae4d2cae640dad2e6dac2e8c6d608b1b6044820152606401610785565b5f828152600c60205260408120805460ff19169055815160069083908390611572576115726124b2565b602002602001015161158491906124c6565b61158f906001612455565b90505f6006836001815181106115a7576115a76124b2565b60200260200101516115b991906124c6565b6115c4906001612455565b90505f6115d182846124e5565b6040805160a08101825260ff86811680835286821660208401819052918516938301849052426060840181905260809093018a90526007805461ffff19169091176101009092029190911762ff0000191662010000909302929092179091556008556009869055600b80549192505f6116498361247f565b919050555060028160ff16101580156116665750600c8160ff1611155b156116c057600460ff8216600d8110611681576116816124b2565b6020918282040191900681819054906101000a900460ff16809291906116a6906124fe565b91906101000a81548160ff021916908360ff160217905550505b8160ff168360ff1603611707575f6116d960018561251c565b60038054600160ff9384161b8316600160c81b8083049094161790920260ff60c81b19909216919091179055505b60028160ff161015801561171f575060068160ff1611155b156117685761172f60028261251c565b6003805461ffff60d01b198116600160d01b9182900461ffff908116600160ff969096169590951b1693909317029190911790556117c5565b60088160ff16101580156117805750600c8160ff1611155b156117c5576117908160036124e5565b6003805461ffff60d01b198116600160d01b9182900461ffff908116600160ff969096169590951b1693909317029190911790555b600a546040805160ff8681168252858116602083015284168183015290517ee83c25125ef3108e83900e4ef8d618a771700c0b6dcb129121331624f88c9f9181900360600190a27f546aca7b2683440b8f02fa95faeb8efc79dd0f16af3d815a002742ea6f76116c85855f81518110611840576118406124b2565b602002602001015160405161185f929190918252602082015260400190565b60405180910390a1611297838383611a27565b60026001540361189557604051633ee5aeb560e01b815260040160405180910390fd5b6002600155565b610dda8133611b01565b5f6118b18383611108565b61192e575f838152602081815260408083206001600160a01b03861684529091529020805460ff191660011790556118e63390565b6001600160a01b0316826001600160a01b0316847f2f8788117e7eff1d82e926ec794901d17c78024a50270940304540a733656f0d60405160405180910390a45060016106e9565b505f6106e9565b5f6119408383611108565b1561192e575f838152602081815260408083206001600160a01b0386168085529252808320805460ff1916905551339286917ff6391f5c32d9c69d2a47ea670b442974b53935d1edc7fd64eb21e047a839171b9190a45060016106e9565b6119a6611b3a565b6002805460ff191690557f5db9ee0a495bf2e6ff9c91a7834c1ba4fdd244a5e8aa4e537bd38aeae4b073aa335b6040516119e091906121c4565b60405180910390a1565b6119f2611b5f565b6002805460ff191660011790557f62e78cea01bee320cd4e420270b5ea74000d11b0c9f74754ebdbfc544b05a2586119d33390565b600160065460ff166002811115611a4057611a4061209b565b03611a5357611a4e81611b83565b611a7a565b600260065460ff166002811115611a6c57611a6c61209b565b03611a7a57611a7a81611c90565b6016546001600160a01b031615610a9957601654604051633974fb5560e11b815260ff8086166004830152841660248201526001600160a01b03909116906372e9f6aa906044016020604051808303815f875af1158015611add573d5f5f3e3d5ffd5b505050506040513d601f19601f82011682018060405250810190610a609190612468565b611b0b8282611108565b6107985760405163e2517d3f60e01b81526001600160a01b038216600482015260248101839052604401610785565b60025460ff16611b5d57604051638dfc202b60e01b815260040160405180910390fd5b565b60025460ff1615611b5d5760405163d93c066560e01b815260040160405180910390fd5b8060ff1660071480611b9857508060ff16600b145b15611bd35760038054600160b81b900460ff16906017611bb7836124fe565b91906101000a81548160ff021916908360ff1602179055505050565b8060ff1660021480611be857508060ff166003145b80611bf657508060ff16600c145b15611c0b576003805460ff60b81b1916905550565b6003805460ff60a01b1916600160a01b60ff841602179055600680546002919060ff19166001830217905550600a5460405160ff831681527fa3beba3b410ea557fd0e5df7c9ae3d1ae046cb6e6cc2c3a0b98c45486a494d6c9060200160405180910390a25f5160206125b65f395f51905f5260016002604051611026929190612497565b60035460ff600160a01b909104811690821603611e0f5760038054600160b01b900460ff16906016611cc1836124fe565b82546101009290920a60ff81810219909316918316021790915560038054600160b81b900490911691506017611cf6836124fe565b91906101000a81548160ff021916908360ff16021790555050600460035f0160149054906101000a900460ff1660ff1610158015611d425750600354600a600160a01b90910460ff1611155b15611d90576003545f90611d6290600490600160a01b900460ff1661251c565b60038054600160ff9384161b8316600160c01b8083049094161790920260ff60c01b19909216919091179055505b600a54600354604051600160a01b90910460ff1681527f58ee9e02e63ce39598bd7346b6a8886cf1177f9ed482f08160e26b00fcfdf58c9060200160405180910390a26003805460ff60a01b191690556006805460ff191660019081179091556040515f5160206125b65f395f51905f52916110269160029190612497565b8060ff16600703610dda57600a546003546040515f5160206125365f395f51905f5291611e47916001600160a01b03909116906121c4565b60405180910390a26016546001600160a01b031615611ed75760165f9054906101000a90046001600160a01b03166001600160a01b0316630e8ba3da6040518163ffffffff1660e01b81526004016020604051808303815f875af1158015611eb1573d5f5f3e3d5ffd5b505050506040513d601f19601f82011682018060405250810190611ed59190612468565b505b306001600160a01b0316636192d8606040518163ffffffff1660e01b81526004015f604051808303815f87803b158015611f0f575f5ffd5b505af1158015611297573d5f5f3e3d5ffd5b600183019183908215611fa1579160200282015f5b83821115611f7357835183826101000a81548160ff021916908360ff16021790555092602001926001016020815f01049283019260010302611f36565b8015611f9f5782816101000a81549060ff02191690556001016020815f01049283019260010302611f73565b505b50611fad92915061203a565b5090565b600183019183908215611fa15791601f016020900482015b82811115611fa1578254825591600101919060010190611fc9565b60408051610140810182525f80825260208201819052909182019081525f6020820181905260408201819052606082018190526080820181905260a082015260c00161202e61204e565b81526020015f81525090565b5b80821115611fad575f815560010161203b565b604051806101a00160405280600d906020820280368337509192915050565b5f6020828403121561207d575f5ffd5b81356001600160e01b031981168114612094575f5ffd5b9392505050565b634e487b7160e01b5f52602160045260245ffd5b600381106120cb57634e487b7160e01b5f52602160045260245ffd5b9052565b602081016106e982846120af565b634e487b7160e01b5f52604160045260245ffd5b5f5f60408385031215612102575f5ffd5b8235915060208301356001600160401b0381111561211e575f5ffd5b8301601f8101851361212e575f5ffd5b80356001600160401b03811115612147576121476120dd565b604051600582901b90603f8201601f191681016001600160401b0381118282101715612175576121756120dd565b604052918252602081840181019290810188841115612192575f5ffd5b6020850194505b838510156121b557843580825260209586019590935001612199565b50809450505050509250929050565b6001600160a01b0391909116815260200190565b5f602082840312156121e8575f5ffd5b5035919050565b80356001600160a01b0381168114612205575f5ffd5b919050565b5f5f6040838503121561221b575f5ffd5b8235915061222b602084016121ef565b90509250929050565b5f60208284031215612244575f5ffd5b612094826121ef565b5f6020828403121561225d575f5ffd5b813560ff81168114612094575f5ffd5b5f5f5f6060848603121561227f575f5ffd5b612288846121ef565b9250612296602085016121ef565b91506122a4604085016121ef565b90509250925092565b6001600160a01b038a16815260ff8916602082015261012081016122d4604083018a6120af565b60ff9788166060830152958716608082015293861660a08501529190941660c083015261ffff90931660e082015261010001919091529392505050565b805f5b600d811015610a6057815160ff16845260209384019390910190600101612314565b81516001600160a01b031681526102c08101602083015161235c602084018260ff169052565b50604083015161236f60408401826120af565b506060830151612384606084018260ff169052565b506080830151612399608084018260ff169052565b5060a08301516123ae60a084018260ff169052565b5060c08301516123c360c084018260ff169052565b5060e08301516123d960e084018261ffff169052565b506101008301516123ee610100840182612311565b506101208301516102a083015292915050565b5f5f5f5f60808587031215612414575f5ffd5b843593506020850135925060408501358015158114612431575f5ffd5b9396929550929360600135925050565b634e487b7160e01b5f52601160045260245ffd5b808201808211156106e9576106e9612441565b5f60208284031215612478575f5ffd5b5051919050565b5f6001820161249057612490612441565b5060010190565b604081016124a582856120af565b61209460208301846120af565b634e487b7160e01b5f52603260045260245ffd5b5f826124e057634e487b7160e01b5f52601260045260245ffd5b500690565b60ff81811683821601908111156106e9576106e9612441565b5f60ff821660ff810361251357612513612441565b60010192915050565b60ff82811682821603908111156106e9576106e961244156fe2e1305345f3425f7cee3c913306ca9b94a1a151bbda41dae755e5aee1ce1dec7300f9ae985dc711960f7a4d1dd013f9c19ecf40bff149522ab7523b2187a384697667070c54ef182b0f5858b034beac1b6f3089aa2d3188bb1e8929f4fa9b92931e0210044b4f6757ce6aa31f9c6e8d4896d24a755014887391a926c5224d959eeb345fea22465c927333e05d324ee5b476597701d8be7e5d9aacc60e7aefbafa264697066735822122091bc8b3470dec759155618f145e2be8a84e0bf8a7bd8d8541a5f9375953b018b64736f6c634300081c0033",
  "linkReferences": {},
  "deployedLinkReferences": {},
  "immutableReferences": {
    "10": [
      {
        "length": 32,
        "start": 1818
      },
      {
        "length": 32,
        "start": 1884
      }
    ],
    "1426": [
      {
        "length": 32,
        "start": 2377
      }
    ],
    "1428": [
      {
        "length": 32,
        "start": 2313
      }
    ],
    "1430": [
      {
        "length": 32,
        "start": 2267
      }
    ]
  },
  "inputSourceName": "project/contracts/game/CrapsGame.sol",
  "buildInfoId": "solc-0_8_28-64a698c1822821c166d1caca085dc5e8c272922f"
}