{
  "_format": "hh3-artifact-1",
  "contractName": "GachaMintPass",
  "sourceName": "contracts/nft/GachaMintPass.sol",
  "abi": [
    {
      "inputs": [
        {
          "internalType": "address",
          "name": "_vrfCoordinator",
          "type": "address"
        },
        {
          "internalType": "uint64",
          "name": "_subscriptionId",
          "type": "uint64"
        },
        {
          "internalType": "bytes32",
          "name": "_keyHash",
          "type": "bytes32"
        },
        {
          "internalType": "string",
          "name": "_baseURI",
          "type": "string"
        }
      ],
      "stateMutability": "nonpayable",
      "type": "constructor"
    },
    {
      "inputs": [],
      "name": "AccessControlBadConfirmation",
      "type": "error"
    },
    {
      "inputs": [
        {
          "internalType": "address",
          "name": "account",
          "type": "address"
        },
        {
          "internalType": "bytes32",
          "name": "neededRole",
          "type": "bytes32"
        }
      ],
      "name": "AccessControlUnauthorizedAccount",
      "type": "error"
    },
    {
      "inputs": [],
      "name": "ERC721EnumerableForbiddenBatchMint",
      "type": "error"
    },
    {
      "inputs": [
        {
          "internalType": "address",
          "name": "sender",
          "type": "address"
        },
        {
          "internalType": "uint256",
          "name": "tokenId",
          "type": "uint256"
        },
        {
          "internalType": "address",
          "name": "owner",
          "type": "address"
        }
      ],
      "name": "ERC721IncorrectOwner",
      "type": "error"
    },
    {
      "inputs": [
        {
          "internalType": "address",
          "name": "operator",
          "type": "address"
        },
        {
          "internalType": "uint256",
          "name": "tokenId",
          "type": "uint256"
        }
      ],
      "name": "ERC721InsufficientApproval",
      "type": "error"
    },
    {
      "inputs": [
        {
          "internalType": "address",
          "name": "approver",
          "type": "address"
        }
      ],
      "name": "ERC721InvalidApprover",
      "type": "error"
    },
    {
      "inputs": [
        {
          "internalType": "address",
          "name": "operator",
          "type": "address"
        }
      ],
      "name": "ERC721InvalidOperator",
      "type": "error"
    },
    {
      "inputs": [
        {
          "internalType": "address",
          "name": "owner",
          "type": "address"
        }
      ],
      "name": "ERC721InvalidOwner",
      "type": "error"
    },
    {
      "inputs": [
        {
          "internalType": "address",
          "name": "receiver",
          "type": "address"
        }
      ],
      "name": "ERC721InvalidReceiver",
      "type": "error"
    },
    {
      "inputs": [
        {
          "internalType": "address",
          "name": "sender",
          "type": "address"
        }
      ],
      "name": "ERC721InvalidSender",
      "type": "error"
    },
    {
      "inputs": [
        {
          "internalType": "uint256",
          "name": "tokenId",
          "type": "uint256"
        }
      ],
      "name": "ERC721NonexistentToken",
      "type": "error"
    },
    {
      "inputs": [
        {
          "internalType": "address",
          "name": "owner",
          "type": "address"
        },
        {
          "internalType": "uint256",
          "name": "index",
          "type": "uint256"
        }
      ],
      "name": "ERC721OutOfBoundsIndex",
      "type": "error"
    },
    {
      "inputs": [],
      "name": "EnforcedPause",
      "type": "error"
    },
    {
      "inputs": [],
      "name": "ExpectedPause",
      "type": "error"
    },
    {
      "inputs": [],
      "name": "InvalidRaffleId",
      "type": "error"
    },
    {
      "inputs": [],
      "name": "InvalidWeight",
      "type": "error"
    },
    {
      "inputs": [],
      "name": "MintPassAlreadyRedeemed",
      "type": "error"
    },
    {
      "inputs": [],
      "name": "NoEntries",
      "type": "error"
    },
    {
      "inputs": [],
      "name": "NotOwner",
      "type": "error"
    },
    {
      "inputs": [
        {
          "internalType": "address",
          "name": "have",
          "type": "address"
        },
        {
          "internalType": "address",
          "name": "want",
          "type": "address"
        }
      ],
      "name": "OnlyCoordinatorCanFulfill",
      "type": "error"
    },
    {
      "inputs": [],
      "name": "RaffleAlreadyFulfilled",
      "type": "error"
    },
    {
      "inputs": [],
      "name": "RaffleNotStarted",
      "type": "error"
    },
    {
      "inputs": [],
      "name": "ReentrancyGuardReentrantCall",
      "type": "error"
    },
    {
      "anonymous": false,
      "inputs": [
        {
          "indexed": true,
          "internalType": "address",
          "name": "owner",
          "type": "address"
        },
        {
          "indexed": true,
          "internalType": "address",
          "name": "approved",
          "type": "address"
        },
        {
          "indexed": true,
          "internalType": "uint256",
          "name": "tokenId",
          "type": "uint256"
        }
      ],
      "name": "Approval",
      "type": "event"
    },
    {
      "anonymous": false,
      "inputs": [
        {
          "indexed": true,
          "internalType": "address",
          "name": "owner",
          "type": "address"
        },
        {
          "indexed": true,
          "internalType": "address",
          "name": "operator",
          "type": "address"
        },
        {
          "indexed": false,
          "internalType": "bool",
          "name": "approved",
          "type": "bool"
        }
      ],
      "name": "ApprovalForAll",
      "type": "event"
    },
    {
      "anonymous": false,
      "inputs": [
        {
          "indexed": false,
          "internalType": "string",
          "name": "newBaseURI",
          "type": "string"
        }
      ],
      "name": "BaseURIUpdated",
      "type": "event"
    },
    {
      "anonymous": false,
      "inputs": [
        {
          "indexed": true,
          "internalType": "uint256",
          "name": "tokenId",
          "type": "uint256"
        },
        {
          "indexed": true,
          "internalType": "address",
          "name": "owner",
          "type": "address"
        }
      ],
      "name": "MintPassRedeemed",
      "type": "event"
    },
    {
      "anonymous": false,
      "inputs": [
        {
          "indexed": false,
          "internalType": "address",
          "name": "account",
          "type": "address"
        }
      ],
      "name": "Paused",
      "type": "event"
    },
    {
      "anonymous": false,
      "inputs": [
        {
          "indexed": true,
          "internalType": "uint256",
          "name": "seriesId",
          "type": "uint256"
        },
        {
          "indexed": true,
          "internalType": "address",
          "name": "player",
          "type": "address"
        },
        {
          "indexed": false,
          "internalType": "uint256",
          "name": "weight",
          "type": "uint256"
        }
      ],
      "name": "RaffleEntryAdded",
      "type": "event"
    },
    {
      "anonymous": false,
      "inputs": [
        {
          "indexed": true,
          "internalType": "uint256",
          "name": "seriesId",
          "type": "uint256"
        },
        {
          "indexed": true,
          "internalType": "address",
          "name": "winner",
          "type": "address"
        },
        {
          "indexed": false,
          "internalType": "uint256",
          "name": "tokenId",
          "type": "uint256"
        }
      ],
      "name": "RaffleFulfilled",
      "type": "event"
    },
    {
      "anonymous": false,
      "inputs": [
        {
          "indexed": true,
          "internalType": "uint256",
          "name": "seriesId",
          "type": "uint256"
        },
        {
          "indexed": false,
          "internalType": "uint256",
          "name": "requestId",
          "type": "uint256"
        }
      ],
      "name": "RaffleRequested",
      "type": "event"
    },
    {
      "anonymous": false,
      "inputs": [
        {
          "indexed": true,
          "internalType": "uint256",
          "name": "seriesId",
          "type": "uint256"
        },
        {
          "indexed": false,
          "internalType": "uint256",
          "name": "entryCount",
          "type": "uint256"
        }
      ],
      "name": "RaffleStarted",
      "type": "event"
    },
    {
      "anonymous": false,
      "inputs": [
        {
          "indexed": true,
          "internalType": "bytes32",
          "name": "role",
          "type": "bytes32"
        },
        {
          "indexed": true,
          "internalType": "bytes32",
          "name": "previousAdminRole",
          "type": "bytes32"
        },
        {
          "indexed": true,
          "internalType": "bytes32",
          "name": "newAdminRole",
          "type": "bytes32"
        }
      ],
      "name": "RoleAdminChanged",
      "type": "event"
    },
    {
      "anonymous": false,
      "inputs": [
        {
          "indexed": true,
          "internalType": "bytes32",
          "name": "role",
          "type": "bytes32"
        },
        {
          "indexed": true,
          "internalType": "address",
          "name": "account",
          "type": "address"
        },
        {
          "indexed": true,
          "internalType": "address",
          "name": "sender",
          "type": "address"
        }
      ],
      "name": "RoleGranted",
      "type": "event"
    },
    {
      "anonymous": false,
      "inputs": [
        {
          "indexed": true,
          "internalType": "bytes32",
          "name": "role",
          "type": "bytes32"
        },
        {
          "indexed": true,
          "internalType": "address",
          "name": "account",
          "type": "address"
        },
        {
          "indexed": true,
          "internalType": "address",
          "name": "sender",
          "type": "address"
        }
      ],
      "name": "RoleRevoked",
      "type": "event"
    },
    {
      "anonymous": false,
      "inputs": [
        {
          "indexed": true,
          "internalType": "address",
          "name": "from",
          "type": "address"
        },
        {
          "indexed": true,
          "internalType": "address",
          "name": "to",
          "type": "address"
        },
        {
          "indexed": true,
          "internalType": "uint256",
          "name": "tokenId",
          "type": "uint256"
        }
      ],
      "name": "Transfer",
      "type": "event"
    },
    {
      "anonymous": false,
      "inputs": [
        {
          "indexed": false,
          "internalType": "address",
          "name": "account",
          "type": "address"
        }
      ],
      "name": "Unpaused",
      "type": "event"
    },
    {
      "inputs": [],
      "name": "CALLBACK_GAS_LIMIT",
      "outputs": [
        {
          "internalType": "uint32",
          "name": "",
          "type": "uint32"
        }
      ],
      "stateMutability": "view",
      "type": "function"
    },
    {
      "inputs": [],
      "name": "COMMON_WEIGHT",
      "outputs": [
        {
          "internalType": "uint256",
          "name": "",
          "type": "uint256"
        }
      ],
      "stateMutability": "view",
      "type": "function"
    },
    {
      "inputs": [],
      "name": "DEFAULT_ADMIN_ROLE",
      "outputs": [
        {
          "internalType": "bytes32",
          "name": "",
          "type": "bytes32"
        }
      ],
      "stateMutability": "view",
      "type": "function"
    },
    {
      "inputs": [],
      "name": "EPIC_WEIGHT",
      "outputs": [
        {
          "internalType": "uint256",
          "name": "",
          "type": "uint256"
        }
      ],
      "stateMutability": "view",
      "type": "function"
    },
    {
      "inputs": [],
      "name": "GAME_ROLE",
      "outputs": [
        {
          "internalType": "bytes32",
          "name": "",
          "type": "bytes32"
        }
      ],
      "stateMutability": "view",
      "type": "function"
    },
    {
      "inputs": [],
      "name": "LEGENDARY_WEIGHT",
      "outputs": [
        {
          "internalType": "uint256",
          "name": "",
          "type": "uint256"
        }
      ],
      "stateMutability": "view",
      "type": "function"
    },
    {
      "inputs": [],
      "name": "MINTER_ROLE",
      "outputs": [
        {
          "internalType": "bytes32",
          "name": "",
          "type": "bytes32"
        }
      ],
      "stateMutability": "view",
      "type": "function"
    },
    {
      "inputs": [],
      "name": "NUM_WORDS",
      "outputs": [
        {
          "internalType": "uint32",
          "name": "",
          "type": "uint32"
        }
      ],
      "stateMutability": "view",
      "type": "function"
    },
    {
      "inputs": [],
      "name": "RARE_WEIGHT",
      "outputs": [
        {
          "internalType": "uint256",
          "name": "",
          "type": "uint256"
        }
      ],
      "stateMutability": "view",
      "type": "function"
    },
    {
      "inputs": [],
      "name": "REQUEST_CONFIRMATIONS",
      "outputs": [
        {
          "internalType": "uint16",
          "name": "",
          "type": "uint16"
        }
      ],
      "stateMutability": "view",
      "type": "function"
    },
    {
      "inputs": [],
      "name": "URI_SETTER_ROLE",
      "outputs": [
        {
          "internalType": "bytes32",
          "name": "",
          "type": "bytes32"
        }
      ],
      "stateMutability": "view",
      "type": "function"
    },
    {
      "inputs": [
        {
          "internalType": "address",
          "name": "player",
          "type": "address"
        },
        {
          "internalType": "uint256",
          "name": "weight",
          "type": "uint256"
        }
      ],
      "name": "addRaffleEntry",
      "outputs": [],
      "stateMutability": "nonpayable",
      "type": "function"
    },
    {
      "inputs": [
        {
          "internalType": "address",
          "name": "to",
          "type": "address"
        },
        {
          "internalType": "uint8",
          "name": "rarity",
          "type": "uint8"
        },
        {
          "internalType": "uint8",
          "name": "botId",
          "type": "uint8"
        }
      ],
      "name": "adminMint",
      "outputs": [
        {
          "internalType": "uint256",
          "name": "tokenId",
          "type": "uint256"
        }
      ],
      "stateMutability": "nonpayable",
      "type": "function"
    },
    {
      "inputs": [
        {
          "internalType": "address",
          "name": "to",
          "type": "address"
        },
        {
          "internalType": "uint256",
          "name": "tokenId",
          "type": "uint256"
        }
      ],
      "name": "approve",
      "outputs": [],
      "stateMutability": "nonpayable",
      "type": "function"
    },
    {
      "inputs": [
        {
          "internalType": "address",
          "name": "owner",
          "type": "address"
        }
      ],
      "name": "balanceOf",
      "outputs": [
        {
          "internalType": "uint256",
          "name": "",
          "type": "uint256"
        }
      ],
      "stateMutability": "view",
      "type": "function"
    },
    {
      "inputs": [],
      "name": "baseTokenURI",
      "outputs": [
        {
          "internalType": "string",
          "name": "",
          "type": "string"
        }
      ],
      "stateMutability": "view",
      "type": "function"
    },
    {
      "inputs": [],
      "name": "currentSeriesId",
      "outputs": [
        {
          "internalType": "uint256",
          "name": "",
          "type": "uint256"
        }
      ],
      "stateMutability": "view",
      "type": "function"
    },
    {
      "inputs": [
        {
          "internalType": "uint256",
          "name": "tokenId",
          "type": "uint256"
        }
      ],
      "name": "getApproved",
      "outputs": [
        {
          "internalType": "address",
          "name": "",
          "type": "address"
        }
      ],
      "stateMutability": "view",
      "type": "function"
    },
    {
      "inputs": [
        {
          "internalType": "uint256",
          "name": "tokenId",
          "type": "uint256"
        }
      ],
      "name": "getMintPassDetails",
      "outputs": [
        {
          "components": [
            {
              "internalType": "uint256",
              "name": "seriesId",
              "type": "uint256"
            },
            {
              "internalType": "uint256",
              "name": "vrfSeed",
              "type": "uint256"
            },
            {
              "internalType": "uint8",
              "name": "rarity",
              "type": "uint8"
            },
            {
              "internalType": "uint8",
              "name": "botId",
              "type": "uint8"
            },
            {
              "internalType": "bool",
              "name": "redeemed",
              "type": "bool"
            }
          ],
          "internalType": "struct GachaMintPass.MintPass",
          "name": "",
          "type": "tuple"
        }
      ],
      "stateMutability": "view",
      "type": "function"
    },
    {
      "inputs": [
        {
          "internalType": "uint256",
          "name": "seriesId",
          "type": "uint256"
        }
      ],
      "name": "getRaffleEntries",
      "outputs": [
        {
          "components": [
            {
              "internalType": "address",
              "name": "player",
              "type": "address"
            },
            {
              "internalType": "uint256",
              "name": "weight",
              "type": "uint256"
            }
          ],
          "internalType": "struct GachaMintPass.RaffleEntry[]",
          "name": "",
          "type": "tuple[]"
        }
      ],
      "stateMutability": "view",
      "type": "function"
    },
    {
      "inputs": [
        {
          "internalType": "uint8",
          "name": "rarity",
          "type": "uint8"
        }
      ],
      "name": "getRarityName",
      "outputs": [
        {
          "internalType": "string",
          "name": "",
          "type": "string"
        }
      ],
      "stateMutability": "pure",
      "type": "function"
    },
    {
      "inputs": [
        {
          "internalType": "bytes32",
          "name": "role",
          "type": "bytes32"
        }
      ],
      "name": "getRoleAdmin",
      "outputs": [
        {
          "internalType": "bytes32",
          "name": "",
          "type": "bytes32"
        }
      ],
      "stateMutability": "view",
      "type": "function"
    },
    {
      "inputs": [
        {
          "internalType": "bytes32",
          "name": "role",
          "type": "bytes32"
        },
        {
          "internalType": "address",
          "name": "account",
          "type": "address"
        }
      ],
      "name": "grantRole",
      "outputs": [],
      "stateMutability": "nonpayable",
      "type": "function"
    },
    {
      "inputs": [
        {
          "internalType": "bytes32",
          "name": "role",
          "type": "bytes32"
        },
        {
          "internalType": "address",
          "name": "account",
          "type": "address"
        }
      ],
      "name": "hasRole",
      "outputs": [
        {
          "internalType": "bool",
          "name": "",
          "type": "bool"
        }
      ],
      "stateMutability": "view",
      "type": "function"
    },
    {
      "inputs": [
        {
          "internalType": "address",
          "name": "owner",
          "type": "address"
        },
        {
          "internalType": "address",
          "name": "operator",
          "type": "address"
        }
      ],
      "name": "isApprovedForAll",
      "outputs": [
        {
          "internalType": "bool",
          "name": "",
          "type": "bool"
        }
      ],
      "stateMutability": "view",
      "type": "function"
    },
    {
      "inputs": [],
      "name": "keyHash",
      "outputs": [
        {
          "internalType": "bytes32",
          "name": "",
          "type": "bytes32"
        }
      ],
      "stateMutability": "view",
      "type": "function"
    },
    {
      "inputs": [
        {
          "internalType": "uint256",
          "name": "",
          "type": "uint256"
        }
      ],
      "name": "mintPasses",
      "outputs": [
        {
          "internalType": "uint256",
          "name": "seriesId",
          "type": "uint256"
        },
        {
          "internalType": "uint256",
          "name": "vrfSeed",
          "type": "uint256"
        },
        {
          "internalType": "uint8",
          "name": "rarity",
          "type": "uint8"
        },
        {
          "internalType": "uint8",
          "name": "botId",
          "type": "uint8"
        },
        {
          "internalType": "bool",
          "name": "redeemed",
          "type": "bool"
        }
      ],
      "stateMutability": "view",
      "type": "function"
    },
    {
      "inputs": [],
      "name": "name",
      "outputs": [
        {
          "internalType": "string",
          "name": "",
          "type": "string"
        }
      ],
      "stateMutability": "view",
      "type": "function"
    },
    {
      "inputs": [],
      "name": "nextTokenId",
      "outputs": [
        {
          "internalType": "uint256",
          "name": "",
          "type": "uint256"
        }
      ],
      "stateMutability": "view",
      "type": "function"
    },
    {
      "inputs": [
        {
          "internalType": "uint256",
          "name": "tokenId",
          "type": "uint256"
        }
      ],
      "name": "ownerOf",
      "outputs": [
        {
          "internalType": "address",
          "name": "",
          "type": "address"
        }
      ],
      "stateMutability": "view",
      "type": "function"
    },
    {
      "inputs": [],
      "name": "pause",
      "outputs": [],
      "stateMutability": "nonpayable",
      "type": "function"
    },
    {
      "inputs": [],
      "name": "paused",
      "outputs": [
        {
          "internalType": "bool",
          "name": "",
          "type": "bool"
        }
      ],
      "stateMutability": "view",
      "type": "function"
    },
    {
      "inputs": [
        {
          "internalType": "uint256",
          "name": "",
          "type": "uint256"
        }
      ],
      "name": "raffles",
      "outputs": [
        {
          "internalType": "uint256",
          "name": "seriesId",
          "type": "uint256"
        },
        {
          "internalType": "uint256",
          "name": "totalWeight",
          "type": "uint256"
        },
        {
          "internalType": "uint256",
          "name": "requestId",
          "type": "uint256"
        },
        {
          "internalType": "bool",
          "name": "fulfilled",
          "type": "bool"
        },
        {
          "internalType": "address",
          "name": "winner",
          "type": "address"
        }
      ],
      "stateMutability": "view",
      "type": "function"
    },
    {
      "inputs": [
        {
          "internalType": "uint256",
          "name": "requestId",
          "type": "uint256"
        },
        {
          "internalType": "uint256[]",
          "name": "randomWords",
          "type": "uint256[]"
        }
      ],
      "name": "rawFulfillRandomWords",
      "outputs": [],
      "stateMutability": "nonpayable",
      "type": "function"
    },
    {
      "inputs": [
        {
          "internalType": "uint256",
          "name": "tokenId",
          "type": "uint256"
        }
      ],
      "name": "redeemPass",
      "outputs": [],
      "stateMutability": "nonpayable",
      "type": "function"
    },
    {
      "inputs": [
        {
          "internalType": "bytes32",
          "name": "role",
          "type": "bytes32"
        },
        {
          "internalType": "address",
          "name": "callerConfirmation",
          "type": "address"
        }
      ],
      "name": "renounceRole",
      "outputs": [],
      "stateMutability": "nonpayable",
      "type": "function"
    },
    {
      "inputs": [],
      "name": "requestRaffleWinner",
      "outputs": [
        {
          "internalType": "uint256",
          "name": "requestId",
          "type": "uint256"
        }
      ],
      "stateMutability": "nonpayable",
      "type": "function"
    },
    {
      "inputs": [
        {
          "internalType": "uint256",
          "name": "",
          "type": "uint256"
        }
      ],
      "name": "requestToSeries",
      "outputs": [
        {
          "internalType": "uint256",
          "name": "",
          "type": "uint256"
        }
      ],
      "stateMutability": "view",
      "type": "function"
    },
    {
      "inputs": [
        {
          "internalType": "bytes32",
          "name": "role",
          "type": "bytes32"
        },
        {
          "internalType": "address",
          "name": "account",
          "type": "address"
        }
      ],
      "name": "revokeRole",
      "outputs": [],
      "stateMutability": "nonpayable",
      "type": "function"
    },
    {
      "inputs": [
        {
          "internalType": "address",
          "name": "from",
          "type": "address"
        },
        {
          "internalType": "address",
          "name": "to",
          "type": "address"
        },
        {
          "internalType": "uint256",
          "name": "tokenId",
          "type": "uint256"
        }
      ],
      "name": "safeTransferFrom",
      "outputs": [],
      "stateMutability": "nonpayable",
      "type": "function"
    },
    {
      "inputs": [
        {
          "internalType": "address",
          "name": "from",
          "type": "address"
        },
        {
          "internalType": "address",
          "name": "to",
          "type": "address"
        },
        {
          "internalType": "uint256",
          "name": "tokenId",
          "type": "uint256"
        },
        {
          "internalType": "bytes",
          "name": "data",
          "type": "bytes"
        }
      ],
      "name": "safeTransferFrom",
      "outputs": [],
      "stateMutability": "nonpayable",
      "type": "function"
    },
    {
      "inputs": [
        {
          "internalType": "address",
          "name": "operator",
          "type": "address"
        },
        {
          "internalType": "bool",
          "name": "approved",
          "type": "bool"
        }
      ],
      "name": "setApprovalForAll",
      "outputs": [],
      "stateMutability": "nonpayable",
      "type": "function"
    },
    {
      "inputs": [
        {
          "internalType": "string",
          "name": "newBaseURI",
          "type": "string"
        }
      ],
      "name": "setBaseURI",
      "outputs": [],
      "stateMutability": "nonpayable",
      "type": "function"
    },
    {
      "inputs": [
        {
          "internalType": "uint256",
          "name": "seriesId",
          "type": "uint256"
        }
      ],
      "name": "startRaffle",
      "outputs": [],
      "stateMutability": "nonpayable",
      "type": "function"
    },
    {
      "inputs": [],
      "name": "subscriptionId",
      "outputs": [
        {
          "internalType": "uint64",
          "name": "",
          "type": "uint64"
        }
      ],
      "stateMutability": "view",
      "type": "function"
    },
    {
      "inputs": [
        {
          "internalType": "bytes4",
          "name": "interfaceId",
          "type": "bytes4"
        }
      ],
      "name": "supportsInterface",
      "outputs": [
        {
          "internalType": "bool",
          "name": "",
          "type": "bool"
        }
      ],
      "stateMutability": "view",
      "type": "function"
    },
    {
      "inputs": [],
      "name": "symbol",
      "outputs": [
        {
          "internalType": "string",
          "name": "",
          "type": "string"
        }
      ],
      "stateMutability": "view",
      "type": "function"
    },
    {
      "inputs": [
        {
          "internalType": "uint256",
          "name": "index",
          "type": "uint256"
        }
      ],
      "name": "tokenByIndex",
      "outputs": [
        {
          "internalType": "uint256",
          "name": "",
          "type": "uint256"
        }
      ],
      "stateMutability": "view",
      "type": "function"
    },
    {
      "inputs": [
        {
          "internalType": "address",
          "name": "owner",
          "type": "address"
        },
        {
          "internalType": "uint256",
          "name": "index",
          "type": "uint256"
        }
      ],
      "name": "tokenOfOwnerByIndex",
      "outputs": [
        {
          "internalType": "uint256",
          "name": "",
          "type": "uint256"
        }
      ],
      "stateMutability": "view",
      "type": "function"
    },
    {
      "inputs": [
        {
          "internalType": "uint256",
          "name": "tokenId",
          "type": "uint256"
        }
      ],
      "name": "tokenURI",
      "outputs": [
        {
          "internalType": "string",
          "name": "",
          "type": "string"
        }
      ],
      "stateMutability": "view",
      "type": "function"
    },
    {
      "inputs": [],
      "name": "totalSupply",
      "outputs": [
        {
          "internalType": "uint256",
          "name": "",
          "type": "uint256"
        }
      ],
      "stateMutability": "view",
      "type": "function"
    },
    {
      "inputs": [
        {
          "internalType": "address",
          "name": "from",
          "type": "address"
        },
        {
          "internalType": "address",
          "name": "to",
          "type": "address"
        },
        {
          "internalType": "uint256",
          "name": "tokenId",
          "type": "uint256"
        }
      ],
      "name": "transferFrom",
      "outputs": [],
      "stateMutability": "nonpayable",
      "type": "function"
    },
    {
      "inputs": [],
      "name": "unpause",
      "outputs": [],
      "stateMutability": "nonpayable",
      "type": "function"
    },
    {
      "inputs": [],
      "name": "vrfCoordinator",
      "outputs": [
        {
          "internalType": "contract VRFCoordinatorV2Interface",
          "name": "",
          "type": "address"
        }
      ],
      "stateMutability": "view",
      "type": "function"
    }
  ],
  "bytecode": "0x610100604052348015610010575f5ffd5b5060405161325938038061325983398101604081905261002f91610203565b836040518060400160405280601681526020017f426172656c792048756d616e204d696e7420506173730000000000000000000081525060405180604001604052806004815260200163042484d560e41b815250815f9081610091919061037d565b50600161009e828261037d565b50506001600b55506001600160a01b03908116608052841660a0526001600160401b03831660c05260e0829052600e6100d7828261037d565b506100e25f33610142565b5061010d7f9f2df0fed2c77648de5860a4cc508cd0818c85b8b8a1ab4ceeef8d981c8956a633610142565b506101387f7804d923f43a17d325d77e781528e0793b2edd9890ab45fc64efd7b4b427744c33610142565b5050505050610437565b5f828152600a602090815260408083206001600160a01b038516845290915281205460ff166101e6575f838152600a602090815260408083206001600160a01b03861684529091529020805460ff1916600117905561019e3390565b6001600160a01b0316826001600160a01b0316847f2f8788117e7eff1d82e926ec794901d17c78024a50270940304540a733656f0d60405160405180910390a45060016101e9565b505f5b92915050565b634e487b7160e01b5f52604160045260245ffd5b5f5f5f5f60808587031215610216575f5ffd5b84516001600160a01b038116811461022c575f5ffd5b60208601519094506001600160401b0381168114610248575f5ffd5b6040860151606087015191945092506001600160401b0381111561026a575f5ffd5b8501601f8101871361027a575f5ffd5b80516001600160401b03811115610293576102936101ef565b604051601f8201601f19908116603f011681016001600160401b03811182821017156102c1576102c16101ef565b6040528181528282016020018910156102d8575f5ffd5b8160208401602083015e5f6020838301015280935050505092959194509250565b600181811c9082168061030d57607f821691505b60208210810361032b57634e487b7160e01b5f52602260045260245ffd5b50919050565b601f82111561037857805f5260205f20601f840160051c810160208510156103565750805b601f840160051c820191505b81811015610375575f8155600101610362565b50505b505050565b81516001600160401b03811115610396576103966101ef565b6103aa816103a484546102f9565b84610331565b6020601f8211600181146103dc575f83156103c55750848201515b5f19600385901b1c1916600184901b178455610375565b5f84815260208120601f198516915b8281101561040b57878501518255602094850194600190920191016103eb565b508482101561042857868401515f19600387901b60f8161c191681555b50505050600190811b01905550565b60805160a05160c05160e051612dd36104865f395f81816105c8015261098101525f81816102eb01526109af01525f81816106a501526109ed01525f8181610ac70152610b090152612dd35ff3fe608060405234801561000f575f5ffd5b5060043610610270575f3560e01c806301ffc9a71461027457806306fdde031461029c578063081812fc146102b1578063095ea7b3146102d157806309c1ba2e146102e657806318160ddd146103255780631c4f5150146103375780631fe543e31461033f57806323b872dd14610352578063248a9ca31461036557806327daa3be146103785780632f2ff15d146103815780632f745c59146103945780632fad7a8b146103a757806333d608f1146104815780633614ba04146104a057806336568abe146104a85780633a011e15146104bb5780633c10549d146104c45780633f4ba83a146104d757806342842e0e146104df5780634f6ccce7146104f2578063511fc126146105055780635174c4e71461051857806355f804b31461052b5780635c975abb1461053e5780635d4bc0ce1461054957806361728f39146105c35780636352211e146105ea57806367f082b0146105fd57806370a082311461061857806372cf6e341461062b57806375057e1d1461063357806375794a3c146106465780637f3457101461064f5780638456cb591461066357806391d148541461066b57806395d89b411461067e578063a217fddf14610686578063a22cb4651461068d578063a3e56fa8146106a0578063ab400706146106c7578063af95f9fb146106db578063b15bb8071461074f578063b88d4fde14610758578063c87b56dd1461076b578063c97774511461077e578063d539139314610787578063d547741f1461079b578063d547cfb7146107ae578063dea3f335146107b6578063e985e9c5146107d6578063f1ae8c55146107e9578063f875bb84146107fc575b5f5ffd5b610287610282366004612555565b61081b565b60405190151581526020015b60405180910390f35b6102a461082b565b60405161029391906125a5565b6102c46102bf3660046125b7565b6108ba565b60405161029391906125ce565b6102e46102df3660046125fd565b6108ce565b005b61030d7f000000000000000000000000000000000000000000000000000000000000000081565b6040516001600160401b039091168152602001610293565b6008545b604051908152602001610293565b6103296108dd565b6102e461034d366004612669565b610abc565b6102e461036036600461271f565b610b45565b6103296103733660046125b7565b610bce565b610329610bb881565b6102e461038f366004612759565b610be2565b6103296103a23660046125fd565b610bfe565b6104386103b53660046125b7565b6040805160a0810182525f80825260208201819052918101829052606081018290526080810191909152505f90815260136020908152604091829020825160a081018452815481526001820154928101929092526002015460ff808216938301939093526101008104831660608301526201000090049091161515608082015290565b60405161029391905f60a082019050825182526020830151602083015260ff604084015116604083015260ff606084015116606083015260808301511515608083015292915050565b61048b62030d4081565b60405163ffffffff9091168152602001610293565b610329606481565b6102e46104b6366004612759565b610c53565b61032961177081565b6103296104d2366004612793565b610c8b565b6102e4610d6f565b6102e46104ed36600461271f565b610d84565b6103296105003660046125b7565b610d9e565b6102e46105133660046125fd565b610dee565b6102e46105263660046125b7565b610f11565b6102e461053936600461282b565b610fcd565b600c5460ff16610287565b6105906105573660046125b7565b60106020525f908152604090208054600182015460028301546003909301549192909160ff81169061010090046001600160a01b031685565b60408051958652602086019490945292840191909152151560608301526001600160a01b0316608082015260a001610293565b6103297f000000000000000000000000000000000000000000000000000000000000000081565b6102c46105f83660046125b7565b61102c565b610605600381565b60405161ffff9091168152602001610293565b61032961062636600461286f565b611036565b61048b600181565b6102a4610641366004612888565b61107b565b610329600d5481565b6103295f516020612d5e5f395f51905f5281565b6102e4611152565b610287610679366004612759565b611164565b6102a461118e565b6103295f81565b6102e461069b3660046128a1565b61119d565b6102c47f000000000000000000000000000000000000000000000000000000000000000081565b6103295f516020612d3e5f395f51905f5281565b61071f6106e93660046125b7565b60136020525f908152604090208054600182015460029092015490919060ff808216916101008104821691620100009091041685565b60408051958652602086019490945260ff928316938501939093521660608301521515608082015260a001610293565b61032961038481565b6102e46107663660046128da565b6111a8565b6102a46107793660046125b7565b6111c0565b61032960125481565b6103295f516020612d7e5f395f51905f5281565b6102e46107a9366004612759565b611318565b6102a4611334565b6107c96107c43660046125b7565b6113c0565b6040516102939190612950565b6102876107e43660046129a7565b611447565b6102e46107f73660046125b7565b611474565b61032961080a3660046125b7565b60116020525f908152604090205481565b5f6108258261150a565b92915050565b60605f8054610839906129cf565b80601f0160208091040260200160405190810160405280929190818152602001828054610865906129cf565b80156108b05780601f10610887576101008083540402835291602001916108b0565b820191905f5260205f20905b81548152906001019060200180831161089357829003601f168201915b5050505050905090565b5f6108c48261152e565b5061082582611565565b6108d982823361157f565b5050565b5f5f516020612d3e5f395f51905f526108f58161158c565b6012545f03610917576040516319affd7360e11b815260040160405180910390fd5b6012545f908152601060205260408120600481015490910361094c57604051634ad868ed60e11b815260040160405180910390fd5b600381015460ff1615610972576040516303ef628960e31b815260040160405180910390fd5b6040516305d3b1d360e41b81527f000000000000000000000000000000000000000000000000000000000000000060048201526001600160401b037f00000000000000000000000000000000000000000000000000000000000000001660248201526003604482015262030d406064820152600160848201527f00000000000000000000000000000000000000000000000000000000000000006001600160a01b031690635d3b1d309060a4016020604051808303815f875af1158015610a3b573d5f5f3e3d5ffd5b505050506040513d601f19601f82011682018060405250810190610a5f9190612a07565b600282018190556012545f828152601160205260409081902082905551919450907fda27d6b8775f7eee762d4ecfbff91ffd10f650ac3f48e39dd7dc7bfffe3ea7f890610aaf9086815260200190565b60405180910390a2505090565b336001600160a01b037f00000000000000000000000000000000000000000000000000000000000000001614610b3b5760405163073e64fd60e21b81523360048201526001600160a01b037f00000000000000000000000000000000000000000000000000000000000000001660248201526044015b60405180910390fd5b6108d98282611596565b6001600160a01b038216610b6e575f604051633250574960e11b8152600401610b3291906125ce565b5f610b7a838333611746565b9050836001600160a01b0316816001600160a01b031614610bc8576040516364283d7b60e01b81526001600160a01b0380861660048301526024820184905282166044820152606401610b32565b50505050565b5f908152600a602052604090206001015490565b610beb82610bce565b610bf48161158c565b610bc88383611762565b5f610c0883611036565b8210610c2b57828260405163295f44f760e21b8152600401610b32929190612a1e565b506001600160a01b03919091165f908152600660209081526040808320938352929052205490565b6001600160a01b0381163314610c7c5760405163334bd91960e11b815260040160405180910390fd5b610c8682826117f3565b505050565b5f5f516020612d7e5f395f51905f52610ca38161158c565b600d8054905f610cb283612a4b565b909155506040805160a0810182525f808252602080830182815260ff8a81168587019081528a8216606087019081526080870186815289875260139095529690942094518555905160018501559151600290930180549451915193831661ffff199095169490941761010091909216021762ff0000191662010000911515919091021790559150610d43858361185e565b610d4e828585611877565b5f838152600f6020526040902090610d669082612aa7565b50509392505050565b5f610d798161158c565b610d816118c7565b50565b610c8683838360405180602001604052805f8152506111a8565b5f610da860085490565b8210610dcb575f8260405163295f44f760e21b8152600401610b32929190612a1e565b60088281548110610dde57610dde612b61565b905f5260205f2001549050919050565b5f516020612d3e5f395f51905f52610e058161158c565b6012545f03610e27576040516319affd7360e11b815260040160405180910390fd5b815f03610e475760405163585b926360e01b815260040160405180910390fd5b6012545f90815260106020908152604080832081518083019092526001600160a01b038781168352828401878152600483018054600180820183559188529587209451600290960290940180546001600160a01b031916959092169490941781559251928201929092558101805491928592610ec4908490612b75565b90915550506012546040518481526001600160a01b03861691907f1b95fd59d80d4c70dc79e038c4dbe10788d11a2d62498ecaf99b16674b0cee9e9060200160405180910390a350505050565b610f19611913565b33610f238261102c565b6001600160a01b031614610f4a576040516330cd747160e01b815260040160405180910390fd5b5f818152601360205260409020600281015462010000900460ff1615610f83576040516306826c6560e21b815260040160405180910390fd5b60028101805462ff0000191662010000179055604051339083907f2ef701ffb43511b86ee24b3ae787683e507dd9a36f8db7642213e825af955cde905f90a350610d816001600b55565b5f516020612d5e5f395f51905f52610fe48161158c565b600e610ff08382612aa7565b507f6741b2fc379fad678116fe3d4d4b9a1a184ab53ba36b86ad0fa66340b1ab41ad8260405161102091906125a5565b60405180910390a15050565b5f6108258261152e565b5f6001600160a01b038216611060575f6040516322718ad960e21b8152600401610b3291906125ce565b506001600160a01b03165f9081526003602052604090205490565b60608160ff165f036110a957505060408051808201909152600681526521b7b6b6b7b760d11b602082015290565b8160ff166001036110d45750506040805180820190915260048152635261726560e01b602082015290565b8160ff166002036110ff5750506040805180820190915260048152634570696360e01b602082015290565b8160ff1660030361112f5750506040805180820190915260098152684c6567656e6461727960b81b602082015290565b50506040805180820190915260078152662ab735b737bbb760c91b602082015290565b5f61115c8161158c565b610d8161193d565b5f918252600a602090815260408084206001600160a01b0393909316845291905290205460ff1690565b606060018054610839906129cf565b6108d933838361197a565b6111b3848484610b45565b610bc83385858585611a0f565b60605f6111cc8361102c565b6001600160a01b0316036112195760405162461bcd60e51b8152602060048201526014602482015273151bdad95b88191bd95cc81b9bdd08195e1a5cdd60621b6044820152606401610b32565b5f828152600f602052604081208054611231906129cf565b80601f016020809104026020016040519081016040528092919081815260200182805461125d906129cf565b80156112a85780601f1061127f576101008083540402835291602001916112a8565b820191905f5260205f20905b81548152906001019060200180831161128b57829003601f168201915b50505050509050600e80546112bc906129cf565b90505f036112ca5792915050565b8051156112fc57600e816040516020016112e5929190612c0d565b604051602081830303815290604052915050919050565b600e61130784611b25565b6040516020016112e5929190612c0d565b61132182610bce565b61132a8161158c565b610bc883836117f3565b600e8054611341906129cf565b80601f016020809104026020016040519081016040528092919081815260200182805461136d906129cf565b80156113b85780601f1061138f576101008083540402835291602001916113b8565b820191905f5260205f20905b81548152906001019060200180831161139b57829003601f168201915b505050505081565b606060105f8381526020019081526020015f20600401805480602002602001604051908101604052809291908181526020015f905b8282101561143c575f848152602090819020604080518082019091526002850290910180546001600160a01b031682526001908101548284015290835290920191016113f5565b505050509050919050565b6001600160a01b039182165f90815260056020908152604080832093909416825291909152205460ff1690565b5f516020612d3e5f395f51905f5261148b8161158c565b5f82815260106020526040902054156114b7576040516303ef628960e31b815260040160405180910390fd5b5f8281526010602052604080822084905560128490555183917fe1078fbf8122252d4552c2b9c945a0794c0dcfd34277a548cabe558ebb8fb660916114fe91815260200190565b60405180910390a25050565b5f6001600160e01b03198216637965db0b60e01b1480610825575061082582611bb4565b5f5f61153983611bd8565b90506001600160a01b03811661082557604051637e27328960e01b815260048101849052602401610b32565b5f908152600460205260409020546001600160a01b031690565b610c868383836001611bf2565b610d818133611ced565b5f82815260116020526040812054908190036115c55760405163f3bf62c360e01b815260040160405180910390fd5b5f818152601060205260409020600381015460ff16156115e55750505050565b5f8160010154845f815181106115fd576115fd612b61565b602002602001015161160f9190612c35565b90505f80805b60048501548110156116985784600401818154811061163657611636612b61565b905f5260205f20906002020160010154836116519190612b75565b9250828410156116905784600401818154811061167057611670612b61565b5f9182526020909120600290910201546001600160a01b03169150611698565b600101611615565b506003840180546001600160a01b038316610100026001600160a81b031990911617600117905585515f906116e890839088908a9085906116db576116db612b61565b6020026020010151611d18565b9050816001600160a01b0316867f7b344894e8a10caac37725d394a0205b65f0d7ca823c28d1e33a5f938efceac78360405161172691815260200190565b60405180910390a3601254860361173c575f6012555b5050505050505050565b5f61174f611e0a565b61175a848484611e30565b949350505050565b5f61176d8383611164565b6117ec575f838152600a602090815260408083206001600160a01b03861684529091529020805460ff191660011790556117a43390565b6001600160a01b0316826001600160a01b0316847f2f8788117e7eff1d82e926ec794901d17c78024a50270940304540a733656f0d60405160405180910390a4506001610825565b505f610825565b5f6117fe8383611164565b156117ec575f838152600a602090815260408083206001600160a01b0386168085529252808320805460ff1916905551339286917ff6391f5c32d9c69d2a47ea670b442974b53935d1edc7fd64eb21e047a839171b9190a4506001610825565b6108d9828260405180602001604052805f815250611efb565b6060600e61188485611f12565b6118908560ff16611f12565b61189c8560ff16611f12565b6040516020016118af9493929190612c48565b60405160208183030381529060405290509392505050565b6118cf61200e565b600c805460ff191690557f5db9ee0a495bf2e6ff9c91a7834c1ba4fdd244a5e8aa4e537bd38aeae4b073aa335b60405161190991906125ce565b60405180910390a1565b6002600b540361193657604051633ee5aeb560e01b815260040160405180910390fd5b6002600b55565b611945611e0a565b600c805460ff191660011790557f62e78cea01bee320cd4e420270b5ea74000d11b0c9f74754ebdbfc544b05a2586118fc3390565b6001600160a01b0382166119a35781604051630b61174360e31b8152600401610b3291906125ce565b6001600160a01b038381165f81815260056020908152604080832094871680845294825291829020805460ff191686151590811790915591519182527f17307eab39ab6107e8899845ad3d59bd9653f200f220920489ca2b5937696c31910160405180910390a3505050565b6001600160a01b0383163b15611b1e57604051630a85bd0160e11b81526001600160a01b0384169063150b7a0290611a51908890889087908790600401612cac565b6020604051808303815f875af1925050508015611a8b575060408051601f3d908101601f19168201909252611a8891810190612ce8565b60015b611ae9573d808015611ab8576040519150601f19603f3d011682016040523d82523d5f602084013e611abd565b606091505b5080515f03611ae15783604051633250574960e11b8152600401610b3291906125ce565b805160208201fd5b6001600160e01b03198116630a85bd0160e11b14611b1c5783604051633250574960e11b8152600401610b3291906125ce565b505b5050505050565b60605f611b3183612031565b60010190505f816001600160401b03811115611b4f57611b4f612625565b6040519080825280601f01601f191660200182016040528015611b79576020820181803683370190505b5090508181016020015b5f19016f181899199a1a9b1b9c1cb0b131b232b360811b600a86061a8153600a8504945084611b8357509392505050565b5f6001600160e01b0319821663780e9d6360e01b1480610825575061082582612106565b5f908152600260205260409020546001600160a01b031690565b8080611c0657506001600160a01b03821615155b15611cbe575f611c158461152e565b90506001600160a01b03831615801590611c415750826001600160a01b0316816001600160a01b031614155b8015611c545750611c528184611447565b155b15611c74578260405163a9fbf51f60e01b8152600401610b3291906125ce565b8115611cbc5783856001600160a01b0316826001600160a01b03167f8c5be1e5ebec7d5bd14f71427d1e84f3dd0314c0f7b2291e5b200ac8c7c3b92560405160405180910390a45b505b50505f90815260046020526040902080546001600160a01b0319166001600160a01b0392909216919091179055565b611cf78282611164565b6108d957808260405163e2517d3f60e01b8152600401610b32929190612a1e565b600d80545f9182611d2883612a4b565b9190505590505f611d3883612155565b90505f611d4a600a600886901c612c35565b6040805160a081018252878152602080820188815260ff808816848601908152818716606086019081525f608087018181528c82526013909652969096209451855591516001850155905160029093018054945192511515620100000262ff0000199383166101000261ffff19909616949092169390931793909317169190911790559050611dd9868461185e565b5f611de5848484611877565b5f858152600f60205260409020909150611dff8282612aa7565b505050509392505050565b600c5460ff1615611e2e5760405163d93c066560e01b815260040160405180910390fd5b565b5f5f611e3d8585856121c6565b90506001600160a01b038116611e9957611e9484600880545f838152600960205260408120829055600182018355919091527ff3f7a9fe364faab93b216da50a3214154f22a0a2b415b23a84c8169e8b636ee30155565b611ebc565b846001600160a01b0316816001600160a01b031614611ebc57611ebc81856122b3565b6001600160a01b038516611ed857611ed384612330565b61175a565b846001600160a01b0316816001600160a01b03161461175a5761175a85856123d7565b611f058383612425565b610c86335f858585611a0f565b6060815f03611f385750506040805180820190915260018152600360fc1b602082015290565b815f5b8115611f615780611f4b81612a4b565b9150611f5a9050600a83612d03565b9150611f3b565b5f816001600160401b03811115611f7a57611f7a612625565b6040519080825280601f01601f191660200182016040528015611fa4576020820181803683370190505b5090505b841561175a57611fb9600183612d16565b9150611fc6600a86612c35565b611fd1906030612b75565b60f81b818381518110611fe657611fe6612b61565b60200101906001600160f81b03191690815f1a905350612007600a86612d03565b9450611fa8565b600c5460ff16611e2e57604051638dfc202b60e01b815260040160405180910390fd5b5f8072184f03e93ff9f4daa797ed6e38ed64bf6a1f0160401b831061206f5772184f03e93ff9f4daa797ed6e38ed64bf6a1f0160401b830492506040015b6904ee2d6d415b85acef8160201b8310612099576904ee2d6d415b85acef8160201b830492506020015b662386f26fc1000083106120b757662386f26fc10000830492506010015b6305f5e10083106120cf576305f5e100830492506008015b61271083106120e357612710830492506004015b606483106120f5576064830492506002015b600a83106108255760010192915050565b5f6001600160e01b031982166380ac58cd60e01b148061213657506001600160e01b03198216635b5e139f60e01b145b8061082557506301ffc9a760e01b6001600160e01b0319831614610825565b5f8061216361271084612c35565b905060648110156121775750600392915050565b6121846103846064612b75565b8110156121945750600292915050565b610bb86121a46103846064612b75565b6121ae9190612b75565b8110156121be5750600192915050565b505f92915050565b5f5f6121d184611bd8565b90506001600160a01b038316156121ed576121ed818486612486565b6001600160a01b03811615612227576122085f855f5f611bf2565b6001600160a01b0381165f90815260036020526040902080545f190190555b6001600160a01b03851615612255576001600160a01b0385165f908152600360205260409020805460010190555b5f8481526002602052604080822080546001600160a01b0319166001600160a01b0389811691821790925591518793918516917fddf252ad1be2c89b69c2b068fc378daa952ba7f163c4a11628f55a4df523b3ef91a4949350505050565b5f6122bd83611036565b5f838152600760209081526040808320546001600160a01b0388168452600690925290912091925090818314612312575f83815260208281526040808320548584528184208190558352600790915290208290555b5f938452600760209081526040808620869055938552525081205550565b6008545f9061234190600190612d16565b5f838152600960205260408120546008805493945090928490811061236857612368612b61565b905f5260205f2001549050806008838154811061238757612387612b61565b5f9182526020808320909101929092558281526009909152604080822084905585825281205560088054806123be576123be612d29565b600190038181905f5260205f20015f9055905550505050565b5f60016123e384611036565b6123ed9190612d16565b6001600160a01b039093165f908152600660209081526040808320868452825280832085905593825260079052919091209190915550565b6001600160a01b03821661244e575f604051633250574960e11b8152600401610b3291906125ce565b5f61245a83835f611746565b90506001600160a01b03811615610c86575f6040516339e3563760e11b8152600401610b3291906125ce565b6124918383836124dc565b610c86576001600160a01b0383166124bf57604051637e27328960e01b815260048101829052602401610b32565b818160405163177e802f60e01b8152600401610b32929190612a1e565b5f6001600160a01b0383161580159061175a5750826001600160a01b0316846001600160a01b0316148061251557506125158484611447565b8061175a5750826001600160a01b031661252e83611565565b6001600160a01b031614949350505050565b6001600160e01b031981168114610d81575f5ffd5b5f60208284031215612565575f5ffd5b813561257081612540565b9392505050565b5f81518084528060208401602086015e5f602082860101526020601f19601f83011685010191505092915050565b602081525f6125706020830184612577565b5f602082840312156125c7575f5ffd5b5035919050565b6001600160a01b0391909116815260200190565b80356001600160a01b03811681146125f8575f5ffd5b919050565b5f5f6040838503121561260e575f5ffd5b612617836125e2565b946020939093013593505050565b634e487b7160e01b5f52604160045260245ffd5b604051601f8201601f191681016001600160401b038111828210171561266157612661612625565b604052919050565b5f5f6040838503121561267a575f5ffd5b8235915060208301356001600160401b03811115612696575f5ffd5b8301601f810185136126a6575f5ffd5b80356001600160401b038111156126bf576126bf612625565b8060051b6126cf60208201612639565b918252602081840181019290810190888411156126ea575f5ffd5b6020850194505b83851015612710578435808352602095860195909350909101906126f1565b80955050505050509250929050565b5f5f5f60608486031215612731575f5ffd5b61273a846125e2565b9250612748602085016125e2565b929592945050506040919091013590565b5f5f6040838503121561276a575f5ffd5b8235915061277a602084016125e2565b90509250929050565b803560ff811681146125f8575f5ffd5b5f5f5f606084860312156127a5575f5ffd5b6127ae846125e2565b92506127bc60208501612783565b91506127ca60408501612783565b90509250925092565b5f806001600160401b038411156127ec576127ec612625565b50601f8301601f191660200161280181612639565b915050828152838383011115612815575f5ffd5b828260208301375f602084830101529392505050565b5f6020828403121561283b575f5ffd5b81356001600160401b03811115612850575f5ffd5b8201601f81018413612860575f5ffd5b61175a848235602084016127d3565b5f6020828403121561287f575f5ffd5b612570826125e2565b5f60208284031215612898575f5ffd5b61257082612783565b5f5f604083850312156128b2575f5ffd5b6128bb836125e2565b9150602083013580151581146128cf575f5ffd5b809150509250929050565b5f5f5f5f608085870312156128ed575f5ffd5b6128f6856125e2565b9350612904602086016125e2565b92506040850135915060608501356001600160401b03811115612925575f5ffd5b8501601f81018713612935575f5ffd5b612944878235602084016127d3565b91505092959194509250565b602080825282518282018190525f918401906040840190835b8181101561299c57835180516001600160a01b031684526020908101518185015290930192604090920191600101612969565b509095945050505050565b5f5f604083850312156129b8575f5ffd5b6129c1836125e2565b915061277a602084016125e2565b600181811c908216806129e357607f821691505b602082108103612a0157634e487b7160e01b5f52602260045260245ffd5b50919050565b5f60208284031215612a17575f5ffd5b5051919050565b6001600160a01b03929092168252602082015260400190565b634e487b7160e01b5f52601160045260245ffd5b5f60018201612a5c57612a5c612a37565b5060010190565b601f821115610c8657805f5260205f20601f840160051c81016020851015612a885750805b601f840160051c820191505b81811015611b1e575f8155600101612a94565b81516001600160401b03811115612ac057612ac0612625565b612ad481612ace84546129cf565b84612a63565b6020601f821160018114612b06575f8315612aef5750848201515b5f19600385901b1c1916600184901b178455611b1e565b5f84815260208120601f198516915b82811015612b355787850151825560209485019460019092019101612b15565b5084821015612b5257868401515f19600387901b60f8161c191681555b50505050600190811b01905550565b634e487b7160e01b5f52603260045260245ffd5b8082018082111561082557610825612a37565b5f8154612b94816129cf565b600182168015612bab5760018114612bc057612bed565b60ff1983168652811515820286019350612bed565b845f5260205f205f5b83811015612be557815488820152600190910190602001612bc9565b505081860193505b50505092915050565b5f81518060208401855e5f93019283525090919050565b5f61175a612c1b8386612b88565b84612bf6565b634e487b7160e01b5f52601260045260245ffd5b5f82612c4357612c43612c21565b500690565b5f612c538287612b88565b602f60f81b8152612c676001820187612bf6565b9050602d60f81b8152612c7d6001820186612bf6565b9050602d60f81b8152612c936001820185612bf6565b64173539b7b760d91b8152600501979650505050505050565b6001600160a01b03858116825284166020820152604081018390526080606082018190525f90612cde90830184612577565b9695505050505050565b5f60208284031215612cf8575f5ffd5b815161257081612540565b5f82612d1157612d11612c21565b500490565b8181038181111561082557610825612a37565b634e487b7160e01b5f52603160045260245ffdfe6a64baf327d646d1bca72653e2a075d15fd6ac6d8cbd7f6ee03fc55875e0fa887804d923f43a17d325d77e781528e0793b2edd9890ab45fc64efd7b4b427744c9f2df0fed2c77648de5860a4cc508cd0818c85b8b8a1ab4ceeef8d981c8956a6a26469706673582212206a3cd4207cc4d19167d43de04858df8121b4bf87eb9697f085f97a225464081864736f6c634300081c0033",
  "linkReferences": {},
  "deployedLinkReferences": {},
  "immutableReferences": {
    "10": [
      {
        "length": 32,
        "start": 2759
      },
      {
        "length": 32,
        "start": 2825
      }
    ],
    "18273": [
      {
        "length": 32,
        "start": 1701
      },
      {
        "length": 32,
        "start": 2541
      }
    ],
    "18275": [
      {
        "length": 32,
        "start": 747
      },
      {
        "length": 32,
        "start": 2479
      }
    ],
    "18277": [
      {
        "length": 32,
        "start": 1480
      },
      {
        "length": 32,
        "start": 2433
      }
    ]
  },
  "inputSourceName": "project/contracts/nft/GachaMintPass.sol",
  "buildInfoId": "solc-0_8_28-08003884718a115bc5a34ffddf6806a10ca17a64"
}