{
  "_format": "hh3-artifact-1",
  "contractName": "StakingPool",
  "sourceName": "contracts/staking/StakingPool.sol",
  "abi": [
    {
      "inputs": [
        {
          "internalType": "address",
          "name": "_stakingToken",
          "type": "address"
        },
        {
          "internalType": "address",
          "name": "_rewardToken",
          "type": "address"
        },
        {
          "internalType": "address",
          "name": "_treasury",
          "type": "address"
        }
      ],
      "stateMutability": "nonpayable",
      "type": "constructor"
    },
    {
      "inputs": [],
      "name": "AccessControlBadConfirmation",
      "type": "error"
    },
    {
      "inputs": [
        {
          "internalType": "address",
          "name": "account",
          "type": "address"
        },
        {
          "internalType": "bytes32",
          "name": "neededRole",
          "type": "bytes32"
        }
      ],
      "name": "AccessControlUnauthorizedAccount",
      "type": "error"
    },
    {
      "inputs": [],
      "name": "EnforcedPause",
      "type": "error"
    },
    {
      "inputs": [],
      "name": "ExpectedPause",
      "type": "error"
    },
    {
      "inputs": [],
      "name": "InsufficientStake",
      "type": "error"
    },
    {
      "inputs": [],
      "name": "InvalidDuration",
      "type": "error"
    },
    {
      "inputs": [],
      "name": "NoStakedBalance",
      "type": "error"
    },
    {
      "inputs": [],
      "name": "NotEnoughRewards",
      "type": "error"
    },
    {
      "inputs": [],
      "name": "ReentrancyGuardReentrantCall",
      "type": "error"
    },
    {
      "inputs": [],
      "name": "RewardTooHigh",
      "type": "error"
    },
    {
      "inputs": [
        {
          "internalType": "address",
          "name": "token",
          "type": "address"
        }
      ],
      "name": "SafeERC20FailedOperation",
      "type": "error"
    },
    {
      "inputs": [],
      "name": "StakingTokenRecovery",
      "type": "error"
    },
    {
      "inputs": [],
      "name": "TooEarlyToUnstake",
      "type": "error"
    },
    {
      "inputs": [],
      "name": "ZeroAmount",
      "type": "error"
    },
    {
      "anonymous": false,
      "inputs": [
        {
          "indexed": false,
          "internalType": "address",
          "name": "account",
          "type": "address"
        }
      ],
      "name": "Paused",
      "type": "event"
    },
    {
      "anonymous": false,
      "inputs": [
        {
          "indexed": false,
          "internalType": "address",
          "name": "token",
          "type": "address"
        },
        {
          "indexed": false,
          "internalType": "uint256",
          "name": "amount",
          "type": "uint256"
        }
      ],
      "name": "Recovered",
      "type": "event"
    },
    {
      "anonymous": false,
      "inputs": [
        {
          "indexed": true,
          "internalType": "address",
          "name": "user",
          "type": "address"
        },
        {
          "indexed": false,
          "internalType": "uint256",
          "name": "reward",
          "type": "uint256"
        }
      ],
      "name": "RewardPaid",
      "type": "event"
    },
    {
      "anonymous": false,
      "inputs": [
        {
          "indexed": false,
          "internalType": "uint256",
          "name": "reward",
          "type": "uint256"
        }
      ],
      "name": "RewardsAdded",
      "type": "event"
    },
    {
      "anonymous": false,
      "inputs": [
        {
          "indexed": false,
          "internalType": "uint256",
          "name": "newDuration",
          "type": "uint256"
        }
      ],
      "name": "RewardsDurationUpdated",
      "type": "event"
    },
    {
      "anonymous": false,
      "inputs": [
        {
          "indexed": true,
          "internalType": "bytes32",
          "name": "role",
          "type": "bytes32"
        },
        {
          "indexed": true,
          "internalType": "bytes32",
          "name": "previousAdminRole",
          "type": "bytes32"
        },
        {
          "indexed": true,
          "internalType": "bytes32",
          "name": "newAdminRole",
          "type": "bytes32"
        }
      ],
      "name": "RoleAdminChanged",
      "type": "event"
    },
    {
      "anonymous": false,
      "inputs": [
        {
          "indexed": true,
          "internalType": "bytes32",
          "name": "role",
          "type": "bytes32"
        },
        {
          "indexed": true,
          "internalType": "address",
          "name": "account",
          "type": "address"
        },
        {
          "indexed": true,
          "internalType": "address",
          "name": "sender",
          "type": "address"
        }
      ],
      "name": "RoleGranted",
      "type": "event"
    },
    {
      "anonymous": false,
      "inputs": [
        {
          "indexed": true,
          "internalType": "bytes32",
          "name": "role",
          "type": "bytes32"
        },
        {
          "indexed": true,
          "internalType": "address",
          "name": "account",
          "type": "address"
        },
        {
          "indexed": true,
          "internalType": "address",
          "name": "sender",
          "type": "address"
        }
      ],
      "name": "RoleRevoked",
      "type": "event"
    },
    {
      "anonymous": false,
      "inputs": [
        {
          "indexed": true,
          "internalType": "address",
          "name": "user",
          "type": "address"
        },
        {
          "indexed": false,
          "internalType": "uint256",
          "name": "amount",
          "type": "uint256"
        }
      ],
      "name": "Staked",
      "type": "event"
    },
    {
      "anonymous": false,
      "inputs": [
        {
          "indexed": false,
          "internalType": "address",
          "name": "account",
          "type": "address"
        }
      ],
      "name": "Unpaused",
      "type": "event"
    },
    {
      "anonymous": false,
      "inputs": [
        {
          "indexed": true,
          "internalType": "address",
          "name": "user",
          "type": "address"
        },
        {
          "indexed": false,
          "internalType": "uint256",
          "name": "amount",
          "type": "uint256"
        }
      ],
      "name": "Withdrawn",
      "type": "event"
    },
    {
      "inputs": [],
      "name": "DEFAULT_ADMIN_ROLE",
      "outputs": [
        {
          "internalType": "bytes32",
          "name": "",
          "type": "bytes32"
        }
      ],
      "stateMutability": "view",
      "type": "function"
    },
    {
      "inputs": [],
      "name": "MIN_STAKE",
      "outputs": [
        {
          "internalType": "uint256",
          "name": "",
          "type": "uint256"
        }
      ],
      "stateMutability": "view",
      "type": "function"
    },
    {
      "inputs": [],
      "name": "REWARDS_MANAGER",
      "outputs": [
        {
          "internalType": "bytes32",
          "name": "",
          "type": "bytes32"
        }
      ],
      "stateMutability": "view",
      "type": "function"
    },
    {
      "inputs": [],
      "name": "TREASURY_ROLE",
      "outputs": [
        {
          "internalType": "bytes32",
          "name": "",
          "type": "bytes32"
        }
      ],
      "stateMutability": "view",
      "type": "function"
    },
    {
      "inputs": [
        {
          "internalType": "address",
          "name": "account",
          "type": "address"
        }
      ],
      "name": "balanceOf",
      "outputs": [
        {
          "internalType": "uint256",
          "name": "",
          "type": "uint256"
        }
      ],
      "stateMutability": "view",
      "type": "function"
    },
    {
      "inputs": [
        {
          "internalType": "address",
          "name": "account",
          "type": "address"
        }
      ],
      "name": "earned",
      "outputs": [
        {
          "internalType": "uint256",
          "name": "",
          "type": "uint256"
        }
      ],
      "stateMutability": "view",
      "type": "function"
    },
    {
      "inputs": [],
      "name": "exit",
      "outputs": [],
      "stateMutability": "nonpayable",
      "type": "function"
    },
    {
      "inputs": [],
      "name": "getReward",
      "outputs": [],
      "stateMutability": "nonpayable",
      "type": "function"
    },
    {
      "inputs": [],
      "name": "getRewardForDuration",
      "outputs": [
        {
          "internalType": "uint256",
          "name": "",
          "type": "uint256"
        }
      ],
      "stateMutability": "view",
      "type": "function"
    },
    {
      "inputs": [
        {
          "internalType": "bytes32",
          "name": "role",
          "type": "bytes32"
        }
      ],
      "name": "getRoleAdmin",
      "outputs": [
        {
          "internalType": "bytes32",
          "name": "",
          "type": "bytes32"
        }
      ],
      "stateMutability": "view",
      "type": "function"
    },
    {
      "inputs": [
        {
          "internalType": "bytes32",
          "name": "role",
          "type": "bytes32"
        },
        {
          "internalType": "address",
          "name": "account",
          "type": "address"
        }
      ],
      "name": "grantRole",
      "outputs": [],
      "stateMutability": "nonpayable",
      "type": "function"
    },
    {
      "inputs": [
        {
          "internalType": "bytes32",
          "name": "role",
          "type": "bytes32"
        },
        {
          "internalType": "address",
          "name": "account",
          "type": "address"
        }
      ],
      "name": "hasRole",
      "outputs": [
        {
          "internalType": "bool",
          "name": "",
          "type": "bool"
        }
      ],
      "stateMutability": "view",
      "type": "function"
    },
    {
      "inputs": [],
      "name": "lastTimeRewardApplicable",
      "outputs": [
        {
          "internalType": "uint256",
          "name": "",
          "type": "uint256"
        }
      ],
      "stateMutability": "view",
      "type": "function"
    },
    {
      "inputs": [],
      "name": "lastUpdateTime",
      "outputs": [
        {
          "internalType": "uint256",
          "name": "",
          "type": "uint256"
        }
      ],
      "stateMutability": "view",
      "type": "function"
    },
    {
      "inputs": [
        {
          "internalType": "uint256",
          "name": "reward",
          "type": "uint256"
        }
      ],
      "name": "notifyRewardAmount",
      "outputs": [],
      "stateMutability": "nonpayable",
      "type": "function"
    },
    {
      "inputs": [],
      "name": "pause",
      "outputs": [],
      "stateMutability": "nonpayable",
      "type": "function"
    },
    {
      "inputs": [],
      "name": "paused",
      "outputs": [
        {
          "internalType": "bool",
          "name": "",
          "type": "bool"
        }
      ],
      "stateMutability": "view",
      "type": "function"
    },
    {
      "inputs": [],
      "name": "periodFinish",
      "outputs": [
        {
          "internalType": "uint256",
          "name": "",
          "type": "uint256"
        }
      ],
      "stateMutability": "view",
      "type": "function"
    },
    {
      "inputs": [
        {
          "internalType": "address",
          "name": "tokenAddress",
          "type": "address"
        },
        {
          "internalType": "uint256",
          "name": "tokenAmount",
          "type": "uint256"
        }
      ],
      "name": "recoverERC20",
      "outputs": [],
      "stateMutability": "nonpayable",
      "type": "function"
    },
    {
      "inputs": [
        {
          "internalType": "bytes32",
          "name": "role",
          "type": "bytes32"
        },
        {
          "internalType": "address",
          "name": "callerConfirmation",
          "type": "address"
        }
      ],
      "name": "renounceRole",
      "outputs": [],
      "stateMutability": "nonpayable",
      "type": "function"
    },
    {
      "inputs": [
        {
          "internalType": "bytes32",
          "name": "role",
          "type": "bytes32"
        },
        {
          "internalType": "address",
          "name": "account",
          "type": "address"
        }
      ],
      "name": "revokeRole",
      "outputs": [],
      "stateMutability": "nonpayable",
      "type": "function"
    },
    {
      "inputs": [],
      "name": "rewardPerToken",
      "outputs": [
        {
          "internalType": "uint256",
          "name": "",
          "type": "uint256"
        }
      ],
      "stateMutability": "view",
      "type": "function"
    },
    {
      "inputs": [],
      "name": "rewardPerTokenStored",
      "outputs": [
        {
          "internalType": "uint256",
          "name": "",
          "type": "uint256"
        }
      ],
      "stateMutability": "view",
      "type": "function"
    },
    {
      "inputs": [],
      "name": "rewardRate",
      "outputs": [
        {
          "internalType": "uint256",
          "name": "",
          "type": "uint256"
        }
      ],
      "stateMutability": "view",
      "type": "function"
    },
    {
      "inputs": [],
      "name": "rewardToken",
      "outputs": [
        {
          "internalType": "contract IERC20",
          "name": "",
          "type": "address"
        }
      ],
      "stateMutability": "view",
      "type": "function"
    },
    {
      "inputs": [],
      "name": "rewardsDuration",
      "outputs": [
        {
          "internalType": "uint256",
          "name": "",
          "type": "uint256"
        }
      ],
      "stateMutability": "view",
      "type": "function"
    },
    {
      "inputs": [
        {
          "internalType": "uint256",
          "name": "_rewardsDuration",
          "type": "uint256"
        }
      ],
      "name": "setRewardsDuration",
      "outputs": [],
      "stateMutability": "nonpayable",
      "type": "function"
    },
    {
      "inputs": [
        {
          "internalType": "uint256",
          "name": "amount",
          "type": "uint256"
        }
      ],
      "name": "stake",
      "outputs": [],
      "stateMutability": "nonpayable",
      "type": "function"
    },
    {
      "inputs": [
        {
          "internalType": "address",
          "name": "",
          "type": "address"
        }
      ],
      "name": "stakes",
      "outputs": [
        {
          "internalType": "uint256",
          "name": "amount",
          "type": "uint256"
        },
        {
          "internalType": "uint256",
          "name": "rewardPerTokenPaid",
          "type": "uint256"
        },
        {
          "internalType": "uint256",
          "name": "rewards",
          "type": "uint256"
        },
        {
          "internalType": "uint256",
          "name": "lastStakeTime",
          "type": "uint256"
        }
      ],
      "stateMutability": "view",
      "type": "function"
    },
    {
      "inputs": [],
      "name": "stakingToken",
      "outputs": [
        {
          "internalType": "contract IERC20",
          "name": "",
          "type": "address"
        }
      ],
      "stateMutability": "view",
      "type": "function"
    },
    {
      "inputs": [
        {
          "internalType": "bytes4",
          "name": "interfaceId",
          "type": "bytes4"
        }
      ],
      "name": "supportsInterface",
      "outputs": [
        {
          "internalType": "bool",
          "name": "",
          "type": "bool"
        }
      ],
      "stateMutability": "view",
      "type": "function"
    },
    {
      "inputs": [],
      "name": "totalStaked",
      "outputs": [
        {
          "internalType": "uint256",
          "name": "",
          "type": "uint256"
        }
      ],
      "stateMutability": "view",
      "type": "function"
    },
    {
      "inputs": [],
      "name": "unpause",
      "outputs": [],
      "stateMutability": "nonpayable",
      "type": "function"
    },
    {
      "inputs": [
        {
          "internalType": "uint256",
          "name": "amount",
          "type": "uint256"
        }
      ],
      "name": "withdraw",
      "outputs": [],
      "stateMutability": "nonpayable",
      "type": "function"
    }
  ],
  "bytecode": "0x60c060405262093a80600755348015610016575f5ffd5b5060405161156c38038061156c83398101604081905261003591610273565b600180556001600160a01b0383166100945760405162461bcd60e51b815260206004820152601560248201527f496e76616c6964207374616b696e6720746f6b656e000000000000000000000060448201526064015b60405180910390fd5b6001600160a01b0382166100ea5760405162461bcd60e51b815260206004820152601460248201527f496e76616c69642072657761726420746f6b656e000000000000000000000000604482015260640161008b565b6001600160a01b0381166101335760405162461bcd60e51b815260206004820152601060248201526f496e76616c696420747265617375727960801b604482015260640161008b565b6001600160a01b03808416608052821660a0526101505f336101af565b5061017b7fe1dcbdb91df27212a29bc27177c840cf2f819ecf2187432e1fac86c2dd5dfca9826101af565b506101a67fb2bc1177b694848fe3edec025004a76a94956f287e71c968889166c11567aa26336101af565b505050506102b3565b5f828152602081815260408083206001600160a01b038516845290915281205460ff1661024f575f838152602081815260408083206001600160a01b03861684529091529020805460ff191660011790556102073390565b6001600160a01b0316826001600160a01b0316847f2f8788117e7eff1d82e926ec794901d17c78024a50270940304540a733656f0d60405160405180910390a4506001610252565b505f5b92915050565b80516001600160a01b038116811461026e575f5ffd5b919050565b5f5f5f60608486031215610285575f5ffd5b61028e84610258565b925061029c60208501610258565b91506102aa60408501610258565b90509250925092565b60805160a0516112756102f75f395f818161040c015281816107af015261093301525f81816102ee01528181610605015281816109e20152610bb101526112755ff3fe608060405234801561000f575f5ffd5b5060043610610193575f3560e01c80628cc2621461019757806301ffc9a7146101bd57806316934fc4146101e05780631c1f78eb14610234578063248a9ca31461023c5780632e1a7d4d1461024f5780632f2ff15d1461026457806336568abe14610277578063386a95251461028a5780633c6b16ab146102935780633d18b912146102a65780633f4ba83a146102ae5780635c975abb146102b657806370a08231146102c157806372f702f3146102e95780637b0a47ee1461031d57806380faa57d14610326578063817b1cd21461032e5780638456cb59146103375780638980f11f1461033f57806391d1485414610352578063a217fddf14610365578063a694fc3a1461036c578063c8f33c911461037f578063cb1c2b5c14610388578063cc1a378f14610397578063cd3daf9d146103aa578063d11a57ec146103b2578063d547741f146103c6578063df136d65146103d9578063e1a27563146103e2578063e9fad8ee146103f6578063ebe2b12b146103fe578063f7c618c114610407575b5f5ffd5b6101aa6101a53660046110a2565b61042e565b6040519081526020015b60405180910390f35b6101d06101cb3660046110bb565b6104b9565b60405190151581526020016101b4565b6102146101ee3660046110a2565b60096020525f908152604090208054600182015460028301546003909301549192909184565b6040805194855260208501939093529183015260608201526080016101b4565b6101aa6104ef565b6101aa61024a3660046110e2565b610505565b61026261025d3660046110e2565b610519565b005b6102626102723660046110f9565b61066f565b6102626102853660046110f9565b610691565b6101aa60075481565b6102626102a13660046110e2565b6106c9565b6102626108a3565b6102626109a5565b60025460ff166101d0565b6101aa6102cf3660046110a2565b6001600160a01b03165f9081526009602052604090205490565b6103107f000000000000000000000000000000000000000000000000000000000000000081565b6040516101b49190611123565b6101aa60065481565b6101aa6109b7565b6101aa60035481565b6102626109c4565b61026261034d366004611137565b6109d6565b6101d06103603660046110f9565b610a84565b6101aa5f81565b61026261037a3660046110e2565b610aac565b6101aa60055481565b6101aa670de0b6b3a764000081565b6102626103a53660046110e2565b610c20565b6101aa610cb5565b6101aa5f5160206112005f395f51905f5281565b6102626103d43660046110f9565b610d14565b6101aa60045481565b6101aa5f5160206112205f395f51905f5281565b610262610d30565b6101aa60085481565b6103107f000000000000000000000000000000000000000000000000000000000000000081565b6001600160a01b0381165f90815260096020908152604080832081516080810183528154815260018201549381018490526002820154928101839052600390910154606082015291670de0b6b3a764000090610488610cb5565b6104929190611173565b835161049e9190611186565b6104a8919061119d565b6104b291906111bc565b9392505050565b5f6001600160e01b03198216637965db0b60e01b14806104e957506301ffc9a760e01b6001600160e01b03198316145b92915050565b5f6007546006546105009190611186565b905090565b5f9081526020819052604090206001015490565b610521610d50565b3361052a610cb5565b6004556105356109b7565b6005556001600160a01b03811615610579576105508161042e565b6001600160a01b0382165f90815260096020526040902060028101919091556004546001909101555b815f0361059957604051631f2a200560e01b815260040160405180910390fd5b335f90815260096020526040902080548311156105c957604051633a1018d560e21b815260040160405180910390fd5b8260035f8282546105da9190611173565b90915550508054839082905f906105f2908490611173565b9091555061062c90506001600160a01b037f0000000000000000000000000000000000000000000000000000000000000000163385610d7a565b60405183815233907f7084f5476618d8e60b11ef0d7d3f06914655adb8793e28ff7f018d4c76d505d59060200160405180910390a2505061066c60018055565b50565b61067882610505565b61068181610dd2565b61068b8383610ddc565b50505050565b6001600160a01b03811633146106ba5760405163334bd91960e11b815260040160405180910390fd5b6106c48282610e6b565b505050565b5f5160206112005f395f51905f526106e081610dd2565b5f6106e9610cb5565b6004556106f46109b7565b6005556001600160a01b038116156107385761070f8161042e565b6001600160a01b0382165f90815260096020526040902060028101919091556004546001909101555b60085442106107565760075461074e908461119d565b600655610796565b5f426008546107659190611173565b90505f600654826107769190611186565b60075490915061078682876111bc565b610790919061119d565b60065550505b6040516370a0823160e01b81525f906001600160a01b037f000000000000000000000000000000000000000000000000000000000000000016906370a08231906107e4903090600401611123565b602060405180830381865afa1580156107ff573d5f5f3e3d5ffd5b505050506040513d601f19601f8201168201806040525081019061082391906111cf565b905060075481610833919061119d565b60065411156108555760405163474c247160e01b815260040160405180910390fd5b426005819055600754610867916111bc565b6008556040518481527ff8fad42e780bfa5459be3fe691e8ba1aec70342250112139c5771c3fd155f3129060200160405180910390a150505050565b6108ab610d50565b336108b4610cb5565b6004556108bf6109b7565b6005556001600160a01b03811615610903576108da8161042e565b6001600160a01b0382165f90815260096020526040902060028101919091556004546001909101555b335f90815260096020526040902060020154801561099857335f81815260096020526040812060020155610962907f00000000000000000000000000000000000000000000000000000000000000006001600160a01b03169083610d7a565b60405181815233907fe2403640ba68fed3a2f88b7557551d1993f84b99bb10ff833f0cf8db0c5e04869060200160405180910390a25b50506109a360018055565b565b5f6109af81610dd2565b61066c610ed4565b5f61050042600854610f20565b5f6109ce81610dd2565b61066c610f2f565b5f6109e081610dd2565b7f00000000000000000000000000000000000000000000000000000000000000006001600160a01b0316836001600160a01b031603610a32576040516302d7b28f60e01b815260040160405180910390fd5b610a466001600160a01b0384163384610d7a565b7f8c1256b8896378cd5044f80c202f9772b9d77dc85c8a6eb51967210b09bfaa288383604051610a779291906111e6565b60405180910390a1505050565b5f918252602082815260408084206001600160a01b0393909316845291905290205460ff1690565b610ab4610d50565b610abc610f6c565b33610ac5610cb5565b600455610ad06109b7565b6005556001600160a01b03811615610b1457610aeb8161042e565b6001600160a01b0382165f90815260096020526040902060028101919091556004546001909101555b815f03610b3457604051631f2a200560e01b815260040160405180910390fd5b670de0b6b3a7640000821015610b5d576040516378de4a6960e11b815260040160405180910390fd5b8160035f828254610b6e91906111bc565b9091555050335f9081526009602052604081208054849290610b919084906111bc565b9091555050335f81815260096020526040902042600390910155610be1907f00000000000000000000000000000000000000000000000000000000000000006001600160a01b0316903085610f90565b60405182815233907f9e71bc8eea02a63969f509818f2dafb9254532904319f9dbda79b67bd34a5f3d9060200160405180910390a25061066c60018055565b5f5160206112205f395f51905f52610c3781610dd2565b6008544211610c5957604051637616640160e01b815260040160405180910390fd5b815f03610c7957604051637616640160e01b815260040160405180910390fd5b60078290556040518281527ffb46ca5a5e06d4540d6387b930a7c978bce0db5f449ec6b3f5d07c6e1d44f2d39060200160405180910390a15050565b5f6003545f03610cc6575060045490565b600354600654600554610cd76109b7565b610ce19190611173565b610ceb9190611186565b610cfd90670de0b6b3a7640000611186565b610d07919061119d565b60045461050091906111bc565b610d1d82610505565b610d2681610dd2565b61068b8383610e6b565b335f90815260096020526040902054610d4890610519565b6109a36108a3565b600260015403610d7357604051633ee5aeb560e01b815260040160405180910390fd5b6002600155565b6106c483846001600160a01b031663a9059cbb8585604051602401610da09291906111e6565b604051602081830303815290604052915060e01b6020820180516001600160e01b038381831617835250505050610fc9565b61066c8133611035565b5f610de78383610a84565b610e64575f838152602081815260408083206001600160a01b03861684529091529020805460ff19166001179055610e1c3390565b6001600160a01b0316826001600160a01b0316847f2f8788117e7eff1d82e926ec794901d17c78024a50270940304540a733656f0d60405160405180910390a45060016104e9565b505f6104e9565b5f610e768383610a84565b15610e64575f838152602081815260408083206001600160a01b0386168085529252808320805460ff1916905551339286917ff6391f5c32d9c69d2a47ea670b442974b53935d1edc7fd64eb21e047a839171b9190a45060016104e9565b610edc611064565b6002805460ff191690557f5db9ee0a495bf2e6ff9c91a7834c1ba4fdd244a5e8aa4e537bd38aeae4b073aa335b604051610f169190611123565b60405180910390a1565b5f8282188284100282186104b2565b610f37610f6c565b6002805460ff191660011790557f62e78cea01bee320cd4e420270b5ea74000d11b0c9f74754ebdbfc544b05a258610f093390565b60025460ff16156109a35760405163d93c066560e01b815260040160405180910390fd5b6040516001600160a01b03848116602483015283811660448301526064820183905261068b9186918216906323b872dd90608401610da0565b5f5f60205f8451602086015f885af180610fe8576040513d5f823e3d81fd5b50505f513d91508115610fff57806001141561100c565b6001600160a01b0384163b155b1561068b5783604051635274afe760e01b815260040161102c9190611123565b60405180910390fd5b61103f8282610a84565b61106057808260405163e2517d3f60e01b815260040161102c9291906111e6565b5050565b60025460ff166109a357604051638dfc202b60e01b815260040160405180910390fd5b80356001600160a01b038116811461109d575f5ffd5b919050565b5f602082840312156110b2575f5ffd5b6104b282611087565b5f602082840312156110cb575f5ffd5b81356001600160e01b0319811681146104b2575f5ffd5b5f602082840312156110f2575f5ffd5b5035919050565b5f5f6040838503121561110a575f5ffd5b8235915061111a60208401611087565b90509250929050565b6001600160a01b0391909116815260200190565b5f5f60408385031215611148575f5ffd5b61115183611087565b946020939093013593505050565b634e487b7160e01b5f52601160045260245ffd5b818103818111156104e9576104e961115f565b80820281158282048414176104e9576104e961115f565b5f826111b757634e487b7160e01b5f52601260045260245ffd5b500490565b808201808211156104e9576104e961115f565b5f602082840312156111df575f5ffd5b5051919050565b6001600160a01b0392909216825260208201526040019056fee1dcbdb91df27212a29bc27177c840cf2f819ecf2187432e1fac86c2dd5dfca9b2bc1177b694848fe3edec025004a76a94956f287e71c968889166c11567aa26a26469706673582212206b6b66b6f558c5d817bd168cd1cb6dbc4752c779a9dd767bc7e7ce17248ffb2f64736f6c634300081c0033",
  "linkReferences": {},
  "deployedLinkReferences": {},
  "immutableReferences": {
    "19318": [
      {
        "length": 32,
        "start": 750
      },
      {
        "length": 32,
        "start": 1541
      },
      {
        "length": 32,
        "start": 2530
      },
      {
        "length": 32,
        "start": 2993
      }
    ],
    "19321": [
      {
        "length": 32,
        "start": 1036
      },
      {
        "length": 32,
        "start": 1967
      },
      {
        "length": 32,
        "start": 2355
      }
    ]
  },
  "inputSourceName": "project/contracts/staking/StakingPool.sol",
  "buildInfoId": "solc-0_8_28-08003884718a115bc5a34ffddf6806a10ca17a64"
}