{
  "_format": "hh3-artifact-1",
  "contractName": "Treasury",
  "sourceName": "contracts/treasury/Treasury.sol",
  "abi": [
    {
      "inputs": [
        {
          "internalType": "address",
          "name": "_botToken",
          "type": "address"
        },
        {
          "internalType": "address",
          "name": "_developmentWallet",
          "type": "address"
        },
        {
          "internalType": "address",
          "name": "_insuranceWallet",
          "type": "address"
        }
      ],
      "stateMutability": "nonpayable",
      "type": "constructor"
    },
    {
      "inputs": [],
      "name": "AccessControlBadConfirmation",
      "type": "error"
    },
    {
      "inputs": [
        {
          "internalType": "address",
          "name": "account",
          "type": "address"
        },
        {
          "internalType": "bytes32",
          "name": "neededRole",
          "type": "bytes32"
        }
      ],
      "name": "AccessControlUnauthorizedAccount",
      "type": "error"
    },
    {
      "inputs": [],
      "name": "BuybackTooSmall",
      "type": "error"
    },
    {
      "inputs": [],
      "name": "InsufficientBalance",
      "type": "error"
    },
    {
      "inputs": [],
      "name": "InvalidPercentages",
      "type": "error"
    },
    {
      "inputs": [],
      "name": "ReentrancyGuardReentrantCall",
      "type": "error"
    },
    {
      "inputs": [
        {
          "internalType": "address",
          "name": "token",
          "type": "address"
        }
      ],
      "name": "SafeERC20FailedOperation",
      "type": "error"
    },
    {
      "inputs": [],
      "name": "TransferFailed",
      "type": "error"
    },
    {
      "inputs": [],
      "name": "ZeroAddress",
      "type": "error"
    },
    {
      "anonymous": false,
      "inputs": [
        {
          "indexed": false,
          "internalType": "uint256",
          "name": "amountIn",
          "type": "uint256"
        },
        {
          "indexed": false,
          "internalType": "uint256",
          "name": "botReceived",
          "type": "uint256"
        }
      ],
      "name": "BuybackExecuted",
      "type": "event"
    },
    {
      "anonymous": false,
      "inputs": [
        {
          "indexed": false,
          "internalType": "uint256",
          "name": "staking",
          "type": "uint256"
        },
        {
          "indexed": false,
          "internalType": "uint256",
          "name": "buyback",
          "type": "uint256"
        },
        {
          "indexed": false,
          "internalType": "uint256",
          "name": "dev",
          "type": "uint256"
        },
        {
          "indexed": false,
          "internalType": "uint256",
          "name": "insurance",
          "type": "uint256"
        }
      ],
      "name": "DistributionUpdated",
      "type": "event"
    },
    {
      "anonymous": false,
      "inputs": [
        {
          "indexed": false,
          "internalType": "uint256",
          "name": "toStaking",
          "type": "uint256"
        },
        {
          "indexed": false,
          "internalType": "uint256",
          "name": "toBuyback",
          "type": "uint256"
        },
        {
          "indexed": false,
          "internalType": "uint256",
          "name": "toDev",
          "type": "uint256"
        },
        {
          "indexed": false,
          "internalType": "uint256",
          "name": "toInsurance",
          "type": "uint256"
        }
      ],
      "name": "FeesDistributed",
      "type": "event"
    },
    {
      "anonymous": false,
      "inputs": [
        {
          "indexed": true,
          "internalType": "address",
          "name": "from",
          "type": "address"
        },
        {
          "indexed": true,
          "internalType": "address",
          "name": "token",
          "type": "address"
        },
        {
          "indexed": false,
          "internalType": "uint256",
          "name": "amount",
          "type": "uint256"
        }
      ],
      "name": "FeesReceived",
      "type": "event"
    },
    {
      "anonymous": false,
      "inputs": [
        {
          "indexed": true,
          "internalType": "bytes32",
          "name": "role",
          "type": "bytes32"
        },
        {
          "indexed": true,
          "internalType": "bytes32",
          "name": "previousAdminRole",
          "type": "bytes32"
        },
        {
          "indexed": true,
          "internalType": "bytes32",
          "name": "newAdminRole",
          "type": "bytes32"
        }
      ],
      "name": "RoleAdminChanged",
      "type": "event"
    },
    {
      "anonymous": false,
      "inputs": [
        {
          "indexed": true,
          "internalType": "bytes32",
          "name": "role",
          "type": "bytes32"
        },
        {
          "indexed": true,
          "internalType": "address",
          "name": "account",
          "type": "address"
        },
        {
          "indexed": true,
          "internalType": "address",
          "name": "sender",
          "type": "address"
        }
      ],
      "name": "RoleGranted",
      "type": "event"
    },
    {
      "anonymous": false,
      "inputs": [
        {
          "indexed": true,
          "internalType": "bytes32",
          "name": "role",
          "type": "bytes32"
        },
        {
          "indexed": true,
          "internalType": "address",
          "name": "account",
          "type": "address"
        },
        {
          "indexed": true,
          "internalType": "address",
          "name": "sender",
          "type": "address"
        }
      ],
      "name": "RoleRevoked",
      "type": "event"
    },
    {
      "anonymous": false,
      "inputs": [
        {
          "indexed": true,
          "internalType": "address",
          "name": "newRouter",
          "type": "address"
        }
      ],
      "name": "RouterUpdated",
      "type": "event"
    },
    {
      "anonymous": false,
      "inputs": [
        {
          "indexed": true,
          "internalType": "address",
          "name": "newPool",
          "type": "address"
        }
      ],
      "name": "StakingPoolUpdated",
      "type": "event"
    },
    {
      "anonymous": false,
      "inputs": [
        {
          "indexed": false,
          "internalType": "address",
          "name": "development",
          "type": "address"
        },
        {
          "indexed": false,
          "internalType": "address",
          "name": "insurance",
          "type": "address"
        }
      ],
      "name": "WalletsUpdated",
      "type": "event"
    },
    {
      "inputs": [],
      "name": "BASIS_POINTS",
      "outputs": [
        {
          "internalType": "uint256",
          "name": "",
          "type": "uint256"
        }
      ],
      "stateMutability": "view",
      "type": "function"
    },
    {
      "inputs": [],
      "name": "DEFAULT_ADMIN_ROLE",
      "outputs": [
        {
          "internalType": "bytes32",
          "name": "",
          "type": "bytes32"
        }
      ],
      "stateMutability": "view",
      "type": "function"
    },
    {
      "inputs": [],
      "name": "DISTRIBUTOR_ROLE",
      "outputs": [
        {
          "internalType": "bytes32",
          "name": "",
          "type": "bytes32"
        }
      ],
      "stateMutability": "view",
      "type": "function"
    },
    {
      "inputs": [],
      "name": "HOOK_ROLE",
      "outputs": [
        {
          "internalType": "bytes32",
          "name": "",
          "type": "bytes32"
        }
      ],
      "stateMutability": "view",
      "type": "function"
    },
    {
      "inputs": [],
      "name": "OPERATOR_ROLE",
      "outputs": [
        {
          "internalType": "bytes32",
          "name": "",
          "type": "bytes32"
        }
      ],
      "stateMutability": "view",
      "type": "function"
    },
    {
      "inputs": [],
      "name": "USDC",
      "outputs": [
        {
          "internalType": "address",
          "name": "",
          "type": "address"
        }
      ],
      "stateMutability": "view",
      "type": "function"
    },
    {
      "inputs": [],
      "name": "VAULT_ROLE",
      "outputs": [
        {
          "internalType": "bytes32",
          "name": "",
          "type": "bytes32"
        }
      ],
      "stateMutability": "view",
      "type": "function"
    },
    {
      "inputs": [],
      "name": "WETH",
      "outputs": [
        {
          "internalType": "address",
          "name": "",
          "type": "address"
        }
      ],
      "stateMutability": "view",
      "type": "function"
    },
    {
      "inputs": [
        {
          "internalType": "address",
          "name": "",
          "type": "address"
        }
      ],
      "name": "accumulatedFees",
      "outputs": [
        {
          "internalType": "uint256",
          "name": "",
          "type": "uint256"
        }
      ],
      "stateMutability": "view",
      "type": "function"
    },
    {
      "inputs": [
        {
          "internalType": "address",
          "name": "hook",
          "type": "address"
        }
      ],
      "name": "addHook",
      "outputs": [],
      "stateMutability": "nonpayable",
      "type": "function"
    },
    {
      "inputs": [
        {
          "internalType": "address",
          "name": "vault",
          "type": "address"
        }
      ],
      "name": "addVault",
      "outputs": [],
      "stateMutability": "nonpayable",
      "type": "function"
    },
    {
      "inputs": [],
      "name": "botToken",
      "outputs": [
        {
          "internalType": "contract IERC20",
          "name": "",
          "type": "address"
        }
      ],
      "stateMutability": "view",
      "type": "function"
    },
    {
      "inputs": [],
      "name": "buybackPct",
      "outputs": [
        {
          "internalType": "uint256",
          "name": "",
          "type": "uint256"
        }
      ],
      "stateMutability": "view",
      "type": "function"
    },
    {
      "inputs": [],
      "name": "developmentPct",
      "outputs": [
        {
          "internalType": "uint256",
          "name": "",
          "type": "uint256"
        }
      ],
      "stateMutability": "view",
      "type": "function"
    },
    {
      "inputs": [],
      "name": "developmentWallet",
      "outputs": [
        {
          "internalType": "address",
          "name": "",
          "type": "address"
        }
      ],
      "stateMutability": "view",
      "type": "function"
    },
    {
      "inputs": [],
      "name": "distributeBotFees",
      "outputs": [],
      "stateMutability": "nonpayable",
      "type": "function"
    },
    {
      "inputs": [
        {
          "internalType": "uint256",
          "name": "amountIn",
          "type": "uint256"
        },
        {
          "internalType": "uint256",
          "name": "minAmountOut",
          "type": "uint256"
        }
      ],
      "name": "executeBuyback",
      "outputs": [],
      "stateMutability": "nonpayable",
      "type": "function"
    },
    {
      "inputs": [
        {
          "internalType": "address",
          "name": "token",
          "type": "address"
        }
      ],
      "name": "getAccumulatedFees",
      "outputs": [
        {
          "internalType": "uint256",
          "name": "",
          "type": "uint256"
        }
      ],
      "stateMutability": "view",
      "type": "function"
    },
    {
      "inputs": [
        {
          "internalType": "bytes32",
          "name": "role",
          "type": "bytes32"
        }
      ],
      "name": "getRoleAdmin",
      "outputs": [
        {
          "internalType": "bytes32",
          "name": "",
          "type": "bytes32"
        }
      ],
      "stateMutability": "view",
      "type": "function"
    },
    {
      "inputs": [],
      "name": "getTotalStats",
      "outputs": [
        {
          "internalType": "uint256",
          "name": "collected",
          "type": "uint256"
        },
        {
          "internalType": "uint256",
          "name": "distributed",
          "type": "uint256"
        },
        {
          "internalType": "uint256",
          "name": "botFees",
          "type": "uint256"
        },
        {
          "internalType": "uint256",
          "name": "usdcFees",
          "type": "uint256"
        }
      ],
      "stateMutability": "view",
      "type": "function"
    },
    {
      "inputs": [
        {
          "internalType": "bytes32",
          "name": "role",
          "type": "bytes32"
        },
        {
          "internalType": "address",
          "name": "account",
          "type": "address"
        }
      ],
      "name": "grantRole",
      "outputs": [],
      "stateMutability": "nonpayable",
      "type": "function"
    },
    {
      "inputs": [
        {
          "internalType": "bytes32",
          "name": "role",
          "type": "bytes32"
        },
        {
          "internalType": "address",
          "name": "account",
          "type": "address"
        }
      ],
      "name": "hasRole",
      "outputs": [
        {
          "internalType": "bool",
          "name": "",
          "type": "bool"
        }
      ],
      "stateMutability": "view",
      "type": "function"
    },
    {
      "inputs": [],
      "name": "insurancePct",
      "outputs": [
        {
          "internalType": "uint256",
          "name": "",
          "type": "uint256"
        }
      ],
      "stateMutability": "view",
      "type": "function"
    },
    {
      "inputs": [],
      "name": "insuranceWallet",
      "outputs": [
        {
          "internalType": "address",
          "name": "",
          "type": "address"
        }
      ],
      "stateMutability": "view",
      "type": "function"
    },
    {
      "inputs": [],
      "name": "minBuybackAmount",
      "outputs": [
        {
          "internalType": "uint256",
          "name": "",
          "type": "uint256"
        }
      ],
      "stateMutability": "view",
      "type": "function"
    },
    {
      "inputs": [
        {
          "internalType": "address",
          "name": "token",
          "type": "address"
        },
        {
          "internalType": "uint256",
          "name": "amount",
          "type": "uint256"
        }
      ],
      "name": "receiveFees",
      "outputs": [],
      "stateMutability": "nonpayable",
      "type": "function"
    },
    {
      "inputs": [
        {
          "internalType": "uint256",
          "name": "amount",
          "type": "uint256"
        }
      ],
      "name": "receiveSwapFees",
      "outputs": [],
      "stateMutability": "nonpayable",
      "type": "function"
    },
    {
      "inputs": [
        {
          "internalType": "address",
          "name": "token",
          "type": "address"
        },
        {
          "internalType": "uint256",
          "name": "amount",
          "type": "uint256"
        }
      ],
      "name": "recoverToken",
      "outputs": [],
      "stateMutability": "nonpayable",
      "type": "function"
    },
    {
      "inputs": [
        {
          "internalType": "bytes32",
          "name": "role",
          "type": "bytes32"
        },
        {
          "internalType": "address",
          "name": "callerConfirmation",
          "type": "address"
        }
      ],
      "name": "renounceRole",
      "outputs": [],
      "stateMutability": "nonpayable",
      "type": "function"
    },
    {
      "inputs": [
        {
          "internalType": "bytes32",
          "name": "role",
          "type": "bytes32"
        },
        {
          "internalType": "address",
          "name": "account",
          "type": "address"
        }
      ],
      "name": "revokeRole",
      "outputs": [],
      "stateMutability": "nonpayable",
      "type": "function"
    },
    {
      "inputs": [],
      "name": "router",
      "outputs": [
        {
          "internalType": "contract IUniswapV2Router",
          "name": "",
          "type": "address"
        }
      ],
      "stateMutability": "view",
      "type": "function"
    },
    {
      "inputs": [
        {
          "internalType": "uint256",
          "name": "_staking",
          "type": "uint256"
        },
        {
          "internalType": "uint256",
          "name": "_buyback",
          "type": "uint256"
        },
        {
          "internalType": "uint256",
          "name": "_dev",
          "type": "uint256"
        },
        {
          "internalType": "uint256",
          "name": "_insurance",
          "type": "uint256"
        }
      ],
      "name": "setDistribution",
      "outputs": [],
      "stateMutability": "nonpayable",
      "type": "function"
    },
    {
      "inputs": [
        {
          "internalType": "address",
          "name": "_router",
          "type": "address"
        }
      ],
      "name": "setRouter",
      "outputs": [],
      "stateMutability": "nonpayable",
      "type": "function"
    },
    {
      "inputs": [
        {
          "internalType": "address",
          "name": "_stakingPool",
          "type": "address"
        }
      ],
      "name": "setStakingPool",
      "outputs": [],
      "stateMutability": "nonpayable",
      "type": "function"
    },
    {
      "inputs": [
        {
          "internalType": "address",
          "name": "_development",
          "type": "address"
        },
        {
          "internalType": "address",
          "name": "_insurance",
          "type": "address"
        }
      ],
      "name": "setWallets",
      "outputs": [],
      "stateMutability": "nonpayable",
      "type": "function"
    },
    {
      "inputs": [],
      "name": "stakingPool",
      "outputs": [
        {
          "internalType": "contract IStakingPool",
          "name": "",
          "type": "address"
        }
      ],
      "stateMutability": "view",
      "type": "function"
    },
    {
      "inputs": [],
      "name": "stakingRewardsPct",
      "outputs": [
        {
          "internalType": "uint256",
          "name": "",
          "type": "uint256"
        }
      ],
      "stateMutability": "view",
      "type": "function"
    },
    {
      "inputs": [
        {
          "internalType": "bytes4",
          "name": "interfaceId",
          "type": "bytes4"
        }
      ],
      "name": "supportsInterface",
      "outputs": [
        {
          "internalType": "bool",
          "name": "",
          "type": "bool"
        }
      ],
      "stateMutability": "view",
      "type": "function"
    },
    {
      "inputs": [],
      "name": "totalFeesCollected",
      "outputs": [
        {
          "internalType": "uint256",
          "name": "",
          "type": "uint256"
        }
      ],
      "stateMutability": "view",
      "type": "function"
    },
    {
      "inputs": [],
      "name": "totalFeesDistributed",
      "outputs": [
        {
          "internalType": "uint256",
          "name": "",
          "type": "uint256"
        }
      ],
      "stateMutability": "view",
      "type": "function"
    }
  ],
  "bytecode": "0x60a06040526113886004556107d06005556105dc6006556105dc60075568056bc75e2d63100000600b55348015610034575f5ffd5b50604051611aea380380611aea833981016040819052610053916102a9565b600180556001600160a01b0383166100a65760405162461bcd60e51b815260206004820152601160248201527024b73b30b634b2102127aa103a37b5b2b760791b60448201526064015b60405180910390fd5b6001600160a01b0382166100f15760405162461bcd60e51b8152602060048201526012602482015271125b9d985b1a590819195d881dd85b1b195d60721b604482015260640161009d565b6001600160a01b0381166101475760405162461bcd60e51b815260206004820152601860248201527f496e76616c696420696e737572616e63652077616c6c65740000000000000000604482015260640161009d565b6001600160a01b03838116608052600c80546001600160a01b031990811685841617909155600d80549091169183169190911790556101865f336101e5565b506101b17f97667070c54ef182b0f5858b034beac1b6f3089aa2d3188bb1e8929f4fa9b929336101e5565b506101dc7ffbd454f36a7e1a388bd6fc3ab10d434aa4578f811acbbcf33afb1c697486313c336101e5565b505050506102e9565b5f828152602081815260408083206001600160a01b038516845290915281205460ff16610285575f838152602081815260408083206001600160a01b03861684529091529020805460ff1916600117905561023d3390565b6001600160a01b0316826001600160a01b0316847f2f8788117e7eff1d82e926ec794901d17c78024a50270940304540a733656f0d60405160405180910390a4506001610288565b505f5b92915050565b80516001600160a01b03811681146102a4575f5ffd5b919050565b5f5f5f606084860312156102bb575f5ffd5b6102c48461028e565b92506102d26020850161028e565b91506102e06040850161028e565b90509250925092565b60805161179c61034e5f395f8181610430015281816104a7015281816107f7015281816108290152818161088b01528181610907015281816109d601528181610a5101528181610aeb01528181610b2b01528181610dc80152610ebf015261179c5ff3fe608060405234801561000f575f5ffd5b50600436106101d5575f3560e01c8062b129a4146101d957806301ffc9a7146101ee5780630c56ae3b146102165780630fc709e51461023657806315d6e00614610249578063248a9ca314610260578063256b5a02146102735780632f2ff15d146102865780633028f63a1461029957806336568abe146102ac5780635038e06c146102bf578063564201f9146102d25780635a714356146102fa57806360c6d8ae1461030d57806371b72da3146103165780637b4e04e81461031e5780638582c9131461033157806389a302711461033a57806391d148541461034e578063974265d31461036157806397975c751461037557806398c4f1ac14610388578063a217fddf1461039c578063a79e58a5146103a3578063ad5c4648146103ac578063b29a8140146103ba578063c04a5414146103cd578063c0d78655146103e0578063d3f6a157146103f3578063d547741f14610406578063e1f1c4a714610419578063e81cb5ec14610422578063e9949b971461042b578063eb92330e14610452578063f0bd87cc1461045b578063f19000aa1461046f578063f5b541a614610478578063f887ea401461048c578063fc5cbf1d1461049f578063fcf666641461050d575b5f5ffd5b6101ec6101e7366004611329565b61052c565b005b6102016101fc366004611351565b6105e6565b60405190151581526020015b60405180910390f35b600254610229906001600160a01b031681565b60405161020d919061137f565b6101ec610244366004611393565b61061c565b61025260065481565b60405190815260200161020d565b61025261026e3660046113c2565b6106c0565b6101ec6102813660046113d9565b6106d4565b6101ec6102943660046113f2565b6106f5565b6101ec6102a73660046113d9565b610717565b6101ec6102ba3660046113f2565b610792565b600d54610229906001600160a01b031681565b6102526102e03660046113d9565b6001600160a01b03165f9081526008602052604090205490565b6101ec6103083660046113c2565b6107c5565b61025260095481565b6101ec6108de565b6101ec61032c3660046113d9565b610ba2565b610252600a5481565b6102295f5160206116e75f395f51905f5281565b61020161035c3660046113f2565b610bc3565b6102525f5160206117275f395f51905f5281565b6101ec61038336600461141c565b610beb565b6102525f5160206117475f395f51905f5281565b6102525f81565b61025260055481565b6102296006602160991b0181565b6101ec6103c8366004611329565b610f55565b600c54610229906001600160a01b031681565b6101ec6103ee3660046113d9565b610f73565b6101ec61040136600461143c565b610fee565b6101ec6104143660046113f2565b6110a2565b61025261271081565b61025260075481565b6102297f000000000000000000000000000000000000000000000000000000000000000081565b61025260045481565b6102525f5160206116c75f395f51905f5281565b610252600b5481565b6102525f5160206117075f395f51905f5281565b600354610229906001600160a01b031681565b600954600a547f00000000000000000000000000000000000000000000000000000000000000006001600160a01b03165f908152600860205260408120545f5160206116e75f395f51905f529091525f5160206116a75f395f51905f525460405161020d9493929190611464565b61025261051b3660046113d9565b60086020525f908152604090205481565b5f5160206117475f395f51905f52610543816110be565b61054b6110c8565b81156105d8576105666001600160a01b0384163330856110f2565b6001600160a01b0383165f908152600860205260408120805484929061058d908490611493565b925050819055508160095f8282546105a59190611493565b90915550506040518281526001600160a01b0384169033905f5160206116875f395f51905f529060200160405180910390a35b6105e160018055565b505050565b5f6001600160e01b03198216637965db0b60e01b148061061657506301ffc9a760e01b6001600160e01b03198316145b92915050565b5f610626816110be565b61271082846106358789611493565b61063f9190611493565b6106499190611493565b1461066757604051636d2fd3c960e01b815260040160405180910390fd5b60048590556005849055600683905560078290556040517f8adead107ba13fae1b5f36d9fa779c58b2bf71aab754388ad1feb3f6427fbd67906106b1908790879087908790611464565b60405180910390a15050505050565b5f9081526020819052604090206001015490565b5f6106de816110be565b6105e15f5160206117475f395f51905f5283611159565b6106fe826106c0565b610707816110be565b6107118383611159565b50505050565b5f610721816110be565b6001600160a01b0382166107485760405163d92e233d60e01b815260040160405180910390fd5b600280546001600160a01b0319166001600160a01b0384169081179091556040517f1984fdec4ffcca0907c88ef56716efae09a57013355072d097e0817084385424905f90a25050565b6001600160a01b03811633146107bb5760405163334bd91960e11b815260040160405180910390fd5b6105e182826111e8565b5f5160206117275f395f51905f526107dc816110be565b6107e46110c8565b81156108d15761081f6001600160a01b037f0000000000000000000000000000000000000000000000000000000000000000163330856110f2565b6001600160a01b037f0000000000000000000000000000000000000000000000000000000000000000165f9081526008602052604081208054849290610866908490611493565b925050819055508160095f82825461087e9190611493565b90915550506040518281527f00000000000000000000000000000000000000000000000000000000000000006001600160a01b03169033905f5160206116875f395f51905f529060200160405180910390a35b6108da60018055565b5050565b5f5160206116c75f395f51905f526108f5816110be565b6108fd6110c8565b6001600160a01b037f0000000000000000000000000000000000000000000000000000000000000000165f908152600860205260408120549081900361095657604051631e9acf1760e31b815260040160405180910390fd5b5f6127106004548361096891906114a6565b61097291906114bd565b90505f6127106005548461098691906114a6565b61099091906114bd565b90505f612710600654856109a491906114a6565b6109ae91906114bd565b90505f612710600754866109c291906114a6565b6109cc91906114bd565b6001600160a01b037f0000000000000000000000000000000000000000000000000000000000000000165f908152600860205260408120819055600a80549293508792909190610a1d908490611493565b90915550508315801590610a3b57506002546001600160a01b031615155b15610ad457600254610a7a906001600160a01b037f00000000000000000000000000000000000000000000000000000000000000008116911686611251565b600254604051633c6b16ab60e01b8152600481018690526001600160a01b0390911690633c6b16ab906024015f604051808303815f87803b158015610abd575f5ffd5b505af1158015610acf573d5f5f3e3d5ffd5b505050505b8115610b1457600c54610b14906001600160a01b037f00000000000000000000000000000000000000000000000000000000000000008116911684611251565b8015610b5457600d54610b54906001600160a01b037f00000000000000000000000000000000000000000000000000000000000000008116911683611251565b7f78490b24a020086d2701460dc169a540280c517bef9cdcd742f751a9099922a384848484604051610b899493929190611464565b60405180910390a15050505050610b9f60018055565b50565b5f610bac816110be565b6105e15f5160206117275f395f51905f5283611159565b5f918252602082815260408084206001600160a01b0393909316845291905290205460ff1690565b5f5160206117075f395f51905f52610c02816110be565b610c0a6110c8565b600b54831015610c2d576040516302a6f1ed60e01b815260040160405180910390fd5b5f5160206116e75f395f51905f525f5260086020525f5160206116a75f395f51905f5254831115610c7157604051631e9acf1760e31b815260040160405180910390fd5b5f5160206116e75f395f51905f525f90815260086020525f5160206116a75f395f51905f528054859290610ca69084906114dc565b909155505060035460405163095ea7b360e01b81525f5160206116e75f395f51905f529163095ea7b391610ce8916001600160a01b03169087906004016114ef565b6020604051808303815f875af1158015610d04573d5f5f3e3d5ffd5b505050506040513d601f19601f82011682018060405250810190610d289190611508565b50604080516003808252608082019092525f91602082016060803683370190505090505f5160206116e75f395f51905f52815f81518110610d6b57610d6b61153b565b60200260200101906001600160a01b031690816001600160a01b0316815250506006602160991b0181600181518110610da657610da661153b565b60200260200101906001600160a01b031690816001600160a01b0316815250507f000000000000000000000000000000000000000000000000000000000000000081600281518110610dfa57610dfa61153b565b6001600160a01b0392831660209182029290920101526003545f91166338ed173986868530610e2b4261012c611493565b6040518663ffffffff1660e01b8152600401610e4b95949392919061154f565b5f604051808303815f875af1158015610e66573d5f5f3e3d5ffd5b505050506040513d5f823e601f3d908101601f19168201604052610e8d91908101906115bf565b90505f8160018351610e9f91906114dc565b81518110610eaf57610eaf61153b565b602002602001015190508060085f7f00000000000000000000000000000000000000000000000000000000000000006001600160a01b03166001600160a01b031681526020019081526020015f205f828254610f0b9190611493565b909155505060408051878152602081018390527f8e8412cac6b961b95ef832e2bac486977bbd29eb9725f9eddd97f3380c31f649910160405180910390a15050506105e160018055565b5f610f5f816110be565b6105e16001600160a01b0384163384611251565b5f610f7d816110be565b6001600160a01b038216610fa45760405163d92e233d60e01b815260040160405180910390fd5b600380546001600160a01b0319166001600160a01b0384169081179091556040517f7aed1d3e8155a07ccf395e44ea3109a0e2d6c9b29bbbe9f142d9790596f4dc80905f90a25050565b5f610ff8816110be565b6001600160a01b038316158061101557506001600160a01b038216155b156110335760405163d92e233d60e01b815260040160405180910390fd5b600c80546001600160a01b038581166001600160a01b03199283168117909355600d80549186169190921681179091556040805192835260208301919091527f316af92955f23ddbd4c570a5f8cda8a10b192f24d8f58524deb2fcb03a8bc794910160405180910390a1505050565b6110ab826106c0565b6110b4816110be565b61071183836111e8565b610b9f8133611277565b6002600154036110eb57604051633ee5aeb560e01b815260040160405180910390fd5b6002600155565b6040516001600160a01b0384811660248301528381166044830152606482018390526107119186918216906323b872dd906084015b604051602081830303815290604052915060e01b6020820180516001600160e01b0383818316178352505050506112ab565b5f6111648383610bc3565b6111e1575f838152602081815260408083206001600160a01b03861684529091529020805460ff191660011790556111993390565b6001600160a01b0316826001600160a01b0316847f2f8788117e7eff1d82e926ec794901d17c78024a50270940304540a733656f0d60405160405180910390a4506001610616565b505f610616565b5f6111f38383610bc3565b156111e1575f838152602081815260408083206001600160a01b0386168085529252808320805460ff1916905551339286917ff6391f5c32d9c69d2a47ea670b442974b53935d1edc7fd64eb21e047a839171b9190a4506001610616565b6105e183846001600160a01b031663a9059cbb85856040516024016111279291906114ef565b6112818282610bc3565b6108da57808260405163e2517d3f60e01b81526004016112a29291906114ef565b60405180910390fd5b5f5f60205f8451602086015f885af1806112ca576040513d5f823e3d81fd5b50505f513d915081156112e15780600114156112ee565b6001600160a01b0384163b155b156107115783604051635274afe760e01b81526004016112a2919061137f565b80356001600160a01b0381168114611324575f5ffd5b919050565b5f5f6040838503121561133a575f5ffd5b6113438361130e565b946020939093013593505050565b5f60208284031215611361575f5ffd5b81356001600160e01b031981168114611378575f5ffd5b9392505050565b6001600160a01b0391909116815260200190565b5f5f5f5f608085870312156113a6575f5ffd5b5050823594602084013594506040840135936060013592509050565b5f602082840312156113d2575f5ffd5b5035919050565b5f602082840312156113e9575f5ffd5b6113788261130e565b5f5f60408385031215611403575f5ffd5b823591506114136020840161130e565b90509250929050565b5f5f6040838503121561142d575f5ffd5b50508035926020909101359150565b5f5f6040838503121561144d575f5ffd5b6114568361130e565b91506114136020840161130e565b93845260208401929092526040830152606082015260800190565b634e487b7160e01b5f52601160045260245ffd5b808201808211156106165761061661147f565b80820281158282048414176106165761061661147f565b5f826114d757634e487b7160e01b5f52601260045260245ffd5b500490565b818103818111156106165761061661147f565b6001600160a01b03929092168252602082015260400190565b5f60208284031215611518575f5ffd5b81518015158114611378575f5ffd5b634e487b7160e01b5f52604160045260245ffd5b634e487b7160e01b5f52603260045260245ffd5b5f60a0820187835286602084015260a0604084015280865180835260c0850191506020880192505f5b8181101561159f5783516001600160a01b0316835260209384019390920191600101611578565b50506001600160a01b039590951660608401525050608001529392505050565b5f602082840312156115cf575f5ffd5b81516001600160401b038111156115e4575f5ffd5b8201601f810184136115f4575f5ffd5b80516001600160401b0381111561160d5761160d611527565b604051600582901b90603f8201601f191681016001600160401b038111828210171561163b5761163b611527565b604052918252602081840181019290810187841115611658575f5ffd5b6020850194505b8385101561167b5784518082526020958601959093500161165f565b50969550505050505056fe58b4c45cc6c67617ace674aef57d99fa9ea8638829af5c91e5b9110f0651bb0966a2df745028916895c778d813c31ed256f96681e8c1c447e880acaa70b15ed2fbd454f36a7e1a388bd6fc3ab10d434aa4578f811acbbcf33afb1c697486313c000000000000000000000000833589fcd6edb6e08f4c7c32d4f71b54bda0291397667070c54ef182b0f5858b034beac1b6f3089aa2d3188bb1e8929f4fa9b9296c7da319c9435c5de434cd96129af937695e037ff325442da45308f61d80369831e0210044b4f6757ce6aa31f9c6e8d4896d24a755014887391a926c5224d959a2646970667358221220aab5d485f722317ed1f96c78a1939cc53e8f72d6ea2b69ae0f6511d87acac55864736f6c634300081c0033",
  "linkReferences": {},
  "deployedLinkReferences": {},
  "immutableReferences": {
    "20922": [
      {
        "length": 32,
        "start": 1072
      },
      {
        "length": 32,
        "start": 1191
      },
      {
        "length": 32,
        "start": 2039
      },
      {
        "length": 32,
        "start": 2089
      },
      {
        "length": 32,
        "start": 2187
      },
      {
        "length": 32,
        "start": 2311
      },
      {
        "length": 32,
        "start": 2518
      },
      {
        "length": 32,
        "start": 2641
      },
      {
        "length": 32,
        "start": 2795
      },
      {
        "length": 32,
        "start": 2859
      },
      {
        "length": 32,
        "start": 3528
      },
      {
        "length": 32,
        "start": 3775
      }
    ]
  },
  "inputSourceName": "project/contracts/treasury/Treasury.sol",
  "buildInfoId": "solc-0_8_28-08003884718a115bc5a34ffddf6806a10ca17a64"
}