{
  "_format": "hh3-artifact-1",
  "contractName": "VaultFactoryOptimized",
  "sourceName": "contracts/vault/VaultFactoryOptimized.sol",
  "abi": [
    {
      "inputs": [
        {
          "internalType": "contract IERC20",
          "name": "_defaultAsset",
          "type": "address"
        },
        {
          "internalType": "address",
          "name": "_treasuryAddress",
          "type": "address"
        }
      ],
      "stateMutability": "nonpayable",
      "type": "constructor"
    },
    {
      "inputs": [],
      "name": "AccessControlBadConfirmation",
      "type": "error"
    },
    {
      "inputs": [
        {
          "internalType": "address",
          "name": "account",
          "type": "address"
        },
        {
          "internalType": "bytes32",
          "name": "neededRole",
          "type": "bytes32"
        }
      ],
      "name": "AccessControlUnauthorizedAccount",
      "type": "error"
    },
    {
      "anonymous": false,
      "inputs": [
        {
          "indexed": true,
          "internalType": "uint256",
          "name": "botId",
          "type": "uint256"
        }
      ],
      "name": "BotConfigUpdated",
      "type": "event"
    },
    {
      "anonymous": false,
      "inputs": [
        {
          "indexed": false,
          "internalType": "string",
          "name": "contractType",
          "type": "string"
        },
        {
          "indexed": true,
          "internalType": "address",
          "name": "newAddress",
          "type": "address"
        }
      ],
      "name": "ContractUpdated",
      "type": "event"
    },
    {
      "anonymous": false,
      "inputs": [
        {
          "indexed": true,
          "internalType": "bytes32",
          "name": "role",
          "type": "bytes32"
        },
        {
          "indexed": true,
          "internalType": "bytes32",
          "name": "previousAdminRole",
          "type": "bytes32"
        },
        {
          "indexed": true,
          "internalType": "bytes32",
          "name": "newAdminRole",
          "type": "bytes32"
        }
      ],
      "name": "RoleAdminChanged",
      "type": "event"
    },
    {
      "anonymous": false,
      "inputs": [
        {
          "indexed": true,
          "internalType": "bytes32",
          "name": "role",
          "type": "bytes32"
        },
        {
          "indexed": true,
          "internalType": "address",
          "name": "account",
          "type": "address"
        },
        {
          "indexed": true,
          "internalType": "address",
          "name": "sender",
          "type": "address"
        }
      ],
      "name": "RoleGranted",
      "type": "event"
    },
    {
      "anonymous": false,
      "inputs": [
        {
          "indexed": true,
          "internalType": "bytes32",
          "name": "role",
          "type": "bytes32"
        },
        {
          "indexed": true,
          "internalType": "address",
          "name": "account",
          "type": "address"
        },
        {
          "indexed": true,
          "internalType": "address",
          "name": "sender",
          "type": "address"
        }
      ],
      "name": "RoleRevoked",
      "type": "event"
    },
    {
      "anonymous": false,
      "inputs": [
        {
          "indexed": true,
          "internalType": "uint256",
          "name": "botId",
          "type": "uint256"
        },
        {
          "indexed": true,
          "internalType": "address",
          "name": "vault",
          "type": "address"
        },
        {
          "indexed": false,
          "internalType": "string",
          "name": "botName",
          "type": "string"
        }
      ],
      "name": "VaultCreated",
      "type": "event"
    },
    {
      "anonymous": false,
      "inputs": [
        {
          "indexed": true,
          "internalType": "uint256",
          "name": "botId",
          "type": "uint256"
        }
      ],
      "name": "VaultDeactivated",
      "type": "event"
    },
    {
      "anonymous": false,
      "inputs": [
        {
          "indexed": true,
          "internalType": "uint256",
          "name": "botId",
          "type": "uint256"
        }
      ],
      "name": "VaultReactivated",
      "type": "event"
    },
    {
      "inputs": [],
      "name": "DEFAULT_ADMIN_ROLE",
      "outputs": [
        {
          "internalType": "bytes32",
          "name": "",
          "type": "bytes32"
        }
      ],
      "stateMutability": "view",
      "type": "function"
    },
    {
      "inputs": [],
      "name": "DEPLOYER_ROLE",
      "outputs": [
        {
          "internalType": "bytes32",
          "name": "",
          "type": "bytes32"
        }
      ],
      "stateMutability": "view",
      "type": "function"
    },
    {
      "inputs": [],
      "name": "MANAGER_ROLE",
      "outputs": [
        {
          "internalType": "bytes32",
          "name": "",
          "type": "bytes32"
        }
      ],
      "stateMutability": "view",
      "type": "function"
    },
    {
      "inputs": [],
      "name": "MAX_BOTS",
      "outputs": [
        {
          "internalType": "uint256",
          "name": "",
          "type": "uint256"
        }
      ],
      "stateMutability": "view",
      "type": "function"
    },
    {
      "inputs": [
        {
          "internalType": "uint256",
          "name": "",
          "type": "uint256"
        }
      ],
      "name": "allVaults",
      "outputs": [
        {
          "internalType": "address",
          "name": "",
          "type": "address"
        }
      ],
      "stateMutability": "view",
      "type": "function"
    },
    {
      "inputs": [
        {
          "internalType": "uint256",
          "name": "",
          "type": "uint256"
        }
      ],
      "name": "botConfigs",
      "outputs": [
        {
          "internalType": "string",
          "name": "name",
          "type": "string"
        },
        {
          "internalType": "address",
          "name": "manager",
          "type": "address"
        },
        {
          "internalType": "uint256",
          "name": "minBet",
          "type": "uint256"
        },
        {
          "internalType": "uint256",
          "name": "maxBet",
          "type": "uint256"
        },
        {
          "internalType": "uint8",
          "name": "aggressiveness",
          "type": "uint8"
        },
        {
          "internalType": "uint8",
          "name": "riskTolerance",
          "type": "uint8"
        },
        {
          "internalType": "string",
          "name": "personality",
          "type": "string"
        }
      ],
      "stateMutability": "view",
      "type": "function"
    },
    {
      "inputs": [],
      "name": "botManagerContract",
      "outputs": [
        {
          "internalType": "address",
          "name": "",
          "type": "address"
        }
      ],
      "stateMutability": "view",
      "type": "function"
    },
    {
      "inputs": [
        {
          "internalType": "string",
          "name": "",
          "type": "string"
        }
      ],
      "name": "botNameExists",
      "outputs": [
        {
          "internalType": "bool",
          "name": "",
          "type": "bool"
        }
      ],
      "stateMutability": "view",
      "type": "function"
    },
    {
      "inputs": [],
      "name": "defaultAsset",
      "outputs": [
        {
          "internalType": "contract IERC20",
          "name": "",
          "type": "address"
        }
      ],
      "stateMutability": "view",
      "type": "function"
    },
    {
      "inputs": [],
      "name": "deployAllBots",
      "outputs": [],
      "stateMutability": "nonpayable",
      "type": "function"
    },
    {
      "inputs": [
        {
          "internalType": "string",
          "name": "botName",
          "type": "string"
        },
        {
          "internalType": "address",
          "name": "manager",
          "type": "address"
        },
        {
          "internalType": "address",
          "name": "asset",
          "type": "address"
        },
        {
          "components": [
            {
              "internalType": "string",
              "name": "name",
              "type": "string"
            },
            {
              "internalType": "address",
              "name": "manager",
              "type": "address"
            },
            {
              "internalType": "uint256",
              "name": "minBet",
              "type": "uint256"
            },
            {
              "internalType": "uint256",
              "name": "maxBet",
              "type": "uint256"
            },
            {
              "internalType": "uint8",
              "name": "aggressiveness",
              "type": "uint8"
            },
            {
              "internalType": "uint8",
              "name": "riskTolerance",
              "type": "uint8"
            },
            {
              "internalType": "string",
              "name": "personality",
              "type": "string"
            }
          ],
          "internalType": "struct VaultFactoryLib.BotConfig",
          "name": "config",
          "type": "tuple"
        }
      ],
      "name": "deployVault",
      "outputs": [
        {
          "internalType": "address",
          "name": "vault",
          "type": "address"
        }
      ],
      "stateMutability": "nonpayable",
      "type": "function"
    },
    {
      "inputs": [],
      "name": "gameContract",
      "outputs": [
        {
          "internalType": "address",
          "name": "",
          "type": "address"
        }
      ],
      "stateMutability": "view",
      "type": "function"
    },
    {
      "inputs": [],
      "name": "getActiveVaults",
      "outputs": [
        {
          "internalType": "address[]",
          "name": "",
          "type": "address[]"
        }
      ],
      "stateMutability": "view",
      "type": "function"
    },
    {
      "inputs": [
        {
          "internalType": "uint256",
          "name": "botId",
          "type": "uint256"
        }
      ],
      "name": "getBotConfig",
      "outputs": [
        {
          "components": [
            {
              "internalType": "string",
              "name": "name",
              "type": "string"
            },
            {
              "internalType": "address",
              "name": "manager",
              "type": "address"
            },
            {
              "internalType": "uint256",
              "name": "minBet",
              "type": "uint256"
            },
            {
              "internalType": "uint256",
              "name": "maxBet",
              "type": "uint256"
            },
            {
              "internalType": "uint8",
              "name": "aggressiveness",
              "type": "uint8"
            },
            {
              "internalType": "uint8",
              "name": "riskTolerance",
              "type": "uint8"
            },
            {
              "internalType": "string",
              "name": "personality",
              "type": "string"
            }
          ],
          "internalType": "struct VaultFactoryLib.BotConfig",
          "name": "",
          "type": "tuple"
        }
      ],
      "stateMutability": "view",
      "type": "function"
    },
    {
      "inputs": [],
      "name": "getBotPersonalities",
      "outputs": [
        {
          "internalType": "string[10]",
          "name": "",
          "type": "string[10]"
        }
      ],
      "stateMutability": "pure",
      "type": "function"
    },
    {
      "inputs": [],
      "name": "getGlobalStats",
      "outputs": [
        {
          "internalType": "uint256",
          "name": "totalVaults",
          "type": "uint256"
        },
        {
          "internalType": "uint256",
          "name": "totalValueLocked",
          "type": "uint256"
        },
        {
          "internalType": "uint256",
          "name": "totalBetsPlaced",
          "type": "uint256"
        }
      ],
      "stateMutability": "view",
      "type": "function"
    },
    {
      "inputs": [
        {
          "internalType": "bytes32",
          "name": "role",
          "type": "bytes32"
        }
      ],
      "name": "getRoleAdmin",
      "outputs": [
        {
          "internalType": "bytes32",
          "name": "",
          "type": "bytes32"
        }
      ],
      "stateMutability": "view",
      "type": "function"
    },
    {
      "inputs": [],
      "name": "getTotalValueLocked",
      "outputs": [
        {
          "internalType": "uint256",
          "name": "total",
          "type": "uint256"
        }
      ],
      "stateMutability": "view",
      "type": "function"
    },
    {
      "inputs": [
        {
          "internalType": "uint256",
          "name": "botId",
          "type": "uint256"
        }
      ],
      "name": "getVault",
      "outputs": [
        {
          "internalType": "address",
          "name": "",
          "type": "address"
        }
      ],
      "stateMutability": "view",
      "type": "function"
    },
    {
      "inputs": [
        {
          "internalType": "address",
          "name": "vault",
          "type": "address"
        }
      ],
      "name": "getVaultConfig",
      "outputs": [
        {
          "internalType": "string",
          "name": "name",
          "type": "string"
        },
        {
          "internalType": "address",
          "name": "manager",
          "type": "address"
        },
        {
          "internalType": "uint256",
          "name": "minBet",
          "type": "uint256"
        },
        {
          "internalType": "uint256",
          "name": "maxBet",
          "type": "uint256"
        },
        {
          "internalType": "uint8",
          "name": "aggressiveness",
          "type": "uint8"
        },
        {
          "internalType": "uint8",
          "name": "riskTolerance",
          "type": "uint8"
        },
        {
          "internalType": "string",
          "name": "personality",
          "type": "string"
        }
      ],
      "stateMutability": "view",
      "type": "function"
    },
    {
      "inputs": [],
      "name": "getVaultCount",
      "outputs": [
        {
          "internalType": "uint256",
          "name": "",
          "type": "uint256"
        }
      ],
      "stateMutability": "view",
      "type": "function"
    },
    {
      "inputs": [
        {
          "internalType": "address",
          "name": "vault",
          "type": "address"
        }
      ],
      "name": "getVaultMetrics",
      "outputs": [
        {
          "internalType": "uint256",
          "name": "totalBets",
          "type": "uint256"
        },
        {
          "internalType": "uint256",
          "name": "totalWins",
          "type": "uint256"
        },
        {
          "internalType": "uint256",
          "name": "totalLosses",
          "type": "uint256"
        },
        {
          "internalType": "int256",
          "name": "profit",
          "type": "int256"
        }
      ],
      "stateMutability": "view",
      "type": "function"
    },
    {
      "inputs": [
        {
          "internalType": "bytes32",
          "name": "role",
          "type": "bytes32"
        },
        {
          "internalType": "address",
          "name": "account",
          "type": "address"
        }
      ],
      "name": "grantRole",
      "outputs": [],
      "stateMutability": "nonpayable",
      "type": "function"
    },
    {
      "inputs": [
        {
          "internalType": "bytes32",
          "name": "role",
          "type": "bytes32"
        },
        {
          "internalType": "address",
          "name": "account",
          "type": "address"
        }
      ],
      "name": "hasRole",
      "outputs": [
        {
          "internalType": "bool",
          "name": "",
          "type": "bool"
        }
      ],
      "stateMutability": "view",
      "type": "function"
    },
    {
      "inputs": [],
      "name": "nextBotId",
      "outputs": [
        {
          "internalType": "uint256",
          "name": "",
          "type": "uint256"
        }
      ],
      "stateMutability": "view",
      "type": "function"
    },
    {
      "inputs": [
        {
          "internalType": "bytes32",
          "name": "role",
          "type": "bytes32"
        },
        {
          "internalType": "address",
          "name": "callerConfirmation",
          "type": "address"
        }
      ],
      "name": "renounceRole",
      "outputs": [],
      "stateMutability": "nonpayable",
      "type": "function"
    },
    {
      "inputs": [
        {
          "internalType": "bytes32",
          "name": "role",
          "type": "bytes32"
        },
        {
          "internalType": "address",
          "name": "account",
          "type": "address"
        }
      ],
      "name": "revokeRole",
      "outputs": [],
      "stateMutability": "nonpayable",
      "type": "function"
    },
    {
      "inputs": [
        {
          "internalType": "bytes4",
          "name": "interfaceId",
          "type": "bytes4"
        }
      ],
      "name": "supportsInterface",
      "outputs": [
        {
          "internalType": "bool",
          "name": "",
          "type": "bool"
        }
      ],
      "stateMutability": "view",
      "type": "function"
    },
    {
      "inputs": [
        {
          "internalType": "uint256",
          "name": "botId",
          "type": "uint256"
        }
      ],
      "name": "toggleVaultStatus",
      "outputs": [],
      "stateMutability": "nonpayable",
      "type": "function"
    },
    {
      "inputs": [],
      "name": "treasury",
      "outputs": [
        {
          "internalType": "address",
          "name": "",
          "type": "address"
        }
      ],
      "stateMutability": "view",
      "type": "function"
    },
    {
      "inputs": [],
      "name": "treasuryAddress",
      "outputs": [
        {
          "internalType": "address",
          "name": "",
          "type": "address"
        }
      ],
      "stateMutability": "view",
      "type": "function"
    },
    {
      "inputs": [
        {
          "internalType": "uint256",
          "name": "botId",
          "type": "uint256"
        },
        {
          "internalType": "uint256",
          "name": "minBet",
          "type": "uint256"
        },
        {
          "internalType": "uint256",
          "name": "maxBet",
          "type": "uint256"
        },
        {
          "internalType": "uint8",
          "name": "aggressiveness",
          "type": "uint8"
        },
        {
          "internalType": "uint8",
          "name": "riskTolerance",
          "type": "uint8"
        }
      ],
      "name": "updateBotConfig",
      "outputs": [],
      "stateMutability": "nonpayable",
      "type": "function"
    },
    {
      "inputs": [
        {
          "internalType": "string",
          "name": "contractType",
          "type": "string"
        },
        {
          "internalType": "address",
          "name": "newAddress",
          "type": "address"
        }
      ],
      "name": "updateContract",
      "outputs": [],
      "stateMutability": "nonpayable",
      "type": "function"
    },
    {
      "inputs": [
        {
          "internalType": "address",
          "name": "",
          "type": "address"
        }
      ],
      "name": "vaultToBotId",
      "outputs": [
        {
          "internalType": "uint256",
          "name": "",
          "type": "uint256"
        }
      ],
      "stateMutability": "view",
      "type": "function"
    },
    {
      "inputs": [
        {
          "internalType": "uint256",
          "name": "",
          "type": "uint256"
        }
      ],
      "name": "vaults",
      "outputs": [
        {
          "internalType": "address",
          "name": "vaultAddress",
          "type": "address"
        },
        {
          "internalType": "address",
          "name": "asset",
          "type": "address"
        },
        {
          "internalType": "uint256",
          "name": "botId",
          "type": "uint256"
        },
        {
          "internalType": "string",
          "name": "botName",
          "type": "string"
        },
        {
          "internalType": "uint256",
          "name": "deployedAt",
          "type": "uint256"
        },
        {
          "internalType": "bool",
          "name": "isActive",
          "type": "bool"
        }
      ],
      "stateMutability": "view",
      "type": "function"
    }
  ],
  "bytecode": "0x608060405234801561000f575f5ffd5b50604051615dab380380615dab83398101604081905261002e916101e7565b6001600160a01b0382161580159061004e57506001600160a01b03811615155b61008f5760405162461bcd60e51b815260206004820152600e60248201526d496e76616c696420706172616d7360901b604482015260640160405180910390fd5b600780546001600160a01b038085166001600160a01b031992831617909255600a8054928416929091169190911790556100c95f33610127565b506100f47ffc425f2263d0df187444b70e47283d622c70181c5baebb1306a01edba1ce184c33610127565b5061011f7f241ecf16d79d0f8dbfb92cbc07fe17840425976cf0667f022fe9877caa831b0833610127565b50505061021f565b5f828152602081815260408083206001600160a01b038516845290915281205460ff166101c7575f838152602081815260408083206001600160a01b03861684529091529020805460ff1916600117905561017f3390565b6001600160a01b0316826001600160a01b0316847f2f8788117e7eff1d82e926ec794901d17c78024a50270940304540a733656f0d60405160405180910390a45060016101ca565b505f5b92915050565b6001600160a01b03811681146101e4575f5ffd5b50565b5f5f604083850312156101f8575f5ffd5b8251610203816101d0565b6020840151909250610214816101d0565b809150509250929050565b615b7f8061022c5f395ff3fe608060405234801561000f575f5ffd5b506004361061019f575f3560e01c806301ffc9a7146101a3578063201933bf146101cb578063248122cd146101e0578063248a9ca3146101f557806329d8e445146102165780632f2ff15d1461024157806332892ed91461025457806336568abe146102695780633e8d7e6d1461027c57806348d7bcd1146102aa5780634e189c02146102bd5780635a1a3cd5146102dc57806361d027b31461030257806361e84df214610313578063697a60b31461034c5780636b4169c31461035f5780636fc0c79d1461038257806374d4e4911461038b578063758cd2fc146103935780637b20c8f4146103b35780638c64ea4a146103c65780639094a91e146103eb57806391d14854146103fe5780639403b634146104115780639cc6e09614610424578063a217fddf1461042c578063b26025aa14610433578063c5f956af1461043b578063d3f330091461044e578063d547741f14610461578063de1eb9a314610474578063ec87621c14610487578063ecd002611461049b578063ee8afda4146104af578063fb675be6146104c2575b5f5ffd5b6101b66101b1366004612537565b6104ca565b60405190151581526020015b60405180910390f35b6101d3610500565b6040516101c29190612565565b6101f36101ee3660046125ba565b610532565b005b610208610203366004612606565b6105ff565b6040519081526020016101c2565b600954610229906001600160a01b031681565b6040516001600160a01b0390911681526020016101c2565b6101f361024f366004612633565b610613565b61025c610635565b6040516101c2919061268b565b6101f3610277366004612633565b61064a565b6101b661028a36600461279f565b805160208183018101805160048252928201919093012091525460ff1681565b6102296102b83660046127d8565b610682565b6102086102cb3660046128fd565b60036020525f908152604090205481565b6102ef6102ea366004612606565b610a3d565b6040516101c29796959493929190612916565b600a546001600160a01b0316610229565b61032c6103213660046128fd565b5f8080809193509193565b6040805194855260208501939093529183015260608201526080016101c2565b6101f361035a366004612976565b610b99565b610367610d6e565b604080519384526020840192909252908201526060016101c2565b61020860015481565b600654610208565b6103a66103a1366004612606565b610de1565b6040516101c291906129b7565b600754610229906001600160a01b031681565b6103d96103d4366004612606565b610fd0565b6040516101c296959493929190612a39565b6102296103f9366004612606565b61109d565b6101b661040c366004612633565b6110c5565b61022961041f366004612606565b6110ed565b610208600a81565b6102085f81565b61020861112a565b600a54610229906001600160a01b031681565b600854610229906001600160a01b031681565b6101f361046f366004612633565b611200565b6102ef6104823660046128fd565b61121c565b6102085f516020615a125f395f51905f5281565b6102085f5160206159f25f395f51905f5281565b6101f36104bd366004612606565b61143e565b6101f36115a7565b5f6001600160e01b03198216637965db0b60e01b14806104fa57506301ffc9a760e01b6001600160e01b03198316145b92915050565b60605f61051960015460026119e490919063ffffffff16565b60015490915061052c9060029083611a25565b91505090565b5f516020615a125f395f51905f5261054981611af8565b6001548610801561055e575060648360ff1611155b801561056e575060648260ff1611155b6105935760405162461bcd60e51b815260040161058a90612a85565b60405180910390fd5b5f86815260056020526040808220600281018890556003810187905560048101805460ff8781166101000261ffff19909216908916171790559051909188917f463a067e407e5ca79547c2e527fb24dd17272354ef0e7c25c3ca290d50ca78bf9190a250505050505050565b5f9081526020819052604090206001015490565b61061c826105ff565b61062581611af8565b61062f8383611b05565b50505050565b61063d6124e3565b610645611b94565b905090565b6001600160a01b03811633146106735760405163334bd91960e11b815260040160405180910390fd5b61067d8282611cd2565b505050565b5f5f5160206159f25f395f51905f5261069a81611af8565b600a6001541080156106ac57505f8651115b6106c85760405162461bcd60e51b815260040161058a90612a85565b6004866040516106d89190612aad565b9081526040519081900360200190205460ff1615801561070057506001600160a01b03851615155b6107435760405162461bcd60e51b815260206004820152601460248201527324b73b30b634b2103730b6b297b6b0b730b3b2b960611b604482015260640161058a565b5f6001600160a01b038516156107595784610766565b6007546001600160a01b03165b600180549192505f91908261077a83612ad7565b9190505590505f82828a8a6040516107919061250b565b61079e9493929190612aef565b604051809103905ff0801580156107b7573d5f5f3e3d5ffd5b5090508094506040518060c00160405280866001600160a01b03168152602001846001600160a01b031681526020018381526020018a81526020014281526020016001151581525060025f8481526020019081526020015f205f820151815f015f6101000a8154816001600160a01b0302191690836001600160a01b031602179055506020820151816001015f6101000a8154816001600160a01b0302191690836001600160a01b031602179055506040820151816002015560608201518160030190816108859190612baa565b506080820151600482015560a0909101516005918201805460ff19169115159190911790558987526001600160a01b0389166020808901919091525f84815291905260409020865187919081906108dc9082612baa565b5060208201516001820180546001600160a01b039092166001600160a01b03199092169190911790556040820151600282015560608201516003820155608082015160048201805460a085015160ff9081166101000261ffff1990921693169290921791909117905560c082015160058201906109599082612baa565b5050506001600160a01b0385165f90815260036020526040908190208390555160019060049061098a908c90612aad565b908152604051602091819003919091019020805460ff1916911515919091179055600680546001810182555f919091525f516020615a7e5f395f51905f520180546001600160a01b0319166001600160a01b0387811691909117909155600854600954600a54610a0293899381169281169116611d3b565b846001600160a01b0316825f516020615a325f395f51905f528b604051610a299190612c64565b60405180910390a350505050949350505050565b60056020525f9081526040902080548190610a5790612b2e565b80601f0160208091040260200160405190810160405280929190818152602001828054610a8390612b2e565b8015610ace5780601f10610aa557610100808354040283529160200191610ace565b820191905f5260205f20905b815481529060010190602001808311610ab157829003601f168201915b50505050600183015460028401546003850154600486015460058701805496976001600160a01b0390951696939550919360ff8083169461010090930416929091610b1890612b2e565b80601f0160208091040260200160405190810160405280929190818152602001828054610b4490612b2e565b8015610b8f5780601f10610b6657610100808354040283529160200191610b8f565b820191905f5260205f20905b815481529060010190602001808311610b7257829003601f168201915b5050505050905087565b5f516020615a125f395f51905f52610bb081611af8565b6001600160a01b038216610bf85760405162461bcd60e51b815260206004820152600f60248201526e496e76616c6964206164647265737360881b604482015260640161058a565b825160208401207f32327e1779891a58bab85d991a938b8a1e584d15e80e39990b25f3d1662671738101610c4f57600880546001600160a01b0319166001600160a01b038516179055610c4a5f611fa1565b610d27565b7fe72c59a7396dd6cfb036687fe4456cf96bd8e1d9752cac2f5404a0473cea15558103610c9b57600980546001600160a01b0319166001600160a01b038516179055610c4a6001611fa1565b7fcbd818ad4dd6f1ff9338c2bb62480241424dd9a65f9f3284101a01cd099ad8ac8103610ce757600a80546001600160a01b0319166001600160a01b038516179055610c4a6002611fa1565b60405162461bcd60e51b8152602060048201526015602482015274556e6b6e6f776e20636f6e7472616374207479706560581b604482015260640161058a565b826001600160a01b03167ff611fec7babefd259c57ea5b6006acff8140ab17bb816c65ba0aa7e36c09caa885604051610d609190612c64565b60405180910390a250505050565b5f5f5f5f306001600160a01b031663b26025aa6040518163ffffffff1660e01b8152600401602060405180830381865afa158015610dae573d5f5f3e3d5ffd5b505050506040513d601f19601f82011682018060405250810190610dd29190612c76565b600654959094505f9350915050565b610e2b6040518060e00160405280606081526020015f6001600160a01b031681526020015f81526020015f81526020015f60ff1681526020015f60ff168152602001606081525090565b6001548210610e4c5760405162461bcd60e51b815260040161058a90612c8d565b5f8281526005602052604090819020815160e08101909252805482908290610e7390612b2e565b80601f0160208091040260200160405190810160405280929190818152602001828054610e9f90612b2e565b8015610eea5780601f10610ec157610100808354040283529160200191610eea565b820191905f5260205f20905b815481529060010190602001808311610ecd57829003601f168201915b505050918352505060018201546001600160a01b031660208201526002820154604082015260038201546060820152600482015460ff80821660808401526101009091041660a082015260058201805460c090920191610f4990612b2e565b80601f0160208091040260200160405190810160405280929190818152602001828054610f7590612b2e565b8015610fc05780601f10610f9757610100808354040283529160200191610fc0565b820191905f5260205f20905b815481529060010190602001808311610fa357829003601f168201915b5050505050815250509050919050565b600260208190525f918252604090912080546001820154928201546003830180546001600160a01b039384169590931693919261100c90612b2e565b80601f016020809104026020016040519081016040528092919081815260200182805461103890612b2e565b80156110835780601f1061105a57610100808354040283529160200191611083565b820191905f5260205f20905b81548152906001019060200180831161106657829003601f168201915b50505050600483015460059093015491929160ff16905086565b600681815481106110ac575f80fd5b5f918252602090912001546001600160a01b0316905081565b5f918252602082815260408084206001600160a01b0393909316845291905290205460ff1690565b5f600154821061110f5760405162461bcd60e51b815260040161058a90612c8d565b505f908152600260205260409020546001600160a01b031690565b5f805b6006548110156111fc575f6006828154811061114b5761114b612cb5565b5f9182526020808320909101546001600160a01b0316808352600382526040808420548452600290925291206005015490915060ff16156111f357806001600160a01b03166301e1d1146040518163ffffffff1660e01b8152600401602060405180830381865afa1580156111c2573d5f5f3e3d5ffd5b505050506040513d601f19601f820116820180604052508101906111e69190612c76565b6111f09084612cc9565b92505b5060010161112d565b5090565b611209826105ff565b61121281611af8565b61062f8383611cd2565b6001600160a01b0381165f90815260036020526040812054600154606092918291829182918291879181106112835760405162461bcd60e51b815260206004820152600d60248201526c125b9d985b1a59081d985d5b1d609a1b604482015260640161058a565b5f81815260056020526040808220815160e081019092528054829082906112a990612b2e565b80601f01602080910402602001604051908101604052809291908181526020018280546112d590612b2e565b80156113205780601f106112f757610100808354040283529160200191611320565b820191905f5260205f20905b81548152906001019060200180831161130357829003601f168201915b505050918352505060018201546001600160a01b031660208201526002820154604082015260038201546060820152600482015460ff80821660808401526101009091041660a082015260058201805460c09092019161137f90612b2e565b80601f01602080910402602001604051908101604052809291908181526020018280546113ab90612b2e565b80156113f65780601f106113cd576101008083540402835291602001916113f6565b820191905f5260205f20905b8154815290600101906020018083116113d957829003601f168201915b5050505050815250509050805f015181602001518260400151836060015184608001518560a001518660c0015198509850985098509850985098505050919395979092949650565b5f516020615a125f395f51905f5261145581611af8565b60015482106114765760405162461bcd60e51b815260040161058a90612c8d565b5f82815260026020526040902060058101805460ff19811660ff9182161590811790925582546001600160a01b031691161561152957806001600160a01b0316633f4ba83a6040518163ffffffff1660e01b81526004015f604051808303815f87803b1580156114e4575f5ffd5b505af11580156114f6573d5f5f3e3d5ffd5b50506040518692507f9f8091dbab375b2fa107912acfd62213e723fe7f65a20a1cd9f9ae4e89049b9d91505f90a261062f565b806001600160a01b0316638456cb596040518163ffffffff1660e01b81526004015f604051808303815f87803b158015611561575f5ffd5b505af1158015611573573d5f5f3e3d5ffd5b50506040518692507fed42bd07c9324b7100d1532cbcff0231ca710c9047c373b2797bbd0e208f18d791505f90a250505050565b5f5160206159f25f395f51905f526115be81611af8565b600154156116015760405162461bcd60e51b815260206004820152601060248201526f105b1c9958591e4819195c1b1bde595960821b604482015260640161058a565b5f61160a61227f565b90505f611615611b94565b90505f6116206123ee565b90505f61162b61244c565b90505f5b600a8110156119dc57600180545f918261164883612ad7565b909155506007549091505f906001600160a01b0316828885600a811061167057611670612cb5565b6020020151336040516116829061250b565b61168f9493929190612aef565b604051809103905ff0801580156116a8573d5f5f3e3d5ffd5b506040805160c0810182526001600160a01b0380841682526007541660208201529081018490529091508190606081018986600a81106116ea576116ea612cb5565b6020908102919091015182524282820152600160409283018190525f878152600280845290849020855181546001600160a01b03199081166001600160a01b039283161783559487015193820180549095169316929092179092559183015190820155606082015160038201906117619082612baa565b506080820151600482015560a0909101516005909101805460ff19169115159190911790556040805160e08101909152808986600a81106117a4576117a4612cb5565b60200201518152602001336001600160a01b03168152602001678ac7230489e800008152602001683635c9adc5dea0000081526020018786600a81106117ec576117ec612cb5565b602002015160ff1681526020018686600a811061180b5761180b612cb5565b602002015160ff1681526020018886600a811061182a5761182a612cb5565b602090810291909101519091525f858152600590915260409020815181906118529082612baa565b5060208201516001820180546001600160a01b039092166001600160a01b03199092169190911790556040820151600282015560608201516003820155608082015160048201805460a085015160ff9081166101000261ffff1990921693169290921791909117905560c082015160058201906118cf9082612baa565b5050506001600160a01b0381165f908152600360205260409020839055600160048986600a811061190257611902612cb5565b60200201516040516119149190612aad565b908152604051602091819003919091019020805460ff1916911515919091179055600680546001810182555f919091525f516020615a7e5f395f51905f520180546001600160a01b0319166001600160a01b0383811691909117909155600854600954600a5461198c93859381169281169116611d3b565b806001600160a01b0316835f516020615a325f395f51905f528a87600a81106119b7576119b7612cb5565b60200201516040516119c99190612c64565b60405180910390a350505060010161162f565b505050505050565b5f805b82811015611a1e575f8181526020859052604090206005015460ff1615611a165781611a1281612ad7565b9250505b6001016119e7565b5092915050565b60605f826001600160401b03811115611a4057611a406126da565b604051908082528060200260200182016040528015611a69578160200160208202803683370190505b5090505f805b85811015611aed575f8181526020889052604090206005015460ff1615611ae5575f818152602088905260409020546001600160a01b03168383611ab281612ad7565b945081518110611ac457611ac4612cb5565b60200260200101906001600160a01b031690816001600160a01b0316815250505b600101611a6f565b509095945050505050565b611b0281336124aa565b50565b5f611b1083836110c5565b611b8d575f838152602081815260408083206001600160a01b03861684529091529020805460ff19166001179055611b453390565b6001600160a01b0316826001600160a01b0316847f2f8788117e7eff1d82e926ec794901d17c78024a50270940304540a733656f0d60405160405180910390a45060016104fa565b505f6104fa565b611b9c6124e3565b604080516101a08101909152602861014082018181528291615af561016084013981526020016040518060600160405280602a815260200161592d602a913981526020016040518060600160405280602d81526020016159a1602d913981526020016040518060600160405280602381526020016159576023913981526020016040518060600160405280602c8152602001615a52602c913981526020016040518060600160405280602d8152602001615b1d602d91398152602001604051806060016040528060258152602001615a9e60259139815260200160405180606001604052806027815260200161597a6027913981526020016040518060600160405280602481526020016159ce602491398152602001604051806060016040528060328152602001615ac3603291399052919050565b5f611cdd83836110c5565b15611b8d575f838152602081815260408083206001600160a01b0386168085529252808320805460ff1916905551339286917ff6391f5c32d9c69d2a47ea670b442974b53935d1edc7fd64eb21e047a839171b9190a45060016104fa565b836001600160a01b03841615611e0657806001600160a01b0316632f2ff15d826001600160a01b031663ab4007066040518163ffffffff1660e01b8152600401602060405180830381865afa158015611d96573d5f5f3e3d5ffd5b505050506040513d601f19601f82011682018060405250810190611dba9190612c76565b866040518363ffffffff1660e01b8152600401611dd8929190612cdc565b5f604051808303815f87803b158015611def575f5ffd5b505af1158015611e01573d5f5f3e3d5ffd5b505050505b6001600160a01b03831615611ed057806001600160a01b0316632f2ff15d826001600160a01b031663ec87621c6040518163ffffffff1660e01b8152600401602060405180830381865afa158015611e60573d5f5f3e3d5ffd5b505050506040513d601f19601f82011682018060405250810190611e849190612c76565b856040518363ffffffff1660e01b8152600401611ea2929190612cdc565b5f604051808303815f87803b158015611eb9575f5ffd5b505af1158015611ecb573d5f5f3e3d5ffd5b505050505b6001600160a01b03821615611f9a57806001600160a01b0316632f2ff15d826001600160a01b03166362a2a47c6040518163ffffffff1660e01b8152600401602060405180830381865afa158015611f2a573d5f5f3e3d5ffd5b505050506040513d601f19601f82011682018060405250810190611f4e9190612c76565b846040518363ffffffff1660e01b8152600401611f6c929190612cdc565b5f604051808303815f87803b158015611f83575f5ffd5b505af1158015611f95573d5f5f3e3d5ffd5b505050505b5050505050565b5f5b60065481101561227b575f60068281548110611fc157611fc1612cb5565b5f918252602090912001546001600160a01b0316905060ff8316158015611ff257506008546001600160a01b031615155b156120c657806001600160a01b0316632f2ff15d826001600160a01b031663ab4007066040518163ffffffff1660e01b8152600401602060405180830381865afa158015612042573d5f5f3e3d5ffd5b505050506040513d601f19601f820116820180604052508101906120669190612c76565b6008546040516001600160e01b031960e085901b16815261209492916001600160a01b031690600401612cdc565b5f604051808303815f87803b1580156120ab575f5ffd5b505af11580156120bd573d5f5f3e3d5ffd5b50505050612272565b8260ff1660011480156120e357506009546001600160a01b031615155b1561218557806001600160a01b0316632f2ff15d826001600160a01b031663ec87621c6040518163ffffffff1660e01b8152600401602060405180830381865afa158015612133573d5f5f3e3d5ffd5b505050506040513d601f19601f820116820180604052508101906121579190612c76565b6009546040516001600160e01b031960e085901b16815261209492916001600160a01b031690600401612cdc565b8260ff1660021480156121a25750600a546001600160a01b031615155b1561227257806001600160a01b0316632f2ff15d826001600160a01b03166362a2a47c6040518163ffffffff1660e01b8152600401602060405180830381865afa1580156121f2573d5f5f3e3d5ffd5b505050506040513d601f19601f820116820180604052508101906122169190612c76565b600a546040516001600160e01b031960e085901b16815261224492916001600160a01b031690600401612cdc565b5f604051808303815f87803b15801561225b575f5ffd5b505af115801561226d573d5f5f3e3d5ffd5b505050505b50600101611fa3565b5050565b6122876124e3565b50604080516101808101825260056101408201908152644c75636b7960d81b610160830152815281518083018352600a80825269111a58d94811195d9a5b60b21b6020838101919091528084019290925283518085018552818152692934b9b5902a30b5b2b960b11b8184015283850152835180850185528181526921b0b631bab630ba37b960b11b81840152606084015283518085018552908152692d32b71026b0b9ba32b960b11b81830152608083015282518084018452600880825267121bdd0814da1bdd60c21b8284015260a08401919091528351808501855260098082526810dbdbdb0812185b9960ba1b8285015260c0850191909152845180860186529081526815da5b190810d85c9960ba1b8184015260e084015283518085018552600c81526b53746561647920456464696560a01b8184015261010084015283518085019094528352674d6176657269636b60c01b9083015261012081019190915290565b6123f6612518565b506040805161014081018252601e8152605a60208201526046918101919091526028606082015260146080820152605560a0820152603260c0820152605f60e0820152600f610100820152604b61012082015290565b612454612518565b50604080516101408101825260288152605f6020820152605091810191909152601e606082015260196080820152605a60a0820152602d60c0820152606460e0820152600a610100820152605561012082015290565b6124b482826110c5565b61227b5760405163e2517d3f60e01b81526001600160a01b03821660048201526024810183905260440161058a565b604051806101400160405280600a905b60608152602001906001900390816124f35790505090565b612c3980612cf483390190565b604051806101400160405280600a906020820280368337509192915050565b5f60208284031215612547575f5ffd5b81356001600160e01b03198116811461255e575f5ffd5b9392505050565b602080825282518282018190525f918401906040840190835b81811015611aed5783516001600160a01b031683526020938401939092019160010161257e565b803560ff811681146125b5575f5ffd5b919050565b5f5f5f5f5f60a086880312156125ce575f5ffd5b8535945060208601359350604086013592506125ec606087016125a5565b91506125fa608087016125a5565b90509295509295909350565b5f60208284031215612616575f5ffd5b5035919050565b80356001600160a01b03811681146125b5575f5ffd5b5f5f60408385031215612644575f5ffd5b823591506126546020840161261d565b90509250929050565b5f81518084528060208401602086015e5f602082860101526020601f19601f83011685010191505092915050565b60208082525f90610160830190830184835b600a8110156126cf57601f198685030183526126ba84835161265d565b9350602092830192919091019060010161269d565b509195945050505050565b634e487b7160e01b5f52604160045260245ffd5b60405160e081016001600160401b0381118282101715612710576127106126da565b60405290565b5f82601f830112612725575f5ffd5b81356001600160401b0381111561273e5761273e6126da565b604051601f8201601f19908116603f011681016001600160401b038111828210171561276c5761276c6126da565b604052818152838201602001851015612783575f5ffd5b816020850160208301375f918101602001919091529392505050565b5f602082840312156127af575f5ffd5b81356001600160401b038111156127c4575f5ffd5b6127d084828501612716565b949350505050565b5f5f5f5f608085870312156127eb575f5ffd5b84356001600160401b03811115612800575f5ffd5b61280c87828801612716565b94505061281b6020860161261d565b92506128296040860161261d565b915060608501356001600160401b03811115612843575f5ffd5b850160e08188031215612854575f5ffd5b61285c6126ee565b81356001600160401b03811115612871575f5ffd5b61287d89828501612716565b82525061288c6020830161261d565b602082015260408281013590820152606080830135908201526128b1608083016125a5565b60808201526128c260a083016125a5565b60a082015260c08201356001600160401b038111156128df575f5ffd5b6128eb89828501612716565b60c08301525094979396509194505050565b5f6020828403121561290d575f5ffd5b61255e8261261d565b60e081525f61292860e083018a61265d565b6001600160a01b0389166020840152604083018890526060830187905260ff8681166080850152851660a084015282810360c0840152612968818561265d565b9a9950505050505050505050565b5f5f60408385031215612987575f5ffd5b82356001600160401b0381111561299c575f5ffd5b6129a885828601612716565b9250506126546020840161261d565b602081525f825160e060208401526129d361010084018261265d565b905060018060a01b036020850151166040840152604084015160608401526060840151608084015260ff60808501511660a084015260ff60a08501511660c084015260c0840151601f198483030160e0850152612a30828261265d565b95945050505050565b6001600160a01b038781168252861660208201526040810185905260c0606082018190525f90612a6b9083018661265d565b60808301949094525090151560a090910152949350505050565b6020808252600e908201526d496e76616c696420706172616d7360901b604082015260600190565b5f82518060208501845e5f920191825250919050565b634e487b7160e01b5f52601160045260245ffd5b5f60018201612ae857612ae8612ac3565b5060010190565b60018060a01b0385168152836020820152608060408201525f612b15608083018561265d565b905060018060a01b038316606083015295945050505050565b600181811c90821680612b4257607f821691505b602082108103612b6057634e487b7160e01b5f52602260045260245ffd5b50919050565b601f82111561067d57805f5260205f20601f840160051c81016020851015612b8b5750805b601f840160051c820191505b81811015611f9a575f8155600101612b97565b81516001600160401b03811115612bc357612bc36126da565b612bd781612bd18454612b2e565b84612b66565b6020601f821160018114612c09575f8315612bf25750848201515b5f19600385901b1c1916600184901b178455611f9a565b5f84815260208120601f198516915b82811015612c385787850151825560209485019460019092019101612c18565b5084821015612c5557868401515f19600387901b60f8161c191681555b50505050600190811b01905550565b602081525f61255e602083018461265d565b5f60208284031215612c86575f5ffd5b5051919050565b6020808252600e908201526d125b9d985b1a5908189bdd08125160921b604082015260600190565b634e487b7160e01b5f52603260045260245ffd5b808201808211156104fa576104fa612ac3565b9182526001600160a01b031660208201526040019056fe60e060405234801561000f575f5ffd5b50604051612c39380380612c3983398101604081905261002e916103f4565b838260405160200161004091906104e8565b60405160208183030381529060405283604051602001610060919061051f565b60408051601f19818403018152919052600361007c83826105c6565b50600461008982826105c6565b5050505f5f61009d836101bf60201b60201c565b91509150816100ad5760126100af565b805b60ff1660a05250506001600160a01b039081166080526001600655811661011c5760405162461bcd60e51b815260206004820152601360248201527f496e76616c696420626f74206d616e6167657200000000000000000000000000604482015260640160405180910390fd5b60c0839052600861012d83826105c6565b50600980546001600160a01b0319166001600160a01b0383161790556101535f33610295565b5061017e7f241ecf16d79d0f8dbfb92cbc07fe17840425976cf0667f022fe9877caa831b0833610295565b506101a97f6d5c9827c1f410bbb61d3b2a0a34b6b30492d9a1fd38588edca7ec4562ab9c9b82610295565b506101b2610342565b600b55506106a292505050565b60408051600481526024810182526020810180516001600160e01b031663313ce56760e01b17905290515f918291829182916001600160a01b0387169161020591610680565b5f60405180830381855afa9150503d805f811461023d576040519150601f19603f3d011682016040523d82523d5f602084013e610242565b606091505b509150915081801561025657506020815110155b15610289575f81806020019051810190610270919061068b565b905060ff8111610287576001969095509350505050565b505b505f9485945092505050565b5f8281526005602090815260408083206001600160a01b038516845290915281205460ff16610339575f8381526005602090815260408083206001600160a01b03861684529091529020805460ff191660011790556102f13390565b6001600160a01b0316826001600160a01b0316847f2f8788117e7eff1d82e926ec794901d17c78024a50270940304540a733656f0d60405160405180910390a450600161033c565b505f5b92915050565b5f61034c60805190565b6040516370a0823160e01b81523060048201526001600160a01b0391909116906370a0823190602401602060405180830381865afa158015610390573d5f5f3e3d5ffd5b505050506040513d601f19601f820116820180604052508101906103b4919061068b565b905090565b6001600160a01b03811681146103cd575f5ffd5b50565b634e487b7160e01b5f52604160045260245ffd5b80516103ef816103b9565b919050565b5f5f5f5f60808587031215610407575f5ffd5b8451610412816103b9565b6020860151604087015191955093506001600160401b03811115610434575f5ffd5b8501601f81018713610444575f5ffd5b80516001600160401b0381111561045d5761045d6103d0565b604051601f8201601f19908116603f011681016001600160401b038111828210171561048b5761048b6103d0565b6040528181528282016020018910156104a2575f5ffd5b8160208401602083015e5f602083830101528094505050506104c6606086016103e4565b905092959194509250565b5f81518060208401855e5f93019283525090919050565b6c02130b932b63c90243ab6b0b71609d1b81525f610509600d8301846104d1565b650815985d5b1d60d21b81526006019392505050565b6762685641554c542d60c01b81525f61053b60088301846104d1565b9392505050565b600181811c9082168061055657607f821691505b60208210810361057457634e487b7160e01b5f52602260045260245ffd5b50919050565b601f8211156105c157805f5260205f20601f840160051c8101602085101561059f5750805b601f840160051c820191505b818110156105be575f81556001016105ab565b50505b505050565b81516001600160401b038111156105df576105df6103d0565b6105f3816105ed8454610542565b8461057a565b6020601f821160018114610625575f831561060e5750848201515b5f19600385901b1c1916600184901b1784556105be565b5f84815260208120601f198516915b828110156106545787850151825560209485019460019092019101610634565b508482101561067157868401515f19600387901b60f8161c191681555b50505050600190811b01905550565b5f61053b82846104d1565b5f6020828403121561069b575f5ffd5b5051919050565b60805160a05160c05161256d6106cc5f395f61067c01525f610a9c01525f610af5015261256d5ff3fe608060405234801561000f575f5ffd5b50600436106102bd575f3560e01c806301e1d114146102c157806301ffc9a7146102dc57806305a9f274146102ff57806306fdde031461030857806307a2d13a1461031d578063095ea7b3146103305780630a28a477146103435780630affb402146103565780630d2cbe131461037557806313114a9d1461038a57806318160ddd14610393578063191fe1ed1461039b5780631e15e994146103a457806323b872dd146103b7578063248a9ca3146103ca5780632f2ff15d146103dd578063313ce567146103f0578063362ea21e1461040a57806336568abe1461041357806338d52e0f146104265780633f4ba83a1461043b578063402d267d14610443578063440c9603146104565780634afe62b51461045e5780634cdad5061461031d57806350a3238b146104715780635b01e374146104845780635b4a9b511461048c5780635c975abb1461049557806362a2a47c146104a05780636e553f65146104b457806370a08231146104c75780638456cb59146104da57806386001519146104e257806386511b15146104eb57806391d14854146104f457806394bf804d1461050757806395d89b411461051a5780639f0d7eb814610522578063a217fddf14610535578063a59aa5a61461053c578063a9059cbb14610571578063ab40070614610584578063af768ee314610598578063b1503774146105f1578063b3d7f6b914610605578063b460af9414610618578063ba0876521461062b578063c05ce2c81461063e578063c63d75b614610443578063c6e6f59214610651578063ce96cb7714610664578063cf6a426f14610677578063d547741f1461069e578063d6b70d9c146106b1578063d89a3696146106c6578063d905777e146106e8578063dd62ed3e146106fb578063ec87621c1461070e578063ef8b30f714610651578063f55255d014610722575b5f5ffd5b6102c9610735565b6040519081526020015b60405180910390f35b6102ef6102ea366004611fac565b6107ad565b60405190151581526020016102d3565b6102c9600a5481565b6103106107e3565b6040516102d39190611fd3565b6102c961032b366004612008565b610873565b6102ef61033e36600461203a565b61087e565b6102c9610351366004612008565b610895565b6102c9610364366004612062565b60136020525f908152604090205481565b61038861038336600461207b565b6108a1565b005b6102c9600d5481565b6002546102c9565b6102c961271081565b6102ef6103b2366004612008565b610a1b565b6102ef6103c536600461209b565b610a3a565b6102c96103d8366004612008565b610a5f565b6103886103eb3660046120d5565b610a73565b6103f8610a95565b60405160ff90911681526020016102d3565b6102c9600b5481565b6103886104213660046120d5565b610ac0565b61042e610af3565b6040516102d391906120ff565b610388610b17565b6102c9610451366004612062565b610b39565b610310610b3f565b6102c961046c36600461207b565b610bcb565b60095461042e906001600160a01b031681565b6102c960c881565b6102c9600f5481565b60075460ff166102ef565b6102c95f5160206124b85f395f51905f5281565b6102c96104c23660046120d5565b610d3d565b6102c96104d5366004612062565b610d9d565b610388610db7565b6102c9600c5481565b6102c960105481565b6102ef6105023660046120d5565b610dd6565b6102c96105153660046120d5565b610e00565b610310610e4e565b61042e610530366004612008565b610e5d565b6102c95f81565b610544610e85565b604080519687526020870195909552938501929092526060840152608083015260a082015260c0016102d3565b6102ef61057f36600461203a565b610ec1565b6102c95f5160206124f85f395f51905f5281565b6105cf6105a6366004612008565b600e6020525f908152604090208054600182015460028301546003909301549192909160ff1684565b60408051948552602085019390935291830152151560608201526080016102d3565b6102c95f5160206125185f395f51905f5281565b6102c9610613366004612008565b610ece565b6102c9610626366004612113565b610eda565b6102c9610639366004612113565b610f46565b61038861064c366004612062565b610f99565b6102c961065f366004612008565b611085565b6102c9610672366004612062565b611090565b6102c97f000000000000000000000000000000000000000000000000000000000000000081565b6103886106ac3660046120d5565b6110a3565b6106b96110bf565b6040516102d3919061214c565b6102ef6106d4366004612062565b60126020525f908152604090205460ff1681565b6102c96106f6366004612062565b61111e565b6102c9610709366004612197565b611128565b6102c95f5160206124d85f395f51905f5281565b61042e610730366004612008565b611152565b5f61073e610af3565b6001600160a01b03166370a08231306040518263ffffffff1660e01b815260040161076991906120ff565b602060405180830381865afa158015610784573d5f5f3e3d5ffd5b505050506040513d601f19601f820116820180604052508101906107a891906121bf565b905090565b5f6001600160e01b03198216637965db0b60e01b14806107dd57506301ffc9a760e01b6001600160e01b03198316145b92915050565b6060600380546107f2906121d6565b80601f016020809104026020016040519081016040528092919081815260200182805461081e906121d6565b80156108695780601f1061084057610100808354040283529160200191610869565b820191905f5260205f20905b81548152906001019060200180831161084c57829003601f168201915b5050505050905090565b5f6107dd825f611293565b5f3361088b8185856112cb565b5060019392505050565b5f6107dd8260016112d8565b5f5160206124f85f395f51905f526108b881611307565b6108c0611311565b5f838152600e60205260409020600381015460ff161561091d5760405162461bcd60e51b815260206004820152601360248201527210995d08185b1c9958591e481cd95d1d1b1959606a1b60448201526064015b60405180910390fd5b80546109595760405162461bcd60e51b815260206004820152600b60248201526a125b9d985b1a590818995d60aa1b6044820152606401610914565b60038101805460ff191660011790558054600a80545f9061097b908490612222565b909155505060108054905f61098f83612235565b90915550508054831180156109c65781545f906109ac9086612222565b905080600c5f8282546109bf919061224a565b9091555050505b60408051858152821515602082015286917f711470d68ba2a8e80e185c904dc5dde20434ae338fd4a9d56cd024538052c677910160405180910390a2610a0a61133b565b5050610a166001600655565b505050565b5f81600a54610a28610735565b610a329190612222565b101592915050565b5f33610a47858285611422565b610a5285858561146d565b60019150505b9392505050565b5f9081526005602052604090206001015490565b610a7c82610a5f565b610a8581611307565b610a8f83836114ca565b50505050565b5f6107a8817f000000000000000000000000000000000000000000000000000000000000000061225d565b6001600160a01b0381163314610ae95760405163334bd91960e11b815260040160405180910390fd5b610a16828261155b565b7f000000000000000000000000000000000000000000000000000000000000000090565b5f5160206124d85f395f51905f52610b2e81611307565b610b366115c6565b50565b505f1990565b60088054610b4c906121d6565b80601f0160208091040260200160405190810160405280929190818152602001828054610b78906121d6565b8015610bc35780601f10610b9a57610100808354040283529160200191610bc3565b820191905f5260205f20905b815481529060010190602001808311610ba657829003601f168201915b505050505081565b5f5f5160206124f85f395f51905f52610be381611307565b610beb611612565b5f8411610c2f5760405162461bcd60e51b8152602060048201526012602482015271125b9d985b1a590818995d08185b5bdd5b9d60721b6044820152606401610914565b83600a54610c3b610735565b610c459190612222565b1015610c635760405162461bcd60e51b815260040161091490612276565b600f5f8154610c71906122ab565b9182905550604080516080810182528681524260208083019182528284018881525f60608501818152878252600e909352948520935184559151600184015590516002830155516003909101805460ff1916911515919091179055600a80549294508692909190610ce390849061224a565b909155505060108054905f610cf7836122ab565b9190505550817fe100dbdd9684a240677869e6d8f3012e652b5a9144a95b6ac5d210e8eb1ff4088585604051610d2e9291906122c3565b60405180910390a25092915050565b5f610d46611612565b610d4e611311565b610d588383611638565b9050610d638261168c565b816001600160a01b03165f5160206124985f395f51905f5282604051610d8b91815260200190565b60405180910390a26107dd6001600655565b6001600160a01b03165f9081526020819052604090205490565b5f5160206124d85f395f51905f52610dce81611307565b610b36611749565b5f9182526005602090815260408084206001600160a01b0393909316845291905290205460ff1690565b5f610e09611612565b610e11611311565b610e1b8383611786565b9050610e268261168c565b816001600160a01b03165f5160206124985f395f51905f5284604051610d8b91815260200190565b6060600480546107f2906121d6565b60118181548110610e6c575f80fd5b5f918252602090912001546001600160a01b0316905081565b5f5f5f5f5f5f610e93610735565b9550600a5486610ea39190612222565b600a54600c54600d54601154999a9399929850909650945092509050565b5f3361088b81858561146d565b5f6107dd826001611293565b5f610ee3611311565b83600a54610eef610735565b610ef99190612222565b1015610f175760405162461bcd60e51b815260040161091490612276565b610f228484846117d2565b9050610f2d82610d9d565b5f03610f3c57610f3c82611828565b610a586001600655565b5f610f4f611311565b610f5884610873565b905080600a54610f66610735565b610f709190612222565b1015610f8e5760405162461bcd60e51b815260040161091490612276565b610f22848484611981565b5f5160206124d85f395f51905f52610fb081611307565b6001600160a01b038216610ff85760405162461bcd60e51b815260206004820152600f60248201526e24b73b30b634b21036b0b730b3b2b960891b6044820152606401610914565b60095461101c905f5160206125185f395f51905f52906001600160a01b03166110a3565b600980546001600160a01b0319166001600160a01b03841617905561104e5f5160206125185f395f51905f5283610a73565b6040516001600160a01b038316907fe0fbf8b0b98b4d8d0c27ba3f228a986f391ab768fe5a539a0ab540fe0b312ce2905f90a25050565b5f6107dd825f6112d8565b5f6107dd61109d83610d9d565b5f611293565b6110ac82610a5f565b6110b581611307565b610a8f838361155b565b6060601180548060200260200160405190810160405280929190818152602001828054801561086957602002820191905f5260205f20905b81546001600160a01b031681526001909101906020018083116110f7575050505050905090565b5f6107dd82610d9d565b6001600160a01b039182165f90815260016020908152604080832093909416825291909152205490565b5f808061115e60025490565b90505f81116111a15760405162461bcd60e51b815260206004820152600f60248201526e139bc81cda185c995cc8195e1a5cdd608a1b6044820152606401610914565b8084106111ee5760405162461bcd60e51b815260206004820152601b60248201527a15185c99d95d081dd95a59da1d08195e18d959591cc81d1bdd185b602a1b6044820152606401610914565b5f5b601154811015611256575f6011828154811061120e5761120e6122d1565b5f9182526020822001546001600160a01b0316915061122c82610d9d565b9050611238818661224a565b94508685111561124c575095945050505050565b50506001016111f0565b506011805461126790600190612222565b81548110611277576112776122d1565b5f918252602090912001546001600160a01b0316949350505050565b5f610a5861129f610735565b6112aa90600161224a565b6112b55f600a6123c8565b6002546112c2919061224a565b859190856119ce565b610a168383836001611a10565b5f610a586112e782600a6123c8565b6002546112f4919061224a565b6112fc610735565b6112c290600161224a565b610b368133611ae2565b60026006540361133457604051633ee5aeb560e01b815260040160405180910390fd5b6002600655565b5f611344610735565b9050600b54811115610b36575f600b548261135f9190612222565b90505f61271061137060c8846123d6565b61137a9190612401565b90505f8111801561139d575061139d5f5160206124b85f395f51905f5233610dd6565b15611410576113bf33826113af610af3565b6001600160a01b03169190611b11565b80600d5f8282546113d0919061224a565b90915550506040517f532e3fe338446332a7ef8c4817d2927dca27474a6f571fa9abe3637d3a0eaa6b9061140790839085906122c3565b60405180910390a15b61141a8184612222565b600b55505050565b5f61142d8484611128565b90505f19811015610a8f578181101561145f57828183604051637dc7a0d960e11b815260040161091493929190612414565b610a8f84848484035f611a10565b6001600160a01b038316611496575f604051634b637e8f60e11b815260040161091491906120ff565b6001600160a01b0382166114bf575f60405163ec442f0560e01b815260040161091491906120ff565b610a16838383611b69565b5f6114d58383610dd6565b611554575f8381526005602090815260408083206001600160a01b03861684529091529020805460ff1916600117905561150c3390565b6001600160a01b0316826001600160a01b0316847f2f8788117e7eff1d82e926ec794901d17c78024a50270940304540a733656f0d60405160405180910390a45060016107dd565b505f6107dd565b5f6115668383610dd6565b15611554575f8381526005602090815260408083206001600160a01b0386168085529252808320805460ff1916905551339286917ff6391f5c32d9c69d2a47ea670b442974b53935d1edc7fd64eb21e047a839171b9190a45060016107dd565b6115ce611c7c565b6007805460ff191690557f5db9ee0a495bf2e6ff9c91a7834c1ba4fdd244a5e8aa4e537bd38aeae4b073aa335b60405161160891906120ff565b60405180910390a1565b60075460ff16156116365760405163d93c066560e01b815260040160405180910390fd5b565b5f5f61164383610b39565b90508084111561166c57828482604051633c8097d960e11b815260040161091493929190612414565b5f61167685611085565b905061168433858784611c9f565b949350505050565b6001600160a01b0381165f9081526012602052604090205460ff161580156116bb57505f6116b982610d9d565b115b15610b365760118054600180820183555f8390527f31ecc21a745e3968a04e9570e4425bc18fa8019c68028196b546d1669c200c6890910180546001600160a01b0319166001600160a01b03851617905590546117189190612222565b6001600160a01b0382165f908152601360209081526040808320939093556012905220805460ff1916600117905550565b611751611612565b6007805460ff191660011790557f62e78cea01bee320cd4e420270b5ea74000d11b0c9f74754ebdbfc544b05a2586115fb3390565b5f5f61179183610b39565b9050808411156117ba5782848260405163284ff66760e01b815260040161091493929190612414565b5f6117c485610ece565b905061168433858388611c9f565b5f5f6117dd83611090565b90508085111561180657828582604051633fa733bb60e21b815260040161091493929190612414565b5f61181086610895565b905061181f3386868985611d01565b95945050505050565b6001600160a01b0381165f9081526012602052604090205460ff1615610b36576001600160a01b0381165f9081526013602052604081205460115490919061187290600190612222565b90508082146118f7575f6011828154811061188f5761188f6122d1565b5f91825260209091200154601180546001600160a01b0390921692508291859081106118bd576118bd6122d1565b5f91825260208083209190910180546001600160a01b0319166001600160a01b039485161790559290911681526013909152604090208290555b601180548061190857611908612435565b5f828152602080822083015f1990810180546001600160a01b03191690559092019092556001600160a01b0385168083526013825260408084208490556012909252818320805460ff19169055905190917f1abfc08c9d8e95dc2f77c443843422fe9ef89aafb40a5814f65e9c4f557f1faa91a2505050565b5f5f61198c8361111e565b9050808511156119b557828582604051632e52afbb60e21b815260040161091493929190612414565b5f6119bf86610873565b905061181f338686848a611d01565b5f6119fb6119db83611d9f565b80156119f657505f84806119f1576119f16123ed565b868809115b151590565b611a06868686611dcb565b61181f919061224a565b6001600160a01b038416611a39575f60405163e602df0560e01b815260040161091491906120ff565b6001600160a01b038316611a62575f604051634a1406b160e11b815260040161091491906120ff565b6001600160a01b038085165f9081526001602090815260408083209387168352929052208290558015610a8f57826001600160a01b0316846001600160a01b03167f8c5be1e5ebec7d5bd14f71427d1e84f3dd0314c0f7b2291e5b200ac8c7c3b92584604051611ad491815260200190565b60405180910390a350505050565b611aec8282610dd6565b611b0d57808260405163e2517d3f60e01b8152600401610914929190612449565b5050565b610a1683846001600160a01b031663a9059cbb8585604051602401611b37929190612449565b604051602081830303815290604052915060e01b6020820180516001600160e01b038381831617835250505050611e7b565b6001600160a01b038316611b93578060025f828254611b88919061224a565b90915550611bf09050565b6001600160a01b0383165f9081526020819052604090205481811015611bd25783818360405163391434e360e21b815260040161091493929190612414565b6001600160a01b0384165f9081526020819052604090209082900390555b6001600160a01b038216611c0c57600280548290039055611c2a565b6001600160a01b0382165f9081526020819052604090208054820190555b816001600160a01b0316836001600160a01b03167fddf252ad1be2c89b69c2b068fc378daa952ba7f163c4a11628f55a4df523b3ef83604051611c6f91815260200190565b60405180910390a3505050565b60075460ff1661163657604051638dfc202b60e01b815260040160405180910390fd5b611cb2611caa610af3565b853085611ede565b611cbc8382611f17565b826001600160a01b0316846001600160a01b03167fdcbc1c05240f31ff3ad067ef1ee35ce4997762752e3a095284754544f4c709d78484604051611ad49291906122c3565b826001600160a01b0316856001600160a01b031614611d2557611d25838683611422565b611d2f8382611f4b565b611d41611d3a610af3565b8584611b11565b826001600160a01b0316846001600160a01b0316866001600160a01b03167ffbde797d201c681b91056529119e0b02407c7bb96a4a2c75c01fc9667232c8db8585604051611d909291906122c3565b60405180910390a45050505050565b5f6002826003811115611db457611db4612462565b611dbe9190612476565b60ff166001149050919050565b5f5f5f611dd88686611f7f565b91509150815f03611dfc57838181611df257611df26123ed565b0492505050610a58565b818411611e1357611e136003851502601118611f9b565b5f848688095f868103871696879004966002600389028118808a02820302808a02820302808a02820302808a02820302808a02820302808a02909103029181900381900460010185841190960395909502919093039390930492909217029150509392505050565b5f5f60205f8451602086015f885af180611e9a576040513d5f823e3d81fd5b50505f513d91508115611eb1578060011415611ebe565b6001600160a01b0384163b155b15610a8f5783604051635274afe760e01b815260040161091491906120ff565b6040516001600160a01b038481166024830152838116604483015260648201839052610a8f9186918216906323b872dd90608401611b37565b6001600160a01b038216611f40575f60405163ec442f0560e01b815260040161091491906120ff565b611b0d5f8383611b69565b6001600160a01b038216611f74575f604051634b637e8f60e11b815260040161091491906120ff565b611b0d825f83611b69565b5f805f1983850993909202808410938190039390930393915050565b634e487b715f52806020526024601cfd5b5f60208284031215611fbc575f5ffd5b81356001600160e01b031981168114610a58575f5ffd5b602081525f82518060208401528060208501604085015e5f604082850101526040601f19601f83011684010191505092915050565b5f60208284031215612018575f5ffd5b5035919050565b80356001600160a01b0381168114612035575f5ffd5b919050565b5f5f6040838503121561204b575f5ffd5b6120548361201f565b946020939093013593505050565b5f60208284031215612072575f5ffd5b610a588261201f565b5f5f6040838503121561208c575f5ffd5b50508035926020909101359150565b5f5f5f606084860312156120ad575f5ffd5b6120b68461201f565b92506120c46020850161201f565b929592945050506040919091013590565b5f5f604083850312156120e6575f5ffd5b823591506120f66020840161201f565b90509250929050565b6001600160a01b0391909116815260200190565b5f5f5f60608486031215612125575f5ffd5b833592506121356020850161201f565b91506121436040850161201f565b90509250925092565b602080825282518282018190525f918401906040840190835b8181101561218c5783516001600160a01b0316835260209384019390920191600101612165565b509095945050505050565b5f5f604083850312156121a8575f5ffd5b6121b18361201f565b91506120f66020840161201f565b5f602082840312156121cf575f5ffd5b5051919050565b600181811c908216806121ea57607f821691505b60208210810361220857634e487b7160e01b5f52602260045260245ffd5b50919050565b634e487b7160e01b5f52601160045260245ffd5b818103818111156107dd576107dd61220e565b5f816122435761224361220e565b505f190190565b808201808211156107dd576107dd61220e565b60ff81811683821601908111156107dd576107dd61220e565b6020808252601b908201527a496e73756666696369656e7420756e6c6f636b65642066756e647360281b604082015260600190565b5f600182016122bc576122bc61220e565b5060010190565b918252602082015260400190565b634e487b7160e01b5f52603260045260245ffd5b6001815b6001841115612320578085048111156123045761230461220e565b600184161561231257908102905b60019390931c9280026122e9565b935093915050565b5f82612336575060016107dd565b8161234257505f6107dd565b816001811461235857600281146123625761237e565b60019150506107dd565b60ff8411156123735761237361220e565b50506001821b6107dd565b5060208310610133831016604e8410600b84101617156123a1575081810a6107dd565b6123ad5f1984846122e5565b805f19048211156123c0576123c061220e565b029392505050565b5f610a5860ff841683612328565b80820281158282048414176107dd576107dd61220e565b634e487b7160e01b5f52601260045260245ffd5b5f8261240f5761240f6123ed565b500490565b6001600160a01b039390931683526020830191909152604082015260600190565b634e487b7160e01b5f52603160045260245ffd5b6001600160a01b03929092168252602082015260400190565b634e487b7160e01b5f52602160045260245ffd5b5f60ff831680612488576124886123ed565b8060ff8416069150509291505056feb854df037407615523ac9e42e11c9bf6aa3f93c43a0647f04f6f5814d37c39e02dca0f5ce7e75a4b43fe2b0d6f5d0b7a2bf92ecf89f8f0aa17b8308b67038821241ecf16d79d0f8dbfb92cbc07fe17840425976cf0667f022fe9877caa831b086a64baf327d646d1bca72653e2a075d15fd6ac6d8cbd7f6ee03fc55875e0fa886d5c9827c1f410bbb61d3b2a0a34b6b30492d9a1fd38588edca7ec4562ab9c9ba2646970667358221220b190712083d15aff84a40422eb65ea0348d94a13042d5516b1106c3ab947c36264736f6c634300081c00334167677265737369766520706c617965722077686f206c6f76657320686967682d7269736b20626574734d617468656d61746963616c20706c6179657220666f6375736564206f6e206f646473556e7072656469637461626c6520616e64206368616f7469632062657474696e67207374796c6543616c63756c61746564207269736b2d74616b657220776974682073747261746567696320617070726f616368436f6e73697374656e7420616e6420636f6e73657276617469766520617070726f616368fc425f2263d0df187444b70e47283d622c70181c5baebb1306a01edba1ce184c241ecf16d79d0f8dbfb92cbc07fe17840425976cf0667f022fe9877caa831b086cda1fe49e022cf08f0f3e367bd8c6abb3c3a01a260273f23c8e432a4166a04843616c6d20616e642070617469656e742c20776169747320666f7220746865207269676874206d6f6d656e74f652222313e28459528d920b65115c16c04f3efc82aaedc97be59f3f377c0d3f436f6f6c20756e6465722070726573737572652c206d616b657320736d6172742062657473496e646570656e64656e74207468696e6b6572207769746820756e636f6e76656e74696f6e616c20737472617465676965734f7074696d697374696320616e642062656c696576657320696e206c75636b792073747265616b73436f6e666964656e742073686f6f7465722077686f206265747320626967206f6e20686f742073747265616b73a2646970667358221220aa9ee41f73276ae8ce4d521cda4ab4414e4bf5828c232d458194164b706fe54364736f6c634300081c0033",
  "linkReferences": {},
  "deployedLinkReferences": {},
  "immutableReferences": {},
  "inputSourceName": "project/contracts/vault/VaultFactoryOptimized.sol",
  "buildInfoId": "solc-0_8_28-e514557414109e89be5718670d413d7fa8ee09fe"
}